{
  "transactions": [
    {
      "hash": "0xb4288646e4f118e246e4194b69f292bda7e74ac69b82f0b023013a6496bf3123",
      "transactionType": "CALL",
      "contractName": "GnosisSafeProxy",
      "contractAddress": "0xc21cBd97e46dE91bE7A659f4f6a0F5866C538eFD",
      "function": "execTransaction(address,uint256,bytes,uint8,uint256,uint256,uint256,address,address,bytes):(bool)",
      "arguments": [
        "0xA5dbb55d2a2CAc79EF32d8d02397ae3F928AaD36",
        "0",
        "0x79ba5097",
        "0",
        "0",
        "0",
        "0",
        "0x0000000000000000000000000000000000000000",
        "0x0000000000000000000000000000000000000000",
        "0x000000000000000000000000921d360ad22a6d0289ce57fcb8250e299cb19ea3000000000000000000000000000000000000000000000000000000000000000001"
      ],
      "transaction": {
        "type": "0x02",
        "from": "0x921d360ad22a6d0289ce57fcb8250e299cb19ea3",
        "to": "0xc21cbd97e46de91be7a659f4f6a0f5866c538efd",
        "gas": "0x187df",
        "value": "0x0",
        "data": "0x6a761202000000000000000000000000a5dbb55d2a2cac79ef32d8d02397ae3f928aad36000000000000000000000000000000000000000000000000000000000000000000000000000000000000000000000000000000000000000000000000000001400000000000000000000000000000000000000000000000000000000000000000000000000000000000000000000000000000000000000000000000000000000000000000000000000000000000000000000000000000000000000000000000000000000000000000000000000000000000000000000000000000000000000000000000000000000000000000000000000000000000000000000000000000000000000000000000000000000000000000000000000000000000000000000000000000000000000000000000000000000000000000000000000000000000000180000000000000000000000000000000000000000000000000000000000000000479ba5097000000000000000000000000000000000000000000000000000000000000000000000000000000000000000000000000000000000000000000000041000000000000000000000000921d360ad22a6d0289ce57fcb8250e299cb19ea300000000000000000000000000000000000000000000000000000000000000000100000000000000000000000000000000000000000000000000000000000000",
        "nonce": "0x965",
        "accessList": []
      },
      "additionalContracts": [],
      "isFixedGasLimit": false
    },
    {
      "hash": "0x0e4a3f170e9943c9bb85e8d110c3f0fe146859823bfd3b98b91bda26ad249eef",
      "transactionType": "CALL",
      "contractName": "GnosisSafeProxy",
      "contractAddress": "0x3bA4a434bcc62a7f3B01984981fCAFf6411C4A03",
      "function": "execTransaction(address,uint256,bytes,uint8,uint256,uint256,uint256,address,address,bytes):(bool)",
      "arguments": [
        "0x871CD06C1c581deeEd296959F6BF05e02ed9584E",
        "0",
        "0x79ba5097",
        "0",
        "0",
        "0",
        "0",
        "0x0000000000000000000000000000000000000000",
        "0x0000000000000000000000000000000000000000",
        "0x000000000000000000000000921d360ad22a6d0289ce57fcb8250e299cb19ea3000000000000000000000000000000000000000000000000000000000000000001"
      ],
      "transaction": {
        "type": "0x02",
        "from": "0x921d360ad22a6d0289ce57fcb8250e299cb19ea3",
        "to": "0x3ba4a434bcc62a7f3b01984981fcaff6411c4a03",
        "gas": "0x187c1",
        "value": "0x0",
        "data": "0x6a761202000000000000000000000000871cd06c1c581deeed296959f6bf05e02ed9584e000000000000000000000000000000000000000000000000000000000000000000000000000000000000000000000000000000000000000000000000000001400000000000000000000000000000000000000000000000000000000000000000000000000000000000000000000000000000000000000000000000000000000000000000000000000000000000000000000000000000000000000000000000000000000000000000000000000000000000000000000000000000000000000000000000000000000000000000000000000000000000000000000000000000000000000000000000000000000000000000000000000000000000000000000000000000000000000000000000000000000000000000000000000000000000000180000000000000000000000000000000000000000000000000000000000000000479ba5097000000000000000000000000000000000000000000000000000000000000000000000000000000000000000000000000000000000000000000000041000000000000000000000000921d360ad22a6d0289ce57fcb8250e299cb19ea300000000000000000000000000000000000000000000000000000000000000000100000000000000000000000000000000000000000000000000000000000000",
        "nonce": "0x966",
        "accessList": []
      },
      "additionalContracts": [],
      "isFixedGasLimit": false
    },
    {
      "hash": "0xf393de84c90786466ad914a7beeece1fdfbb25c34f0ddd3af90e8d192e9bb7ee",
      "transactionType": "CALL",
      "contractName": "GnosisSafeProxy",
      "contractAddress": "0x644F20Beb994473bc6E8BDc23D7AC0C2bA1EFFc7",
      "function": "execTransaction(address,uint256,bytes,uint8,uint256,uint256,uint256,address,address,bytes):(bool)",
      "arguments": [
        "0x8D6C35F289913A2f0486ac95Fb0e5bA8C741C301",
        "0",
        "0x79ba5097",
        "0",
        "0",
        "0",
        "0",
        "0x0000000000000000000000000000000000000000",
        "0x0000000000000000000000000000000000000000",
        "0x000000000000000000000000921d360ad22a6d0289ce57fcb8250e299cb19ea3000000000000000000000000000000000000000000000000000000000000000001"
      ],
      "transaction": {
        "type": "0x02",
        "from": "0x921d360ad22a6d0289ce57fcb8250e299cb19ea3",
        "to": "0x644f20beb994473bc6e8bdc23d7ac0c2ba1effc7",
        "gas": "0x1b1b3",
        "value": "0x0",
        "data": "0x6a7612020000000000000000000000008d6c35f289913a2f0486ac95fb0e5ba8c741c301000000000000000000000000000000000000000000000000000000000000000000000000000000000000000000000000000000000000000000000000000001400000000000000000000000000000000000000000000000000000000000000000000000000000000000000000000000000000000000000000000000000000000000000000000000000000000000000000000000000000000000000000000000000000000000000000000000000000000000000000000000000000000000000000000000000000000000000000000000000000000000000000000000000000000000000000000000000000000000000000000000000000000000000000000000000000000000000000000000000000000000000000000000000000000000000180000000000000000000000000000000000000000000000000000000000000000479ba5097000000000000000000000000000000000000000000000000000000000000000000000000000000000000000000000000000000000000000000000041000000000000000000000000921d360ad22a6d0289ce57fcb8250e299cb19ea300000000000000000000000000000000000000000000000000000000000000000100000000000000000000000000000000000000000000000000000000000000",
        "nonce": "0x967",
        "accessList": []
      },
      "additionalContracts": [],
      "isFixedGasLimit": false
    },
    {
      "hash": "0x5bb4e0df2cfd10fa453f4d1aeec5890b161565bbe8ebc66003b18465a9c903c7",
      "transactionType": "CALL",
      "contractName": "GnosisSafeProxy",
      "contractAddress": "0x644F20Beb994473bc6E8BDc23D7AC0C2bA1EFFc7",
      "function": "execTransaction(address,uint256,bytes,uint8,uint256,uint256,uint256,address,address,bytes):(bool)",
      "arguments": [
        "0x8Cc83C079bCBD313491B7BCdA7Fb8f1687f0af68",
        "0",
        "0x79ba5097",
        "0",
        "0",
        "0",
        "0",
        "0x0000000000000000000000000000000000000000",
        "0x0000000000000000000000000000000000000000",
        "0x000000000000000000000000921d360ad22a6d0289ce57fcb8250e299cb19ea3000000000000000000000000000000000000000000000000000000000000000001"
      ],
      "transaction": {
        "type": "0x02",
        "from": "0x921d360ad22a6d0289ce57fcb8250e299cb19ea3",
        "to": "0x644f20beb994473bc6e8bdc23d7ac0c2ba1effc7",
        "gas": "0x169a7",
        "value": "0x0",
        "data": "0x6a7612020000000000000000000000008cc83c079bcbd313491b7bcda7fb8f1687f0af68000000000000000000000000000000000000000000000000000000000000000000000000000000000000000000000000000000000000000000000000000001400000000000000000000000000000000000000000000000000000000000000000000000000000000000000000000000000000000000000000000000000000000000000000000000000000000000000000000000000000000000000000000000000000000000000000000000000000000000000000000000000000000000000000000000000000000000000000000000000000000000000000000000000000000000000000000000000000000000000000000000000000000000000000000000000000000000000000000000000000000000000000000000000000000000000180000000000000000000000000000000000000000000000000000000000000000479ba5097000000000000000000000000000000000000000000000000000000000000000000000000000000000000000000000000000000000000000000000041000000000000000000000000921d360ad22a6d0289ce57fcb8250e299cb19ea300000000000000000000000000000000000000000000000000000000000000000100000000000000000000000000000000000000000000000000000000000000",
        "nonce": "0x968",
        "accessList": []
      },
      "additionalContracts": [],
      "isFixedGasLimit": false
    },
    {
      "hash": "0xc066420559c79a73f2a6ca44d44cdc58578db218929c47329929356ec16ef783",
      "transactionType": "CALL",
      "contractName": "GnosisSafeProxy",
      "contractAddress": "0x644F20Beb994473bc6E8BDc23D7AC0C2bA1EFFc7",
      "function": "execTransaction(address,uint256,bytes,uint8,uint256,uint256,uint256,address,address,bytes):(bool)",
      "arguments": [
        "0x5DFb361aC273610c8B6AC29c213D7EAc6bA8e9fa",
        "0",
        "0x79ba5097",
        "0",
        "0",
        "0",
        "0",
        "0x0000000000000000000000000000000000000000",
        "0x0000000000000000000000000000000000000000",
        "0x000000000000000000000000921d360ad22a6d0289ce57fcb8250e299cb19ea3000000000000000000000000000000000000000000000000000000000000000001"
      ],
      "transaction": {
        "type": "0x02",
        "from": "0x921d360ad22a6d0289ce57fcb8250e299cb19ea3",
        "to": "0x644f20beb994473bc6e8bdc23d7ac0c2ba1effc7",
        "gas": "0x169a7",
        "value": "0x0",
        "data": "0x6a7612020000000000000000000000005dfb361ac273610c8b6ac29c213d7eac6ba8e9fa000000000000000000000000000000000000000000000000000000000000000000000000000000000000000000000000000000000000000000000000000001400000000000000000000000000000000000000000000000000000000000000000000000000000000000000000000000000000000000000000000000000000000000000000000000000000000000000000000000000000000000000000000000000000000000000000000000000000000000000000000000000000000000000000000000000000000000000000000000000000000000000000000000000000000000000000000000000000000000000000000000000000000000000000000000000000000000000000000000000000000000000000000000000000000000000180000000000000000000000000000000000000000000000000000000000000000479ba5097000000000000000000000000000000000000000000000000000000000000000000000000000000000000000000000000000000000000000000000041000000000000000000000000921d360ad22a6d0289ce57fcb8250e299cb19ea300000000000000000000000000000000000000000000000000000000000000000100000000000000000000000000000000000000000000000000000000000000",
        "nonce": "0x969",
        "accessList": []
      },
      "additionalContracts": [],
      "isFixedGasLimit": false
    },
    {
      "hash": "0x5473b8685c84dc12a92f96376e68dce74eb1ddd4be3cbf0459239a5ec443d061",
      "transactionType": "CALL",
      "contractName": "GnosisSafeProxy",
      "contractAddress": "0x644F20Beb994473bc6E8BDc23D7AC0C2bA1EFFc7",
      "function": "execTransaction(address,uint256,bytes,uint8,uint256,uint256,uint256,address,address,bytes):(bool)",
      "arguments": [
        "0x4cAcCFAEf18526292E901c1668F23d125ca6C66C",
        "0",
        "0x79ba5097",
        "0",
        "0",
        "0",
        "0",
        "0x0000000000000000000000000000000000000000",
        "0x0000000000000000000000000000000000000000",
        "0x000000000000000000000000921d360ad22a6d0289ce57fcb8250e299cb19ea3000000000000000000000000000000000000000000000000000000000000000001"
      ],
      "transaction": {
        "type": "0x02",
        "from": "0x921d360ad22a6d0289ce57fcb8250e299cb19ea3",
        "to": "0x644f20beb994473bc6e8bdc23d7ac0c2ba1effc7",
        "gas": "0x169a7",
        "value": "0x0",
        "data": "0x6a7612020000000000000000000000004caccfaef18526292e901c1668f23d125ca6c66c000000000000000000000000000000000000000000000000000000000000000000000000000000000000000000000000000000000000000000000000000001400000000000000000000000000000000000000000000000000000000000000000000000000000000000000000000000000000000000000000000000000000000000000000000000000000000000000000000000000000000000000000000000000000000000000000000000000000000000000000000000000000000000000000000000000000000000000000000000000000000000000000000000000000000000000000000000000000000000000000000000000000000000000000000000000000000000000000000000000000000000000000000000000000000000000180000000000000000000000000000000000000000000000000000000000000000479ba5097000000000000000000000000000000000000000000000000000000000000000000000000000000000000000000000000000000000000000000000041000000000000000000000000921d360ad22a6d0289ce57fcb8250e299cb19ea300000000000000000000000000000000000000000000000000000000000000000100000000000000000000000000000000000000000000000000000000000000",
        "nonce": "0x96a",
        "accessList": []
      },
      "additionalContracts": [],
      "isFixedGasLimit": false
    }
  ],
  "receipts": [
    {
      "transactionHash": "0xb4288646e4f118e246e4194b69f292bda7e74ac69b82f0b023013a6496bf3123",
      "transactionIndex": "0x0",
      "blockHash": "0x657fd0f1e4989b877f17660fe9c7ab99d9d8e9444bbe128fdbefc6ba039f2163",
      "blockNumber": "0x962ac3",
      "from": "0x921d360aD22A6D0289ce57fcb8250e299cB19EA3",
      "to": "0xc21cBd97e46dE91bE7A659f4f6a0F5866C538eFD",
      "cumulativeGasUsed": "0x11bb6",
      "gasUsed": "0x11bb6",
      "contractAddress": null,
      "logs": [
        {
          "address": "0xA5dbb55d2a2CAc79EF32d8d02397ae3F928AaD36",
          "topics": [
            "0x8be0079c531659141344cd1fd0a4f28419497f9722a3daafe3b4186f6b6457e0",
            "0x000000000000000000000000921d360ad22a6d0289ce57fcb8250e299cb19ea3",
            "0x000000000000000000000000c21cbd97e46de91be7a659f4f6a0f5866c538efd"
          ],
          "data": "0x",
          "blockHash": "0x657fd0f1e4989b877f17660fe9c7ab99d9d8e9444bbe128fdbefc6ba039f2163",
          "blockNumber": "0x962ac3",
          "transactionHash": "0xb4288646e4f118e246e4194b69f292bda7e74ac69b82f0b023013a6496bf3123",
          "transactionIndex": "0x0",
          "logIndex": "0x0",
          "removed": false
        },
        {
          "address": "0xc21cBd97e46dE91bE7A659f4f6a0F5866C538eFD",
          "topics": [
            "0x442e715f626346e8c54381002da614f62bee8d27386535b2521ec8540898556e"
          ],
          "data": "0x0c06a78b3e2edd0e1770c8019ba2b5ad92fe33296300fba3a61b0e952a9ecffb0000000000000000000000000000000000000000000000000000000000000000",
          "blockHash": "0x657fd0f1e4989b877f17660fe9c7ab99d9d8e9444bbe128fdbefc6ba039f2163",
          "blockNumber": "0x962ac3",
          "transactionHash": "0xb4288646e4f118e246e4194b69f292bda7e74ac69b82f0b023013a6496bf3123",
          "transactionIndex": "0x0",
          "logIndex": "0x1",
          "removed": false
        }
      ],
      "status": "0x1",
      "logsBloom": "0x00000000400000000000000000000000000000000000000000800000040000000000000000000000000000000000100000200000000000000000000000000000000004000000000000000000000000000001000000000000000000000000000000000000100000000000000000000000000000000008000000000010000040400000000000000000000000000000000000000000000000000000000000000000000000000000000000008000000004000200000000000000000000000008000000100000000000004000000000000000000000000000000000000000000000000000000000000000000000000000000000000000000000000000000000000000",
      "type": "0x2",
      "effectiveGasPrice": "0xb2d05e0c"
    },
    {
      "transactionHash": "0x0e4a3f170e9943c9bb85e8d110c3f0fe146859823bfd3b98b91bda26ad249eef",
      "transactionIndex": "0x1",
      "blockHash": "0x657fd0f1e4989b877f17660fe9c7ab99d9d8e9444bbe128fdbefc6ba039f2163",
      "blockNumber": "0x962ac3",
      "from": "0x921d360aD22A6D0289ce57fcb8250e299cB19EA3",
      "to": "0x3bA4a434bcc62a7f3B01984981fCAFf6411C4A03",
      "cumulativeGasUsed": "0x23756",
      "gasUsed": "0x11ba0",
      "contractAddress": null,
      "logs": [
        {
          "address": "0x871CD06C1c581deeEd296959F6BF05e02ed9584E",
          "topics": [
            "0x8be0079c531659141344cd1fd0a4f28419497f9722a3daafe3b4186f6b6457e0",
            "0x000000000000000000000000921d360ad22a6d0289ce57fcb8250e299cb19ea3",
            "0x0000000000000000000000003ba4a434bcc62a7f3b01984981fcaff6411c4a03"
          ],
          "data": "0x",
          "blockHash": "0x657fd0f1e4989b877f17660fe9c7ab99d9d8e9444bbe128fdbefc6ba039f2163",
          "blockNumber": "0x962ac3",
          "transactionHash": "0x0e4a3f170e9943c9bb85e8d110c3f0fe146859823bfd3b98b91bda26ad249eef",
          "transactionIndex": "0x1",
          "logIndex": "0x2",
          "removed": false
        },
        {
          "address": "0x3bA4a434bcc62a7f3B01984981fCAFf6411C4A03",
          "topics": [
            "0x442e715f626346e8c54381002da614f62bee8d27386535b2521ec8540898556e"
          ],
          "data": "0x2348fbde35d836cedf8c0f86f6290f4001dffeffb1c94f1e58d96f42e1cb4f3f0000000000000000000000000000000000000000000000000000000000000000",
          "blockHash": "0x657fd0f1e4989b877f17660fe9c7ab99d9d8e9444bbe128fdbefc6ba039f2163",
          "blockNumber": "0x962ac3",
          "transactionHash": "0x0e4a3f170e9943c9bb85e8d110c3f0fe146859823bfd3b98b91bda26ad249eef",
          "transactionIndex": "0x1",
          "logIndex": "0x3",
          "removed": false
        }
      ],
      "status": "0x1",
      "logsBloom": "0x00000000400000000000000000000000040000000000000000800000040000000000800000000000000000000000000000000000000000000000000000000000004000000000000000000000000000000001000000000000000000000000000000000000000000000000000000000002000000000000000000000010000040400000000000000000000000000000000000000000000000000000000000080000000000000001000000000000000004000000000000000000020000000000000000100000000000000000000000000000000000100000000000000000000000000000000400000000000000000000000000000000000000000000000000000000",
      "type": "0x2",
      "effectiveGasPrice": "0xb2d05e0c"
    },
    {
      "transactionHash": "0xf393de84c90786466ad914a7beeece1fdfbb25c34f0ddd3af90e8d192e9bb7ee",
      "transactionIndex": "0x2",
      "blockHash": "0x657fd0f1e4989b877f17660fe9c7ab99d9d8e9444bbe128fdbefc6ba039f2163",
      "blockNumber": "0x962ac3",
      "from": "0x921d360aD22A6D0289ce57fcb8250e299cB19EA3",
      "to": "0x644F20Beb994473bc6E8BDc23D7AC0C2bA1EFFc7",
      "cumulativeGasUsed": "0x37155",
      "gasUsed": "0x139ff",
      "contractAddress": null,
      "logs": [
        {
          "address": "0x8D6C35F289913A2f0486ac95Fb0e5bA8C741C301",
          "topics": [
            "0xb532073b38c83145e3e5135377a08bf9aab55bc0fd7c1179cd4fb995d2a5159c"
          ],
          "data": "0x000000000000000000000000921d360ad22a6d0289ce57fcb8250e299cb19ea3000000000000000000000000644f20beb994473bc6e8bdc23d7ac0c2ba1effc7",
          "blockHash": "0x657fd0f1e4989b877f17660fe9c7ab99d9d8e9444bbe128fdbefc6ba039f2163",
          "blockNumber": "0x962ac3",
          "transactionHash": "0xf393de84c90786466ad914a7beeece1fdfbb25c34f0ddd3af90e8d192e9bb7ee",
          "transactionIndex": "0x2",
          "logIndex": "0x4",
          "removed": false
        },
        {
          "address": "0x644F20Beb994473bc6E8BDc23D7AC0C2bA1EFFc7",
          "topics": [
            "0x442e715f626346e8c54381002da614f62bee8d27386535b2521ec8540898556e"
          ],
          "data": "0xc9845f26e09cf180d140c9a3d08e9f6c169a6cfcdceb71dc00d9181d9c533d980000000000000000000000000000000000000000000000000000000000000000",
          "blockHash": "0x657fd0f1e4989b877f17660fe9c7ab99d9d8e9444bbe128fdbefc6ba039f2163",
          "blockNumber": "0x962ac3",
          "transactionHash": "0xf393de84c90786466ad914a7beeece1fdfbb25c34f0ddd3af90e8d192e9bb7ee",
          "transactionIndex": "0x2",
          "logIndex": "0x5",
          "removed": false
        }
      ],
      "status": "0x1",
      "logsBloom": "0x0000000040000000000001000000000000000000000000000008000004000000000000000000000000000000000000000000100000000000000000000000000000000000000000000000000000000000000000000000000000000000000000000000000000000000200000000000000000000000000000000000000000000000000000000000000000000000000000000000000000000000000000000000000000000000000000000000000000010400000000000a000000000000000000000000040000000000000000000000000000000000000000080000000000000000000000000000000000000000000000000000000000000000000000000000000000",
      "type": "0x2",
      "effectiveGasPrice": "0xb2d05e0c"
    },
    {
      "transactionHash": "0x5bb4e0df2cfd10fa453f4d1aeec5890b161565bbe8ebc66003b18465a9c903c7",
      "transactionIndex": "0x3",
      "blockHash": "0x657fd0f1e4989b877f17660fe9c7ab99d9d8e9444bbe128fdbefc6ba039f2163",
      "blockNumber": "0x962ac3",
      "from": "0x921d360aD22A6D0289ce57fcb8250e299cB19EA3",
      "to": "0x644F20Beb994473bc6E8BDc23D7AC0C2bA1EFFc7",
      "cumulativeGasUsed": "0x4689e",
      "gasUsed": "0xf749",
      "contractAddress": null,
      "logs": [
        {
          "address": "0x8Cc83C079bCBD313491B7BCdA7Fb8f1687f0af68",
          "topics": [
            "0xb532073b38c83145e3e5135377a08bf9aab55bc0fd7c1179cd4fb995d2a5159c"
          ],
          "data": "0x000000000000000000000000921d360ad22a6d0289ce57fcb8250e299cb19ea3000000000000000000000000644f20beb994473bc6e8bdc23d7ac0c2ba1effc7",
          "blockHash": "0x657fd0f1e4989b877f17660fe9c7ab99d9d8e9444bbe128fdbefc6ba039f2163",
          "blockNumber": "0x962ac3",
          "transactionHash": "0x5bb4e0df2cfd10fa453f4d1aeec5890b161565bbe8ebc66003b18465a9c903c7",
          "transactionIndex": "0x3",
          "logIndex": "0x6",
          "removed": false
        },
        {
          "address": "0x644F20Beb994473bc6E8BDc23D7AC0C2bA1EFFc7",
          "topics": [
            "0x442e715f626346e8c54381002da614f62bee8d27386535b2521ec8540898556e"
          ],
          "data": "0x6640e447227260e716494f962af6ceaa09d8a21289d89ba64d54817bfba8ac3b0000000000000000000000000000000000000000000000000000000000000000",
          "blockHash": "0x657fd0f1e4989b877f17660fe9c7ab99d9d8e9444bbe128fdbefc6ba039f2163",
          "blockNumber": "0x962ac3",
          "transactionHash": "0x5bb4e0df2cfd10fa453f4d1aeec5890b161565bbe8ebc66003b18465a9c903c7",
          "transactionIndex": "0x3",
          "logIndex": "0x7",
          "removed": false
        }
      ],
      "status": "0x1",
      "logsBloom": "0x00000000400000000000000000000000000000000000000000080000040000000000000000000000000000000000000000001000000000000000000000000000000000000000000000000000000000000000000000000000000000000000000000000000000000002000000000000000000000000000000000000000000200000000000000000000000000000000000000000000000000000000000000000000000000000000000000000000000104000000000008000000000000000000000000000100000000000000000000000000000000000000080000000000000000000000000000000000000000000000000002000000000000000000000000000000",
      "type": "0x2",
      "effectiveGasPrice": "0xb2d05e0c"
    },
    {
      "transactionHash": "0xc066420559c79a73f2a6ca44d44cdc58578db218929c47329929356ec16ef783",
      "transactionIndex": "0x4",
      "blockHash": "0x657fd0f1e4989b877f17660fe9c7ab99d9d8e9444bbe128fdbefc6ba039f2163",
      "blockNumber": "0x962ac3",
      "from": "0x921d360aD22A6D0289ce57fcb8250e299cB19EA3",
      "to": "0x644F20Beb994473bc6E8BDc23D7AC0C2bA1EFFc7",
      "cumulativeGasUsed": "0x55fe7",
      "gasUsed": "0xf749",
      "contractAddress": null,
      "logs": [
        {
          "address": "0x5DFb361aC273610c8B6AC29c213D7EAc6bA8e9fa",
          "topics": [
            "0xb532073b38c83145e3e5135377a08bf9aab55bc0fd7c1179cd4fb995d2a5159c"
          ],
          "data": "0x000000000000000000000000921d360ad22a6d0289ce57fcb8250e299cb19ea3000000000000000000000000644f20beb994473bc6e8bdc23d7ac0c2ba1effc7",
          "blockHash": "0x657fd0f1e4989b877f17660fe9c7ab99d9d8e9444bbe128fdbefc6ba039f2163",
          "blockNumber": "0x962ac3",
          "transactionHash": "0xc066420559c79a73f2a6ca44d44cdc58578db218929c47329929356ec16ef783",
          "transactionIndex": "0x4",
          "logIndex": "0x8",
          "removed": false
        },
        {
          "address": "0x644F20Beb994473bc6E8BDc23D7AC0C2bA1EFFc7",
          "topics": [
            "0x442e715f626346e8c54381002da614f62bee8d27386535b2521ec8540898556e"
          ],
          "data": "0xb8f1a30a6cc122a573112abdec6d34dcfd11a520ff05ef924e2c487e46524f0d0000000000000000000000000000000000000000000000000000000000000000",
          "blockHash": "0x657fd0f1e4989b877f17660fe9c7ab99d9d8e9444bbe128fdbefc6ba039f2163",
          "blockNumber": "0x962ac3",
          "transactionHash": "0xc066420559c79a73f2a6ca44d44cdc58578db218929c47329929356ec16ef783",
          "transactionIndex": "0x4",
          "logIndex": "0x9",
          "removed": false
        }
      ],
      "status": "0x1",
      "logsBloom": "0x00000000400000000000000000000000001000000000000000080000040000000000000080000000000000000000000000001000000000000000000000000000000000000000000000000000000000000000000000000000000000000000000000000000000000002000000000000000000000000000400000000000000000000000000000000000000000000000000000000000000000000000000000000000000000000000000000000000000104000000000008000000000000000000000000000000000000000000000000000000000000000000080000000000000000000000000000000000000000000000000000000000000000000000000000000000",
      "type": "0x2",
      "effectiveGasPrice": "0xb2d05e0c"
    },
    {
      "transactionHash": "0x5473b8685c84dc12a92f96376e68dce74eb1ddd4be3cbf0459239a5ec443d061",
      "transactionIndex": "0x5",
      "blockHash": "0x657fd0f1e4989b877f17660fe9c7ab99d9d8e9444bbe128fdbefc6ba039f2163",
      "blockNumber": "0x962ac3",
      "from": "0x921d360aD22A6D0289ce57fcb8250e299cB19EA3",
      "to": "0x644F20Beb994473bc6E8BDc23D7AC0C2bA1EFFc7",
      "cumulativeGasUsed": "0x65730",
      "gasUsed": "0xf749",
      "contractAddress": null,
      "logs": [
        {
          "address": "0x4cAcCFAEf18526292E901c1668F23d125ca6C66C",
          "topics": [
            "0xb532073b38c83145e3e5135377a08bf9aab55bc0fd7c1179cd4fb995d2a5159c"
          ],
          "data": "0x000000000000000000000000921d360ad22a6d0289ce57fcb8250e299cb19ea3000000000000000000000000644f20beb994473bc6e8bdc23d7ac0c2ba1effc7",
          "blockHash": "0x657fd0f1e4989b877f17660fe9c7ab99d9d8e9444bbe128fdbefc6ba039f2163",
          "blockNumber": "0x962ac3",
          "transactionHash": "0x5473b8685c84dc12a92f96376e68dce74eb1ddd4be3cbf0459239a5ec443d061",
          "transactionIndex": "0x5",
          "logIndex": "0xa",
          "removed": false
        },
        {
          "address": "0x644F20Beb994473bc6E8BDc23D7AC0C2bA1EFFc7",
          "topics": [
            "0x442e715f626346e8c54381002da614f62bee8d27386535b2521ec8540898556e"
          ],
          "data": "0xed9c97d855eaece67dd7c3ac6d5966c93e2d7a3970df37ccdf75e3d38582a7dc0000000000000000000000000000000000000000000000000000000000000000",
          "blockHash": "0x657fd0f1e4989b877f17660fe9c7ab99d9d8e9444bbe128fdbefc6ba039f2163",
          "blockNumber": "0x962ac3",
          "transactionHash": "0x5473b8685c84dc12a92f96376e68dce74eb1ddd4be3cbf0459239a5ec443d061",
          "transactionIndex": "0x5",
          "logIndex": "0xb",
          "removed": false
        }
      ],
      "status": "0x1",
      "logsBloom": "0x00000000400020000000000000000000000000000000000000080000040000000000000000000000000000000000000000001000000000000000000000000000000000000000000040000000000000000000000000000000000000000000000000000000000000002000000000000000000000000000000000000000000000000000000000000000000000000000000000000000000000000000000000000000000000000000000000000000000104000000000008000000000000000000000000000000000000000000000000000000000000000000080000000000000000000000004000000000000000000000000000000000000000000000000000000000",
      "type": "0x2",
      "effectiveGasPrice": "0xb2d05e0c"
    }
  ],
  "libraries": [],
  "pending": [],
  "returns": {},
  "timestamp": 1696927425,
  "chain": 5,
  "multi": false,
  "commit": "39f02b6"
}