{
  "transactions": [
    {
      "hash": "0xb4288646e4f118e246e4194b69f292bda7e74ac69b82f0b023013a6496bf3123",
      "transactionType": "CALL",
      "contractName": "GnosisSafeProxy",
      "contractAddress": "0xc21cBd97e46dE91bE7A659f4f6a0F5866C538eFD",
      "function": "execTransaction(address,uint256,bytes,uint8,uint256,uint256,uint256,address,address,bytes):(bool)",
      "arguments": [
        "0xA5dbb55d2a2CAc79EF32d8d02397ae3F928AaD36",
        "0",
        "0x79ba5097",
        "0",
        "0",
        "0",
        "0",
        "0x0000000000000000000000000000000000000000",
        "0x0000000000000000000000000000000000000000",
        "0x000000000000000000000000921d360ad22a6d0289ce57fcb8250e299cb19ea3000000000000000000000000000000000000000000000000000000000000000001"
      ],
      "transaction": {
        "type": "0x02",
        "from": "0x921d360ad22a6d0289ce57fcb8250e299cb19ea3",
        "to": "0xc21cbd97e46de91be7a659f4f6a0f5866c538efd",
        "gas": "0x187df",
        "value": "0x0",
        "data": "0x6a761202000000000000000000000000a5dbb55d2a2cac79ef32d8d02397ae3f928aad36000000000000000000000000000000000000000000000000000000000000000000000000000000000000000000000000000000000000000000000000000001400000000000000000000000000000000000000000000000000000000000000000000000000000000000000000000000000000000000000000000000000000000000000000000000000000000000000000000000000000000000000000000000000000000000000000000000000000000000000000000000000000000000000000000000000000000000000000000000000000000000000000000000000000000000000000000000000000000000000000000000000000000000000000000000000000000000000000000000000000000000000000000000000000000000000180000000000000000000000000000000000000000000000000000000000000000479ba5097000000000000000000000000000000000000000000000000000000000000000000000000000000000000000000000000000000000000000000000041000000000000000000000000921d360ad22a6d0289ce57fcb8250e299cb19ea300000000000000000000000000000000000000000000000000000000000000000100000000000000000000000000000000000000000000000000000000000000",
        "nonce": "0x965",
        "accessList": []
      },
      "additionalContracts": [],
      "isFixedGasLimit": false
    },
    {
      "hash": "0x0e4a3f170e9943c9bb85e8d110c3f0fe146859823bfd3b98b91bda26ad249eef",
      "transactionType": "CALL",
      "contractName": "GnosisSafeProxy",
      "contractAddress": "0x3bA4a434bcc62a7f3B01984981fCAFf6411C4A03",
      "function": "execTransaction(address,uint256,bytes,uint8,uint256,uint256,uint256,address,address,bytes):(bool)",
      "arguments": [
        "0x871CD06C1c581deeEd296959F6BF05e02ed9584E",
        "0",
        "0x79ba5097",
        "0",
        "0",
        "0",
        "0",
        "0x0000000000000000000000000000000000000000",
        "0x0000000000000000000000000000000000000000",
        "0x000000000000000000000000921d360ad22a6d0289ce57fcb8250e299cb19ea3000000000000000000000000000000000000000000000000000000000000000001"
      ],
      "transaction": {
        "type": "0x02",
        "from": "0x921d360ad22a6d0289ce57fcb8250e299cb19ea3",
        "to": "0x3ba4a434bcc62a7f3b01984981fcaff6411c4a03",
        "gas": "0x187c1",
        "value": "0x0",
        "data": "0x6a761202000000000000000000000000871cd06c1c581deeed296959f6bf05e02ed9584e000000000000000000000000000000000000000000000000000000000000000000000000000000000000000000000000000000000000000000000000000001400000000000000000000000000000000000000000000000000000000000000000000000000000000000000000000000000000000000000000000000000000000000000000000000000000000000000000000000000000000000000000000000000000000000000000000000000000000000000000000000000000000000000000000000000000000000000000000000000000000000000000000000000000000000000000000000000000000000000000000000000000000000000000000000000000000000000000000000000000000000000000000000000000000000000180000000000000000000000000000000000000000000000000000000000000000479ba5097000000000000000000000000000000000000000000000000000000000000000000000000000000000000000000000000000000000000000000000041000000000000000000000000921d360ad22a6d0289ce57fcb8250e299cb19ea300000000000000000000000000000000000000000000000000000000000000000100000000000000000000000000000000000000000000000000000000000000",
        "nonce": "0x966",
        "accessList": []
      },
      "additionalContracts": [],
      "isFixedGasLimit": false
    },
    {
      "hash": "0xf393de84c90786466ad914a7beeece1fdfbb25c34f0ddd3af90e8d192e9bb7ee",
      "transactionType": "CALL",
      "contractName": "GnosisSafeProxy",
      "contractAddress": "0x644F20Beb994473bc6E8BDc23D7AC0C2bA1EFFc7",
      "function": "execTransaction(address,uint256,bytes,uint8,uint256,uint256,uint256,address,address,bytes):(bool)",
      "arguments": [
        "0x8D6C35F289913A2f0486ac95Fb0e5bA8C741C301",
        "0",
        "0x79ba5097",
        "0",
        "0",
        "0",
        "0",
        "0x0000000000000000000000000000000000000000",
        "0x0000000000000000000000000000000000000000",
        "0x000000000000000000000000921d360ad22a6d0289ce57fcb8250e299cb19ea3000000000000000000000000000000000000000000000000000000000000000001"
      ],
      "transaction": {
        "type": "0x02",
        "from": "0x921d360ad22a6d0289ce57fcb8250e299cb19ea3",
        "to": "0x644f20beb994473bc6e8bdc23d7ac0c2ba1effc7",
        "gas": "0x1b1b3",
        "value": "0x0",
        "data": "0x6a7612020000000000000000000000008d6c35f289913a2f0486ac95fb0e5ba8c741c301000000000000000000000000000000000000000000000000000000000000000000000000000000000000000000000000000000000000000000000000000001400000000000000000000000000000000000000000000000000000000000000000000000000000000000000000000000000000000000000000000000000000000000000000000000000000000000000000000000000000000000000000000000000000000000000000000000000000000000000000000000000000000000000000000000000000000000000000000000000000000000000000000000000000000000000000000000000000000000000000000000000000000000000000000000000000000000000000000000000000000000000000000000000000000000000180000000000000000000000000000000000000000000000000000000000000000479ba5097000000000000000000000000000000000000000000000000000000000000000000000000000000000000000000000000000000000000000000000041000000000000000000000000921d360ad22a6d0289ce57fcb8250e299cb19ea300000000000000000000000000000000000000000000000000000000000000000100000000000000000000000000000000000000000000000000000000000000",
        "nonce": "0x967",
        "accessList": []
      },
      "additionalContracts": [],
      "isFixedGasLimit": false
    },
    {
      "hash": "0x5bb4e0df2cfd10fa453f4d1aeec5890b161565bbe8ebc66003b18465a9c903c7",
      "transactionType": "CALL",
      "contractName": "GnosisSafeProxy",
      "contractAddress": "0x644F20Beb994473bc6E8BDc23D7AC0C2bA1EFFc7",
      "function": "execTransaction(address,uint256,bytes,uint8,uint256,uint256,uint256,address,address,bytes):(bool)",
      "arguments": [
        "0x8Cc83C079bCBD313491B7BCdA7Fb8f1687f0af68",
        "0",
        "0x79ba5097",
        "0",
        "0",
        "0",
        "0",
        "0x0000000000000000000000000000000000000000",
        "0x0000000000000000000000000000000000000000",
        "0x000000000000000000000000921d360ad22a6d0289ce57fcb8250e299cb19ea3000000000000000000000000000000000000000000000000000000000000000001"
      ],
      "transaction": {
        "type": "0x02",
        "from": "0x921d360ad22a6d0289ce57fcb8250e299cb19ea3",
        "to": "0x644f20beb994473bc6e8bdc23d7ac0c2ba1effc7",
        "gas": "0x169a7",
        "value": "0x0",
        "data": "0x6a7612020000000000000000000000008cc83c079bcbd313491b7bcda7fb8f1687f0af68000000000000000000000000000000000000000000000000000000000000000000000000000000000000000000000000000000000000000000000000000001400000000000000000000000000000000000000000000000000000000000000000000000000000000000000000000000000000000000000000000000000000000000000000000000000000000000000000000000000000000000000000000000000000000000000000000000000000000000000000000000000000000000000000000000000000000000000000000000000000000000000000000000000000000000000000000000000000000000000000000000000000000000000000000000000000000000000000000000000000000000000000000000000000000000000180000000000000000000000000000000000000000000000000000000000000000479ba5097000000000000000000000000000000000000000000000000000000000000000000000000000000000000000000000000000000000000000000000041000000000000000000000000921d360ad22a6d0289ce57fcb8250e299cb19ea300000000000000000000000000000000000000000000000000000000000000000100000000000000000000000000000000000000000000000000000000000000",
        "nonce": "0x968",
        "accessList": []
      },
      "additionalContracts": [],
      "isFixedGasLimit": false
    },
    {
      "hash": "0xc066420559c79a73f2a6ca44d44cdc58578db218929c47329929356ec16ef783",
      "transactionType": "CALL",
      "contractName": "GnosisSafeProxy",
      "contractAddress": "0x644F20Beb994473bc6E8BDc23D7AC0C2bA1EFFc7",
      "function": "execTransaction(address,uint256,bytes,uint8,uint256,uint256,uint256,address,address,bytes):(bool)",
      "arguments": [
        "0x5DFb361aC273610c8B6AC29c213D7EAc6bA8e9fa",
        "0",
        "0x79ba5097",
        "0",
        "0",
        "0",
        "0",
        "0x0000000000000000000000000000000000000000",
        "0x0000000000000000000000000000000000000000",
        "0x000000000000000000000000921d360ad22a6d0289ce57fcb8250e299cb19ea3000000000000000000000000000000000000000000000000000000000000000001"
      ],
      "transaction": {
        "type": "0x02",
        "from": "0x921d360ad22a6d0289ce57fcb8250e299cb19ea3",
        "to": "0x644f20beb994473bc6e8bdc23d7ac0c2ba1effc7",
        "gas": "0x169a7",
        "value": "0x0",
        "data": "0x6a7612020000000000000000000000005dfb361ac273610c8b6ac29c213d7eac6ba8e9fa000000000000000000000000000000000000000000000000000000000000000000000000000000000000000000000000000000000000000000000000000001400000000000000000000000000000000000000000000000000000000000000000000000000000000000000000000000000000000000000000000000000000000000000000000000000000000000000000000000000000000000000000000000000000000000000000000000000000000000000000000000000000000000000000000000000000000000000000000000000000000000000000000000000000000000000000000000000000000000000000000000000000000000000000000000000000000000000000000000000000000000000000000000000000000000000180000000000000000000000000000000000000000000000000000000000000000479ba5097000000000000000000000000000000000000000000000000000000000000000000000000000000000000000000000000000000000000000000000041000000000000000000000000921d360ad22a6d0289ce57fcb8250e299cb19ea300000000000000000000000000000000000000000000000000000000000000000100000000000000000000000000000000000000000000000000000000000000",
        "nonce": "0x969",
        "accessList": []
      },
      "additionalContracts": [],
      "isFixedGasLimit": false
    },
    {
      "hash": "0x5473b8685c84dc12a92f96376e68dce74eb1ddd4be3cbf0459239a5ec443d061",
      "transactionType": "CALL",
      "contractName": "GnosisSafeProxy",
      "contractAddress": "0x644F20Beb994473bc6E8BDc23D7AC0C2bA1EFFc7",
      "function": "execTransaction(address,uint256,bytes,uint8,uint256,uint256,uint256,address,address,bytes):(bool)",
      "arguments": [
        "0x4cAcCFAEf18526292E901c1668F23d125ca6C66C",
        "0",
        "0x79ba5097",
        "0",
        "0",
        "0",
        "0",
        "0x0000000000000000000000000000000000000000",
        "0x0000000000000000000000000000000000000000",
        "0x000000000000000000000000921d360ad22a6d0289ce57fcb8250e299cb19ea3000000000000000000000000000000000000000000000000000000000000000001"
      ],
      "transaction": {
        "type": "0x02",
        "from": "0x921d360ad22a6d0289ce57fcb8250e299cb19ea3",
        "to": "0x644f20beb994473bc6e8bdc23d7ac0c2ba1effc7",
        "gas": "0x169a7",
        "value": "0x0",
        "data": "0x6a7612020000000000000000000000004caccfaef18526292e901c1668f23d125ca6c66c000000000000000000000000000000000000000000000000000000000000000000000000000000000000000000000000000000000000000000000000000001400000000000000000000000000000000000000000000000000000000000000000000000000000000000000000000000000000000000000000000000000000000000000000000000000000000000000000000000000000000000000000000000000000000000000000000000000000000000000000000000000000000000000000000000000000000000000000000000000000000000000000000000000000000000000000000000000000000000000000000000000000000000000000000000000000000000000000000000000000000000000000000000000000000000000180000000000000000000000000000000000000000000000000000000000000000479ba5097000000000000000000000000000000000000000000000000000000000000000000000000000000000000000000000000000000000000000000000041000000000000000000000000921d360ad22a6d0289ce57fcb8250e299cb19ea300000000000000000000000000000000000000000000000000000000000000000100000000000000000000000000000000000000000000000000000000000000",
        "nonce": "0x96a",
        "accessList": []
      },
      "additionalContracts": [],
      "isFixedGasLimit": false
    }
  ],
  "receipts": [],
  "libraries": [],
  "pending": [
    "0xb4288646e4f118e246e4194b69f292bda7e74ac69b82f0b023013a6496bf3123",
    "0x0e4a3f170e9943c9bb85e8d110c3f0fe146859823bfd3b98b91bda26ad249eef",
    "0xf393de84c90786466ad914a7beeece1fdfbb25c34f0ddd3af90e8d192e9bb7ee",
    "0x5bb4e0df2cfd10fa453f4d1aeec5890b161565bbe8ebc66003b18465a9c903c7",
    "0xc066420559c79a73f2a6ca44d44cdc58578db218929c47329929356ec16ef783",
    "0x5473b8685c84dc12a92f96376e68dce74eb1ddd4be3cbf0459239a5ec443d061"
  ],
  "returns": {},
  "timestamp": 1696927415,
  "chain": 5,
  "multi": false,
  "commit": "39f02b6"
}