{
  "transactions": [
    {
      "hash": "0xbfb557d6201a7f79e7f3c9b7ebc547d87cbc651fa454fa91d747be1effab38fe",
      "transactionType": "CALL",
      "contractName": "GnosisSafeProxyFactory",
      "contractAddress": "0xa6B71E26C5e0845f74c812102Ca7114b6a896AB2",
      "function": "createProxyWithNonce(address,bytes,uint256):(address)",
      "arguments": [
        "0xd9Db270c1B5E3Bd161E8c8503c55cEABeE709552",
        "0xb63e800d000000000000000000000000000000000000000000000000000000000000010000000000000000000000000000000000000000000000000000000000000000010000000000000000000000000000000000000000000000000000000000000000000000000000000000000000000000000000000000000000000000000000014000000000000000000000000000000000000000000000000000000000000000000000000000000000000000000000000000000000000000000000000000000000000000000000000000000000000000000000000000000000000000000000000000000000000000000000000000000000000000000000000000000000000000000000000000000000000000000000000000000000000000000000000000000001000000000000000000000000921d360ad22a6d0289ce57fcb8250e299cb19ea30000000000000000000000000000000000000000000000000000000000000000",
        "35122703486677923012742064415624413712882782443188598793563935457675306065619"
      ],
      "transaction": {
        "type": "0x02",
        "from": "0x921d360ad22a6d0289ce57fcb8250e299cb19ea3",
        "to": "0xa6b71e26c5e0845f74c812102ca7114b6a896ab2",
        "gas": "0x4fc29",
        "value": "0x0",
        "data": "0x1688f0b9000000000000000000000000d9db270c1b5e3bd161e8c8503c55ceabee70955200000000000000000000000000000000000000000000000000000000000000604da6bee603fbee929c2e56460788fbfe2058b4ac4cf97fbea6419aad9b93ded30000000000000000000000000000000000000000000000000000000000000164b63e800d000000000000000000000000000000000000000000000000000000000000010000000000000000000000000000000000000000000000000000000000000000010000000000000000000000000000000000000000000000000000000000000000000000000000000000000000000000000000000000000000000000000000014000000000000000000000000000000000000000000000000000000000000000000000000000000000000000000000000000000000000000000000000000000000000000000000000000000000000000000000000000000000000000000000000000000000000000000000000000000000000000000000000000000000000000000000000000000000000000000000000000000000000000000000000000000001000000000000000000000000921d360ad22a6d0289ce57fcb8250e299cb19ea3000000000000000000000000000000000000000000000000000000000000000000000000000000000000000000000000000000000000000000000000",
        "nonce": "0x91e",
        "accessList": []
      },
      "additionalContracts": [
        {
          "transactionType": "CREATE2",
          "address": "0x644F20Beb994473bc6E8BDc23D7AC0C2bA1EFFc7",
          "initCode": "0x608060405234801561001057600080fd5b506040516101e63803806101e68339818101604052602081101561003357600080fd5b8101908080519060200190929190505050600073ffffffffffffffffffffffffffffffffffffffff168173ffffffffffffffffffffffffffffffffffffffff1614156100ca576040517f08c379a00000000000000000000000000000000000000000000000000000000081526004018080602001828103825260228152602001806101c46022913960400191505060405180910390fd5b806000806101000a81548173ffffffffffffffffffffffffffffffffffffffff021916908373ffffffffffffffffffffffffffffffffffffffff1602179055505060ab806101196000396000f3fe608060405273ffffffffffffffffffffffffffffffffffffffff600054167fa619486e0000000000000000000000000000000000000000000000000000000060003514156050578060005260206000f35b3660008037600080366000845af43d6000803e60008114156070573d6000fd5b3d6000f3fea2646970667358221220d1429297349653a4918076d650332de1a1068c5f3e07c5c82360c277770b955264736f6c63430007060033496e76616c69642073696e676c65746f6e20616464726573732070726f7669646564000000000000000000000000d9db270c1b5e3bd161e8c8503c55ceabee709552"
        }
      ],
      "isFixedGasLimit": false
    },
    {
      "hash": "0xc277f5968bd211022945f9f9f9175758a14cce6f8498e18ee4b43ae2ef4307d5",
      "transactionType": "CALL",
      "contractName": "GnosisSafeProxyFactory",
      "contractAddress": "0xa6B71E26C5e0845f74c812102Ca7114b6a896AB2",
      "function": "createProxyWithNonce(address,bytes,uint256):(address)",
      "arguments": [
        "0xd9Db270c1B5E3Bd161E8c8503c55cEABeE709552",
        "0xb63e800d000000000000000000000000000000000000000000000000000000000000010000000000000000000000000000000000000000000000000000000000000000010000000000000000000000000000000000000000000000000000000000000000000000000000000000000000000000000000000000000000000000000000014000000000000000000000000000000000000000000000000000000000000000000000000000000000000000000000000000000000000000000000000000000000000000000000000000000000000000000000000000000000000000000000000000000000000000000000000000000000000000000000000000000000000000000000000000000000000000000000000000000000000000000000000000000001000000000000000000000000921d360ad22a6d0289ce57fcb8250e299cb19ea30000000000000000000000000000000000000000000000000000000000000000",
        "112872950800854172943001864591156093818607774369517098444409704731219264494702"
      ],
      "transaction": {
        "type": "0x02",
        "from": "0x921d360ad22a6d0289ce57fcb8250e299cb19ea3",
        "to": "0xa6b71e26c5e0845f74c812102ca7114b6a896ab2",
        "gas": "0x4fc29",
        "value": "0x0",
        "data": "0x1688f0b9000000000000000000000000d9db270c1b5e3bd161e8c8503c55ceabee7095520000000000000000000000000000000000000000000000000000000000000060f98bd3819152d2d7769c86b654cca6b978678878ef542f54eba37a4e58a75c6e0000000000000000000000000000000000000000000000000000000000000164b63e800d000000000000000000000000000000000000000000000000000000000000010000000000000000000000000000000000000000000000000000000000000000010000000000000000000000000000000000000000000000000000000000000000000000000000000000000000000000000000000000000000000000000000014000000000000000000000000000000000000000000000000000000000000000000000000000000000000000000000000000000000000000000000000000000000000000000000000000000000000000000000000000000000000000000000000000000000000000000000000000000000000000000000000000000000000000000000000000000000000000000000000000000000000000000000000000000001000000000000000000000000921d360ad22a6d0289ce57fcb8250e299cb19ea3000000000000000000000000000000000000000000000000000000000000000000000000000000000000000000000000000000000000000000000000",
        "nonce": "0x91f",
        "accessList": []
      },
      "additionalContracts": [
        {
          "transactionType": "CREATE2",
          "address": "0x464F1AA70c985bef8b60C32fac564110f7542E8c",
          "initCode": "0x608060405234801561001057600080fd5b506040516101e63803806101e68339818101604052602081101561003357600080fd5b8101908080519060200190929190505050600073ffffffffffffffffffffffffffffffffffffffff168173ffffffffffffffffffffffffffffffffffffffff1614156100ca576040517f08c379a00000000000000000000000000000000000000000000000000000000081526004018080602001828103825260228152602001806101c46022913960400191505060405180910390fd5b806000806101000a81548173ffffffffffffffffffffffffffffffffffffffff021916908373ffffffffffffffffffffffffffffffffffffffff1602179055505060ab806101196000396000f3fe608060405273ffffffffffffffffffffffffffffffffffffffff600054167fa619486e0000000000000000000000000000000000000000000000000000000060003514156050578060005260206000f35b3660008037600080366000845af43d6000803e60008114156070573d6000fd5b3d6000f3fea2646970667358221220d1429297349653a4918076d650332de1a1068c5f3e07c5c82360c277770b955264736f6c63430007060033496e76616c69642073696e676c65746f6e20616464726573732070726f7669646564000000000000000000000000d9db270c1b5e3bd161e8c8503c55ceabee709552"
        }
      ],
      "isFixedGasLimit": false
    },
    {
      "hash": "0x163f8d5024287e878cf36db6c9b8fd8c08c1ff8107ef5bb9a54684888aadc709",
      "transactionType": "CALL",
      "contractName": "GnosisSafeProxyFactory",
      "contractAddress": "0xa6B71E26C5e0845f74c812102Ca7114b6a896AB2",
      "function": "createProxyWithNonce(address,bytes,uint256):(address)",
      "arguments": [
        "0xd9Db270c1B5E3Bd161E8c8503c55cEABeE709552",
        "0xb63e800d000000000000000000000000000000000000000000000000000000000000010000000000000000000000000000000000000000000000000000000000000000010000000000000000000000000000000000000000000000000000000000000000000000000000000000000000000000000000000000000000000000000000014000000000000000000000000000000000000000000000000000000000000000000000000000000000000000000000000000000000000000000000000000000000000000000000000000000000000000000000000000000000000000000000000000000000000000000000000000000000000000000000000000000000000000000000000000000000000000000000000000000000000000000000000000000001000000000000000000000000921d360ad22a6d0289ce57fcb8250e299cb19ea30000000000000000000000000000000000000000000000000000000000000000",
        "88848431657452534265274796072394458210962480388077506048865611247530301183452"
      ],
      "transaction": {
        "type": "0x02",
        "from": "0x921d360ad22a6d0289ce57fcb8250e299cb19ea3",
        "to": "0xa6b71e26c5e0845f74c812102ca7114b6a896ab2",
        "gas": "0x4fc29",
        "value": "0x0",
        "data": "0x1688f0b9000000000000000000000000d9db270c1b5e3bd161e8c8503c55ceabee7095520000000000000000000000000000000000000000000000000000000000000060c46e6e23d3d9a02ccb1ca133e7bf1261a1689b3406f40ee4f36141714253d5dc0000000000000000000000000000000000000000000000000000000000000164b63e800d000000000000000000000000000000000000000000000000000000000000010000000000000000000000000000000000000000000000000000000000000000010000000000000000000000000000000000000000000000000000000000000000000000000000000000000000000000000000000000000000000000000000014000000000000000000000000000000000000000000000000000000000000000000000000000000000000000000000000000000000000000000000000000000000000000000000000000000000000000000000000000000000000000000000000000000000000000000000000000000000000000000000000000000000000000000000000000000000000000000000000000000000000000000000000000000001000000000000000000000000921d360ad22a6d0289ce57fcb8250e299cb19ea3000000000000000000000000000000000000000000000000000000000000000000000000000000000000000000000000000000000000000000000000",
        "nonce": "0x920",
        "accessList": []
      },
      "additionalContracts": [
        {
          "transactionType": "CREATE2",
          "address": "0xD5CB13348F3e33B964D5eAe1E18C276748e79A97",
          "initCode": "0x608060405234801561001057600080fd5b506040516101e63803806101e68339818101604052602081101561003357600080fd5b8101908080519060200190929190505050600073ffffffffffffffffffffffffffffffffffffffff168173ffffffffffffffffffffffffffffffffffffffff1614156100ca576040517f08c379a00000000000000000000000000000000000000000000000000000000081526004018080602001828103825260228152602001806101c46022913960400191505060405180910390fd5b806000806101000a81548173ffffffffffffffffffffffffffffffffffffffff021916908373ffffffffffffffffffffffffffffffffffffffff1602179055505060ab806101196000396000f3fe608060405273ffffffffffffffffffffffffffffffffffffffff600054167fa619486e0000000000000000000000000000000000000000000000000000000060003514156050578060005260206000f35b3660008037600080366000845af43d6000803e60008114156070573d6000fd5b3d6000f3fea2646970667358221220d1429297349653a4918076d650332de1a1068c5f3e07c5c82360c277770b955264736f6c63430007060033496e76616c69642073696e676c65746f6e20616464726573732070726f7669646564000000000000000000000000d9db270c1b5e3bd161e8c8503c55ceabee709552"
        }
      ],
      "isFixedGasLimit": false
    },
    {
      "hash": "0x7529844bf5a4f0619aa9ef8fdc0242f134c26aa3c0eadb2297c771d84c2a8c46",
      "transactionType": "CALL",
      "contractName": "GnosisSafeProxyFactory",
      "contractAddress": "0xa6B71E26C5e0845f74c812102Ca7114b6a896AB2",
      "function": "createProxyWithNonce(address,bytes,uint256):(address)",
      "arguments": [
        "0xd9Db270c1B5E3Bd161E8c8503c55cEABeE709552",
        "0xb63e800d000000000000000000000000000000000000000000000000000000000000010000000000000000000000000000000000000000000000000000000000000000010000000000000000000000000000000000000000000000000000000000000000000000000000000000000000000000000000000000000000000000000000014000000000000000000000000000000000000000000000000000000000000000000000000000000000000000000000000000000000000000000000000000000000000000000000000000000000000000000000000000000000000000000000000000000000000000000000000000000000000000000000000000000000000000000000000000000000000000000000000000000000000000000000000000000001000000000000000000000000921d360ad22a6d0289ce57fcb8250e299cb19ea30000000000000000000000000000000000000000000000000000000000000000",
        "23585942761019009705120638683460706459154093928722191743340262436903480571259"
      ],
      "transaction": {
        "type": "0x02",
        "from": "0x921d360ad22a6d0289ce57fcb8250e299cb19ea3",
        "to": "0xa6b71e26c5e0845f74c812102ca7114b6a896ab2",
        "gas": "0x4fc29",
        "value": "0x0",
        "data": "0x1688f0b9000000000000000000000000d9db270c1b5e3bd161e8c8503c55ceabee709552000000000000000000000000000000000000000000000000000000000000006034252ba796de71a64d843da767e72943981e865dc6464e7357c880d80a19b57b0000000000000000000000000000000000000000000000000000000000000164b63e800d000000000000000000000000000000000000000000000000000000000000010000000000000000000000000000000000000000000000000000000000000000010000000000000000000000000000000000000000000000000000000000000000000000000000000000000000000000000000000000000000000000000000014000000000000000000000000000000000000000000000000000000000000000000000000000000000000000000000000000000000000000000000000000000000000000000000000000000000000000000000000000000000000000000000000000000000000000000000000000000000000000000000000000000000000000000000000000000000000000000000000000000000000000000000000000000001000000000000000000000000921d360ad22a6d0289ce57fcb8250e299cb19ea3000000000000000000000000000000000000000000000000000000000000000000000000000000000000000000000000000000000000000000000000",
        "nonce": "0x921",
        "accessList": []
      },
      "additionalContracts": [
        {
          "transactionType": "CREATE2",
          "address": "0xA809b77718fe9e27E8E4cfE5B801335C4E73437B",
          "initCode": "0x608060405234801561001057600080fd5b506040516101e63803806101e68339818101604052602081101561003357600080fd5b8101908080519060200190929190505050600073ffffffffffffffffffffffffffffffffffffffff168173ffffffffffffffffffffffffffffffffffffffff1614156100ca576040517f08c379a00000000000000000000000000000000000000000000000000000000081526004018080602001828103825260228152602001806101c46022913960400191505060405180910390fd5b806000806101000a81548173ffffffffffffffffffffffffffffffffffffffff021916908373ffffffffffffffffffffffffffffffffffffffff1602179055505060ab806101196000396000f3fe608060405273ffffffffffffffffffffffffffffffffffffffff600054167fa619486e0000000000000000000000000000000000000000000000000000000060003514156050578060005260206000f35b3660008037600080366000845af43d6000803e60008114156070573d6000fd5b3d6000f3fea2646970667358221220d1429297349653a4918076d650332de1a1068c5f3e07c5c82360c277770b955264736f6c63430007060033496e76616c69642073696e676c65746f6e20616464726573732070726f7669646564000000000000000000000000d9db270c1b5e3bd161e8c8503c55ceabee709552"
        }
      ],
      "isFixedGasLimit": false
    },
    {
      "hash": "0x1f85d9f9bb2063ae4cd01bb5abfcdb966e55cec009b165bcbda2b4154bff1afa",
      "transactionType": "CALL",
      "contractName": "GnosisSafeProxyFactory",
      "contractAddress": "0xa6B71E26C5e0845f74c812102Ca7114b6a896AB2",
      "function": "createProxyWithNonce(address,bytes,uint256):(address)",
      "arguments": [
        "0xd9Db270c1B5E3Bd161E8c8503c55cEABeE709552",
        "0xb63e800d000000000000000000000000000000000000000000000000000000000000010000000000000000000000000000000000000000000000000000000000000000010000000000000000000000000000000000000000000000000000000000000000000000000000000000000000000000000000000000000000000000000000014000000000000000000000000000000000000000000000000000000000000000000000000000000000000000000000000000000000000000000000000000000000000000000000000000000000000000000000000000000000000000000000000000000000000000000000000000000000000000000000000000000000000000000000000000000000000000000000000000000000000000000000000000000001000000000000000000000000921d360ad22a6d0289ce57fcb8250e299cb19ea30000000000000000000000000000000000000000000000000000000000000000",
        "60402001294574753105873599217450132232846063700948440922245277274823603958098"
      ],
      "transaction": {
        "type": "0x02",
        "from": "0x921d360ad22a6d0289ce57fcb8250e299cb19ea3",
        "to": "0xa6b71e26c5e0845f74c812102ca7114b6a896ab2",
        "gas": "0x4fc29",
        "value": "0x0",
        "data": "0x1688f0b9000000000000000000000000d9db270c1b5e3bd161e8c8503c55ceabee7095520000000000000000000000000000000000000000000000000000000000000060858a523b281b0ad4a2be513cdfc7def9121f946a93662ee08c44b1637d06b1520000000000000000000000000000000000000000000000000000000000000164b63e800d000000000000000000000000000000000000000000000000000000000000010000000000000000000000000000000000000000000000000000000000000000010000000000000000000000000000000000000000000000000000000000000000000000000000000000000000000000000000000000000000000000000000014000000000000000000000000000000000000000000000000000000000000000000000000000000000000000000000000000000000000000000000000000000000000000000000000000000000000000000000000000000000000000000000000000000000000000000000000000000000000000000000000000000000000000000000000000000000000000000000000000000000000000000000000000000001000000000000000000000000921d360ad22a6d0289ce57fcb8250e299cb19ea3000000000000000000000000000000000000000000000000000000000000000000000000000000000000000000000000000000000000000000000000",
        "nonce": "0x922",
        "accessList": []
      },
      "additionalContracts": [
        {
          "transactionType": "CREATE2",
          "address": "0x1A90004F54176492B0c71e60f59a0e92850CA50a",
          "initCode": "0x608060405234801561001057600080fd5b506040516101e63803806101e68339818101604052602081101561003357600080fd5b8101908080519060200190929190505050600073ffffffffffffffffffffffffffffffffffffffff168173ffffffffffffffffffffffffffffffffffffffff1614156100ca576040517f08c379a00000000000000000000000000000000000000000000000000000000081526004018080602001828103825260228152602001806101c46022913960400191505060405180910390fd5b806000806101000a81548173ffffffffffffffffffffffffffffffffffffffff021916908373ffffffffffffffffffffffffffffffffffffffff1602179055505060ab806101196000396000f3fe608060405273ffffffffffffffffffffffffffffffffffffffff600054167fa619486e0000000000000000000000000000000000000000000000000000000060003514156050578060005260206000f35b3660008037600080366000845af43d6000803e60008114156070573d6000fd5b3d6000f3fea2646970667358221220d1429297349653a4918076d650332de1a1068c5f3e07c5c82360c277770b955264736f6c63430007060033496e76616c69642073696e676c65746f6e20616464726573732070726f7669646564000000000000000000000000d9db270c1b5e3bd161e8c8503c55ceabee709552"
        }
      ],
      "isFixedGasLimit": false
    },
    {
      "hash": "0x8d08ae9f68b751dcb0c8b9af73ccc8a1e3234e42e902e22fe687869bb656ba7a",
      "transactionType": "CALL",
      "contractName": "GnosisSafeProxyFactory",
      "contractAddress": "0xa6B71E26C5e0845f74c812102Ca7114b6a896AB2",
      "function": "createProxyWithNonce(address,bytes,uint256):(address)",
      "arguments": [
        "0xd9Db270c1B5E3Bd161E8c8503c55cEABeE709552",
        "0xb63e800d000000000000000000000000000000000000000000000000000000000000010000000000000000000000000000000000000000000000000000000000000000010000000000000000000000000000000000000000000000000000000000000000000000000000000000000000000000000000000000000000000000000000014000000000000000000000000000000000000000000000000000000000000000000000000000000000000000000000000000000000000000000000000000000000000000000000000000000000000000000000000000000000000000000000000000000000000000000000000000000000000000000000000000000000000000000000000000000000000000000000000000000000000000000000000000000001000000000000000000000000921d360ad22a6d0289ce57fcb8250e299cb19ea30000000000000000000000000000000000000000000000000000000000000000",
        "54959636886095828740729420832375026937715889664285160748464007687469285534574"
      ],
      "transaction": {
        "type": "0x02",
        "from": "0x921d360ad22a6d0289ce57fcb8250e299cb19ea3",
        "to": "0xa6b71e26c5e0845f74c812102ca7114b6a896ab2",
        "gas": "0x4fc29",
        "value": "0x0",
        "data": "0x1688f0b9000000000000000000000000d9db270c1b5e3bd161e8c8503c55ceabee709552000000000000000000000000000000000000000000000000000000000000006079820d57c64834aacb4b6a364a14d13a9e8ee0faab704ab879e3ad4f34bc6b6e0000000000000000000000000000000000000000000000000000000000000164b63e800d000000000000000000000000000000000000000000000000000000000000010000000000000000000000000000000000000000000000000000000000000000010000000000000000000000000000000000000000000000000000000000000000000000000000000000000000000000000000000000000000000000000000014000000000000000000000000000000000000000000000000000000000000000000000000000000000000000000000000000000000000000000000000000000000000000000000000000000000000000000000000000000000000000000000000000000000000000000000000000000000000000000000000000000000000000000000000000000000000000000000000000000000000000000000000000000001000000000000000000000000921d360ad22a6d0289ce57fcb8250e299cb19ea3000000000000000000000000000000000000000000000000000000000000000000000000000000000000000000000000000000000000000000000000",
        "nonce": "0x923",
        "accessList": []
      },
      "additionalContracts": [
        {
          "transactionType": "CREATE2",
          "address": "0xc21cBd97e46dE91bE7A659f4f6a0F5866C538eFD",
          "initCode": "0x608060405234801561001057600080fd5b506040516101e63803806101e68339818101604052602081101561003357600080fd5b8101908080519060200190929190505050600073ffffffffffffffffffffffffffffffffffffffff168173ffffffffffffffffffffffffffffffffffffffff1614156100ca576040517f08c379a00000000000000000000000000000000000000000000000000000000081526004018080602001828103825260228152602001806101c46022913960400191505060405180910390fd5b806000806101000a81548173ffffffffffffffffffffffffffffffffffffffff021916908373ffffffffffffffffffffffffffffffffffffffff1602179055505060ab806101196000396000f3fe608060405273ffffffffffffffffffffffffffffffffffffffff600054167fa619486e0000000000000000000000000000000000000000000000000000000060003514156050578060005260206000f35b3660008037600080366000845af43d6000803e60008114156070573d6000fd5b3d6000f3fea2646970667358221220d1429297349653a4918076d650332de1a1068c5f3e07c5c82360c277770b955264736f6c63430007060033496e76616c69642073696e676c65746f6e20616464726573732070726f7669646564000000000000000000000000d9db270c1b5e3bd161e8c8503c55ceabee709552"
        }
      ],
      "isFixedGasLimit": false
    }
  ],
  "receipts": [],
  "libraries": [],
  "pending": [
    "0xbfb557d6201a7f79e7f3c9b7ebc547d87cbc651fa454fa91d747be1effab38fe",
    "0xc277f5968bd211022945f9f9f9175758a14cce6f8498e18ee4b43ae2ef4307d5",
    "0x163f8d5024287e878cf36db6c9b8fd8c08c1ff8107ef5bb9a54684888aadc709",
    "0x7529844bf5a4f0619aa9ef8fdc0242f134c26aa3c0eadb2297c771d84c2a8c46",
    "0x1f85d9f9bb2063ae4cd01bb5abfcdb966e55cec009b165bcbda2b4154bff1afa",
    "0x8d08ae9f68b751dcb0c8b9af73ccc8a1e3234e42e902e22fe687869bb656ba7a"
  ],
  "returns": {},
  "timestamp": 1696924445,
  "chain": 5,
  "multi": false,
  "commit": "aacbabd"
}