{
  "transactions": [
    {
      "hash": "0x865cb83413762fb48b9b4779b5b1c0d64b2822f98944e98ee1880b79af306d25",
      "transactionType": "CALL",
      "contractName": "GnosisSafeProxyFactory",
      "contractAddress": "0xa6B71E26C5e0845f74c812102Ca7114b6a896AB2",
      "function": "createProxyWithNonce(address,bytes,uint256):(address)",
      "arguments": [
        "0xd9Db270c1B5E3Bd161E8c8503c55cEABeE709552",
        "0xb63e800d000000000000000000000000000000000000000000000000000000000000010000000000000000000000000000000000000000000000000000000000000000010000000000000000000000000000000000000000000000000000000000000000000000000000000000000000000000000000000000000000000000000000014000000000000000000000000000000000000000000000000000000000000000000000000000000000000000000000000000000000000000000000000000000000000000000000000000000000000000000000000000000000000000000000000000000000000000000000000000000000000000000000000000000000000000000000000000000000000000000000000000000000000000000000000000000001000000000000000000000000921d360ad22a6d0289ce57fcb8250e299cb19ea30000000000000000000000000000000000000000000000000000000000000000",
        "46655864294738913278925947858876292059802815007990552808606613292966066886662"
      ],
      "transaction": {
        "type": "0x02",
        "from": "0x921d360ad22a6d0289ce57fcb8250e299cb19ea3",
        "to": "0xa6b71e26c5e0845f74c812102ca7114b6a896ab2",
        "gas": "0x4fc29",
        "value": "0x0",
        "data": "0x1688f0b9000000000000000000000000d9db270c1b5e3bd161e8c8503c55ceabee70955200000000000000000000000000000000000000000000000000000000000000606726488c13ab47de6ae7fafdd149e41ac37647a4accacdd25695c24b096198060000000000000000000000000000000000000000000000000000000000000164b63e800d000000000000000000000000000000000000000000000000000000000000010000000000000000000000000000000000000000000000000000000000000000010000000000000000000000000000000000000000000000000000000000000000000000000000000000000000000000000000000000000000000000000000014000000000000000000000000000000000000000000000000000000000000000000000000000000000000000000000000000000000000000000000000000000000000000000000000000000000000000000000000000000000000000000000000000000000000000000000000000000000000000000000000000000000000000000000000000000000000000000000000000000000000000000000000000000001000000000000000000000000921d360ad22a6d0289ce57fcb8250e299cb19ea3000000000000000000000000000000000000000000000000000000000000000000000000000000000000000000000000000000000000000000000000",
        "nonce": "0x948",
        "accessList": []
      },
      "additionalContracts": [
        {
          "transactionType": "CREATE2",
          "address": "0x3bA4a434bcc62a7f3B01984981fCAFf6411C4A03",
          "initCode": "0x608060405234801561001057600080fd5b506040516101e63803806101e68339818101604052602081101561003357600080fd5b8101908080519060200190929190505050600073ffffffffffffffffffffffffffffffffffffffff168173ffffffffffffffffffffffffffffffffffffffff1614156100ca576040517f08c379a00000000000000000000000000000000000000000000000000000000081526004018080602001828103825260228152602001806101c46022913960400191505060405180910390fd5b806000806101000a81548173ffffffffffffffffffffffffffffffffffffffff021916908373ffffffffffffffffffffffffffffffffffffffff1602179055505060ab806101196000396000f3fe608060405273ffffffffffffffffffffffffffffffffffffffff600054167fa619486e0000000000000000000000000000000000000000000000000000000060003514156050578060005260206000f35b3660008037600080366000845af43d6000803e60008114156070573d6000fd5b3d6000f3fea2646970667358221220d1429297349653a4918076d650332de1a1068c5f3e07c5c82360c277770b955264736f6c63430007060033496e76616c69642073696e676c65746f6e20616464726573732070726f7669646564000000000000000000000000d9db270c1b5e3bd161e8c8503c55ceabee709552"
        }
      ],
      "isFixedGasLimit": false
    }
  ],
  "receipts": [
    {
      "transactionHash": "0x865cb83413762fb48b9b4779b5b1c0d64b2822f98944e98ee1880b79af306d25",
      "transactionIndex": "0x2",
      "blockHash": "0x172b564e821358a36ecb949d2df346df9d603b9d276a51803e3f311c54fc5b10",
      "blockNumber": "0x962a85",
      "from": "0x921d360aD22A6D0289ce57fcb8250e299cB19EA3",
      "to": "0xa6B71E26C5e0845f74c812102Ca7114b6a896AB2",
      "cumulativeGasUsed": "0xbf584",
      "gasUsed": "0x39c0e",
      "contractAddress": null,
      "logs": [
        {
          "address": "0x3bA4a434bcc62a7f3B01984981fCAFf6411C4A03",
          "topics": [
            "0x141df868a6331af528e38c83b7aa03edc19be66e37ae67f9285bf4f8e3c6a1a8",
            "0x000000000000000000000000a6b71e26c5e0845f74c812102ca7114b6a896ab2"
          ],
          "data": "0x00000000000000000000000000000000000000000000000000000000000000800000000000000000000000000000000000000000000000000000000000000001000000000000000000000000000000000000000000000000000000000000000000000000000000000000000000000000000000000000000000000000000000000000000000000000000000000000000000000000000000000000000000000001000000000000000000000000921d360ad22a6d0289ce57fcb8250e299cb19ea3",
          "blockHash": "0x172b564e821358a36ecb949d2df346df9d603b9d276a51803e3f311c54fc5b10",
          "blockNumber": "0x962a85",
          "transactionHash": "0x865cb83413762fb48b9b4779b5b1c0d64b2822f98944e98ee1880b79af306d25",
          "transactionIndex": "0x2",
          "logIndex": "0x4",
          "removed": false
        },
        {
          "address": "0xa6B71E26C5e0845f74c812102Ca7114b6a896AB2",
          "topics": [
            "0x4f51faf6c4561ff95f067657e43439f0f856d97c04d9ec9070a6199ad418e235"
          ],
          "data": "0x0000000000000000000000003ba4a434bcc62a7f3b01984981fcaff6411c4a03000000000000000000000000d9db270c1b5e3bd161e8c8503c55ceabee709552",
          "blockHash": "0x172b564e821358a36ecb949d2df346df9d603b9d276a51803e3f311c54fc5b10",
          "blockNumber": "0x962a85",
          "transactionHash": "0x865cb83413762fb48b9b4779b5b1c0d64b2822f98944e98ee1880b79af306d25",
          "transactionIndex": "0x2",
          "logIndex": "0x5",
          "removed": false
        }
      ],
      "status": "0x1",
      "logsBloom": "0x00000000000000000000000000000000000000400000000000000000000000000000800000000000000000000000000000000000000000000000000000000000000010000000000000000000000000000000000000000008000000200000000000000000000000000500000000000000000000000000000000000000000000000000000000000000000000000000000000000000000000000000000000080000000000000001000000000000000000000000000000000000000000200000000000000000000000000000000000001000000000000000000000000000000000000000080000000000000000400000000020000000000000100000000000000000",
      "type": "0x2",
      "effectiveGasPrice": "0xb2d05e0d"
    }
  ],
  "libraries": [],
  "pending": [],
  "returns": {},
  "timestamp": 1696926443,
  "chain": 5,
  "multi": false,
  "commit": "9fc3a7a"
}