{
  "transactions": [
    {
      "hash": "0xb0be6f932c41d357e0cae8336a1842aeadcda5086cf7034b250c1e4880b87da8",
      "transactionType": "CREATE2",
      "contractName": "SynthetixSafeModuleOld",
      "contractAddress": "0xff902740Cb47C70E69aEE9f5402D13f3b5f1EDB0",
      "function": null,
      "arguments": null,
      "transaction": {
        "type": "0x02",
        "from": "0x921d360ad22a6d0289ce57fcb8250e299cb19ea3",
        "to": "0x4e59b44847b379578588920ca78fbf26c0b4956c",
        "gas": "0x1aa1e7",
        "value": "0x0",
        "data": "0x4da6bee603fbee929c2e56460788fbfe2058b4ac4cf97fbea6419aad9b93ded3608060405234801561001057600080fd5b5060405161147938038061147983398101604081905261002f91610078565b600080546001600160a01b039384166001600160a01b031991821617909155600180549290931691161790556100b2565b6001600160a01b038116811461007557600080fd5b50565b6000806040838503121561008b57600080fd5b825161009681610060565b60208401519092506100a781610060565b809150509250929050565b6113b8806100c16000396000f3fe608060405234801561001057600080fd5b50600436106100935760003560e01c8063743cd7a611610066578063743cd7a61461011057806375f0bb52146101235780639327136814610136578063c9575fc714610148578063e5ec04d21461015b57600080fd5b806301ffc9a7146100985780632e643a12146100c057806333b54fdb146100d55780633408e47014610100575b600080fd5b6100ab6100a6366004610dad565b610164565b60405190151581526020015b60405180910390f35b6100d36100ce366004610df6565b61019b565b005b6000546100e8906001600160a01b031681565b6040516001600160a01b0390911681526020016100b7565b465b6040519081526020016100b7565b6100d361011e366004610e13565b6105ca565b6100d3610131366004610f10565b610702565b6100d3610144366004611003565b5050565b6001546100e8906001600160a01b031681565b61010260025481565b60006001600160e01b0319821663736bd41d60e11b148061019557506001600160e01b031982166301ffc9a760e01b145b92915050565b6000806000806101a9610be5565b9350935093509350600081846101bf9190611049565b90506000866001600160a01b031663a0e67e2b6040518163ffffffff1660e01b8152600401600060405180830381865afa158015610201573d6000803e3d6000fd5b505050506040513d6000823e601f3d908101601f19168201604052610229919081019061105c565b905060015b81518110156102e9576102d78863f8dc5dd960e01b846000815181106102565761025661110e565b60200260200101518585815181106102705761027061110e565b60209081029190910101516040516001600160a01b03928316602482015291166044820152600160648201526084015b60408051601f198184030181529190526020810180516001600160e01b03166001600160e01b031990931692909217909152610d0c565b806102e181611124565b91505061022e565b506000805b85518110156103da576000835111801561034c5750826000815181106103165761031661110e565b60200260200101516001600160a01b03168682815181106103395761033961110e565b60200260200101516001600160a01b0316145b156103675760408051600081526020810190915292506103c8565b6103c889630d582f1360e01b8884815181106103855761038561110e565b60200260200101518561039790611124565b95508588106103a657856103a8565b875b6040516001600160a01b03909216602483015260448201526064016102a0565b806103d281611124565b9150506102ee565b5060005b8751811015610520576000835111801561043c5750826000815181106104065761040661110e565b60200260200101516001600160a01b03168882815181106104295761042961110e565b60200260200101516001600160a01b0316145b1561045757604080516000815260208101909152925061050e565b886001600160a01b0316632f54bf6e8983815181106104785761047861110e565b60200260200101516040518263ffffffff1660e01b81526004016104ab91906001600160a01b0391909116815260200190565b602060405180830381865afa1580156104c8573d6000803e3d6000fd5b505050506040513d601f19601f820116820180604052508101906104ec919061113d565b61050e5761050e89630d582f1360e01b8a84815181106103855761038561110e565b8061051881611124565b9150506103de565b508151156105c0576105c08863f8dc5dd960e01b600088511161055d57896000815181106105505761055061110e565b6020026020010151610579565b876000815181106105705761057061110e565b60200260200101515b8560008151811061058c5761058c61110e565b60209081029190910101516040516001600160a01b03928316602482015291166044820152606481018790526084016102a0565b5050505050505050565b6001546001600160a01b031633146105fc5760405163472511eb60e11b81523360048201526024015b60405180910390fd5b600160009054906101000a90046001600160a01b03166001600160a01b031663e75235b86040518163ffffffff1660e01b8152600401602060405180830381865afa15801561064f573d6000803e3d6000fd5b505050506040513d601f19601f82011682018060405250810190610673919061115a565b8111156106c7576040516302e9051760e41b8152681d1a1c995cda1bdb1960ba1b60048201527f67726561746572207468616e207064616f2073616665207468726573686f6c6460248201526044016105f3565b60028190556040518181527f2ed056e2cce8a0093790bbfd3824ff2911c6e9f66f15f22e799377c78616ec269060200160405180910390a150565b6060336001600160a01b031663e86637db8d8d8d8d8d8d8d8d8d6001336001600160a01b031663affed0e06040518163ffffffff1660e01b8152600401602060405180830381865afa15801561075c573d6000803e3d6000fd5b505050506040513d601f19601f82011682018060405250810190610780919061115a565b61078a9190611173565b6040518b63ffffffff1660e01b81526004016107af9a999897969594939291906111f8565b600060405180830381865afa1580156107cc573d6000803e3d6000fd5b505050506040513d6000823e601f3d908101601f191682016040526107f4919081019061126e565b9050600080600080610804610be5565b929650909450925090506000808080808080805b60418f5161082691906112e5565b811015610b3a576108508f8260419081029190910160208101516040820151919092015160ff1692565b9197509550935060ff861660000361087b5760405163523be13960e01b815260040160405180910390fd5b8560ff1660010361088e578d91506109cb565b601e8660ff1611156109635760018d805190602001206040516020016108e091907f19457468657265756d205369676e6564204d6573736167653a0a3332000000008152601c810191909152603c0190565b604051602081830303815290604052805190602001206004886109039190611307565b6040805160008152602081018083529390935260ff90911690820152606081018790526080810186905260a0016020604051602081039080840390855afa158015610952573d6000803e3d6000fd5b5050506020604051035191506109cb565b8c516020808f019190912060408051600081529283018082529190915260ff881690820152606081018690526080810185905260019060a0016020604051602081039080840390855afa1580156109be573d6000803e3d6000fd5b5050506020604051035191505b826001600160a01b0316826001600160a01b03161115806109f357506001600160a01b038216155b15610a3257604051625616a160e91b81526001600160a01b038316600482015260ff8716602482015260448101869052606481018590526084016105f3565b60028c51610a4091906112e5565b610a4b906001611049565b881015610ab65760005b8c51811015610ab457826001600160a01b03168d8281518110610a7a57610a7a61110e565b60200260200101516001600160a01b031603610aa25788610a9a81611124565b995050610ab4565b80610aac81611124565b915050610a55565b505b600254871015610b245760005b8a51811015610b2257826001600160a01b03168b8281518110610ae857610ae861110e565b60200260200101516001600160a01b031603610b105787610b0881611124565b985050610b22565b80610b1a81611124565b915050610ac3565b505b8192508080610b3290611124565b915050610818565b5089871015610b905760028b51610b5191906112e5565b610b5c906001611049565b604051635dd4a79360e01b81526618dbdd5b98da5b60ca1b60048201526024810191909152604481018890526064016105f3565b87861015610bcc57600254604051635dd4a79360e01b8152637064616f60e01b60048201526024810191909152604481018790526064016105f3565b5050505050505050505050505050505050505050505050565b60606000606060008060009054906101000a90046001600160a01b03166001600160a01b031663606a6b766040518163ffffffff1660e01b8152600401600060405180830381865afa158015610c3f573d6000803e3d6000fd5b505050506040513d6000823e601f3d908101601f19168201604052610c67919081019061105c565b9350600160009054906101000a90046001600160a01b03166001600160a01b031663a0e67e2b6040518163ffffffff1660e01b8152600401600060405180830381865afa158015610cbc573d6000803e3d6000fd5b505050506040513d6000823e601f3d908101601f19168201604052610ce4919081019061105c565b915060028451610cf491906112e5565b610cff906001611049565b9250600254905090919293565b60405163468721a760e01b81526000906001600160a01b0384169063468721a790610d41908690859087908290600401611320565b6020604051808303816000875af1158015610d60573d6000803e3d6000fd5b505050506040513d601f19601f82011682018060405250810190610d84919061113d565b905080610da857828260405163039126f960e11b81526004016105f3929190611356565b505050565b600060208284031215610dbf57600080fd5b81356001600160e01b031981168114610dd757600080fd5b9392505050565b6001600160a01b0381168114610df357600080fd5b50565b600060208284031215610e0857600080fd5b8135610dd781610dde565b600060208284031215610e2557600080fd5b5035919050565b8035610e3781610dde565b919050565b634e487b7160e01b600052604160045260246000fd5b604051601f8201601f1916810167ffffffffffffffff81118282101715610e7b57610e7b610e3c565b604052919050565b600067ffffffffffffffff821115610e9d57610e9d610e3c565b50601f01601f191660200190565b600082601f830112610ebc57600080fd5b8135610ecf610eca82610e83565b610e52565b818152846020838601011115610ee457600080fd5b816020850160208301376000918101602001919091529392505050565b803560028110610e3757600080fd5b60008060008060008060008060008060006101608c8e031215610f3257600080fd5b610f3b8c610e2c565b9a5060208c0135995067ffffffffffffffff8060408e01351115610f5e57600080fd5b610f6e8e60408f01358f01610eab565b9950610f7c60608e01610f01565b985060808d0135975060a08d0135965060c08d01359550610f9f60e08e01610e2c565b9450610fae6101008e01610e2c565b9350806101208e01351115610fc257600080fd5b50610fd48d6101208e01358e01610eab565b9150610fe36101408d01610e2c565b90509295989b509295989b9093969950565b8015158114610df357600080fd5b6000806040838503121561101657600080fd5b82359150602083013561102881610ff5565b809150509250929050565b634e487b7160e01b600052601160045260246000fd5b8082018082111561019557610195611033565b6000602080838503121561106f57600080fd5b825167ffffffffffffffff8082111561108757600080fd5b818501915085601f83011261109b57600080fd5b8151818111156110ad576110ad610e3c565b8060051b91506110be848301610e52565b81815291830184019184810190888411156110d857600080fd5b938501935b8385101561110257845192506110f283610dde565b82825293850193908501906110dd565b98975050505050505050565b634e487b7160e01b600052603260045260246000fd5b60006001820161113657611136611033565b5060010190565b60006020828403121561114f57600080fd5b8151610dd781610ff5565b60006020828403121561116c57600080fd5b5051919050565b8181038181111561019557610195611033565b60005b838110156111a1578181015183820152602001611189565b50506000910152565b600081518084526111c2816020860160208601611186565b601f01601f19169290920160200192915050565b600281106111f457634e487b7160e01b600052602160045260246000fd5b9052565b6001600160a01b038b81168252602082018b9052610140604083018190526000916112258483018d6111aa565b9250611234606085018c6111d6565b60808401999099525060a082019690965260c081019490945291851660e08401529093166101008201526101200191909152949350505050565b60006020828403121561128057600080fd5b815167ffffffffffffffff81111561129757600080fd5b8201601f810184136112a857600080fd5b80516112b6610eca82610e83565b8181528560208385010111156112cb57600080fd5b6112dc826020830160208601611186565b95945050505050565b60008261130257634e487b7160e01b600052601260045260246000fd5b500490565b60ff828116828216039081111561019557610195611033565b60018060a01b038516815283602082015260806040820152600061134760808301856111aa565b90506112dc60608301846111d6565b6001600160a01b038316815260406020820181905260009061137a908301846111aa565b94935050505056fea2646970667358221220345af950430a9d0e66eb26c31069c62d74e538cd1c987224f23549a473abf80b64736f6c63430008150033000000000000000000000000a5dbb55d2a2cac79ef32d8d02397ae3f928aad360000000000000000000000007908b77683a6b59562ffaf9d9f13728d525710ec",
        "nonce": "0x96b",
        "accessList": []
      },
      "additionalContracts": [],
      "isFixedGasLimit": false
    },
    {
      "hash": "0xdcd3213d8df3d0780d2c846c18a0dfa6f10fff55b7d8cc71e3679cbb39e29802",
      "transactionType": "CALL",
      "contractName": null,
      "contractAddress": "0x644F20Beb994473bc6E8BDc23D7AC0C2bA1EFFc7",
      "function": null,
      "arguments": null,
      "transaction": {
        "type": "0x02",
        "from": "0x921d360ad22a6d0289ce57fcb8250e299cb19ea3",
        "to": "0x644f20beb994473bc6e8bdc23d7ac0c2ba1effc7",
        "gas": "0x2421d",
        "value": "0x0",
        "data": "0x6a761202000000000000000000000000bc39963e3e133382c834a7d1b7f1be2543b655350000000000000000000000000000000000000000000000000000000000000000000000000000000000000000000000000000000000000000000000000000014000000000000000000000000000000000000000000000000000000000000000010000000000000000000000000000000000000000000000000000000000000000000000000000000000000000000000000000000000000000000000000000000000000000000000000000000000000000000000000000000000000000000000000000000000000000000000000000000000000000000000000000000000000000000000000000000000000000000000000000000000000000000000000000000000000000000000000000000000000000000000000000000000000000000001a0000000000000000000000000000000000000000000000000000000000000002466d38203000000000000000000000000ff902740cb47c70e69aee9f5402d13f3b5f1edb0000000000000000000000000000000000000000000000000000000000000000000000000000000000000000000000000000000000000000000000041000000000000000000000000921d360ad22a6d0289ce57fcb8250e299cb19ea300000000000000000000000000000000000000000000000000000000000000000100000000000000000000000000000000000000000000000000000000000000",
        "nonce": "0x96c",
        "accessList": []
      },
      "additionalContracts": [],
      "isFixedGasLimit": false
    },
    {
      "hash": "0x72ae7c2cdf75e96a6ba48120a221f16071f13fa9241fa6afa9f755692ab91ab5",
      "transactionType": "CALL",
      "contractName": "SynthetixSafeModuleOld",
      "contractAddress": "0xff902740Cb47C70E69aEE9f5402D13f3b5f1EDB0",
      "function": "resetSafeSigners(address)",
      "arguments": [
        "0x644F20Beb994473bc6E8BDc23D7AC0C2bA1EFFc7"
      ],
      "transaction": {
        "type": "0x02",
        "from": "0x921d360ad22a6d0289ce57fcb8250e299cb19ea3",
        "to": "0xff902740cb47c70e69aee9f5402d13f3b5f1edb0",
        "gas": "0x57b18",
        "value": "0x0",
        "data": "0x2e643a12000000000000000000000000644f20beb994473bc6e8bdc23d7ac0c2ba1effc7",
        "nonce": "0x96d",
        "accessList": []
      },
      "additionalContracts": [],
      "isFixedGasLimit": false
    },
    {
      "hash": "0xf0edb14c3708fe791f650c1349029baa706c2237f11f407be3361f2d8dd3b26f",
      "transactionType": "CREATE2",
      "contractName": "SynthetixSafeModule",
      "contractAddress": "0x13F10bBc8124754A8995FbFBd5535209E82398da",
      "function": null,
      "arguments": null,
      "transaction": {
        "type": "0x02",
        "from": "0x921d360ad22a6d0289ce57fcb8250e299cb19ea3",
        "to": "0x4e59b44847b379578588920ca78fbf26c0b4956c",
        "gas": "0x172ea5",
        "value": "0x0",
        "data": "0xf98bd3819152d2d7769c86b654cca6b978678878ef542f54eba37a4e58a75c6e608060405234801561001057600080fd5b506040516112c93803806112c983398101604081905261002f91610078565b600080546001600160a01b039384166001600160a01b031991821617909155600180549290931691161790556100b2565b6001600160a01b038116811461007557600080fd5b50565b6000806040838503121561008b57600080fd5b825161009681610060565b60208401519092506100a781610060565b809150509250929050565b611208806100c16000396000f3fe608060405234801561001057600080fd5b506004361061007d5760003560e01c80636c53db9a1161005b5780636c53db9a146100cd57806375f0bb52146100f8578063932713681461010b578063c27202591461011d57600080fd5b806301ffc9a7146100825780632e643a12146100aa5780633408e470146100bf575b600080fd5b610095610090366004610c16565b610130565b60405190151581526020015b60405180910390f35b6100bd6100b8366004610c5f565b610167565b005b6040514681526020016100a1565b6001546100e0906001600160a01b031681565b6040516001600160a01b0390911681526020016100a1565b6100bd610106366004610d60565b61056c565b6100bd610119366004610e53565b5050565b6000546100e0906001600160a01b031681565b60006001600160e01b0319821663736bd41d60e11b148061016157506001600160e01b031982166301ffc9a760e01b145b92915050565b600080600080610175610a3b565b93509350935093506000818461018b9190610e99565b90506000866001600160a01b031663a0e67e2b6040518163ffffffff1660e01b8152600401600060405180830381865afa1580156101cd573d6000803e3d6000fd5b505050506040513d6000823e601f3d908101601f191682016040526101f59190810190610eac565b905060015b81518110156102b5576102a38863f8dc5dd960e01b8460008151811061022257610222610f5e565b602002602001015185858151811061023c5761023c610f5e565b60209081029190910101516040516001600160a01b03928316602482015291166044820152600160648201526084015b60408051601f198184030181529190526020810180516001600160e01b03166001600160e01b031990931692909217909152610b75565b806102ad81610f74565b9150506101fa565b506000805b85518110156103a657600083511180156103185750826000815181106102e2576102e2610f5e565b60200260200101516001600160a01b031686828151811061030557610305610f5e565b60200260200101516001600160a01b0316145b15610333576040805160008152602081019091529250610394565b61039489630d582f1360e01b88848151811061035157610351610f5e565b60200260200101518561036390610f74565b95508588106103725785610374565b875b6040516001600160a01b039092166024830152604482015260640161026c565b8061039e81610f74565b9150506102ba565b5060005b87518110156104ec57600083511180156104085750826000815181106103d2576103d2610f5e565b60200260200101516001600160a01b03168882815181106103f5576103f5610f5e565b60200260200101516001600160a01b0316145b156104235760408051600081526020810190915292506104da565b886001600160a01b0316632f54bf6e89838151811061044457610444610f5e565b60200260200101516040518263ffffffff1660e01b815260040161047791906001600160a01b0391909116815260200190565b602060405180830381865afa158015610494573d6000803e3d6000fd5b505050506040513d601f19601f820116820180604052508101906104b89190610f8d565b6104da576104da89630d582f1360e01b8a848151811061035157610351610f5e565b806104e481610f74565b9150506103aa565b50815115610562576105628863f8dc5dd960e01b8760008151811061051357610513610f5e565b60200260200101518560008151811061052e5761052e610f5e565b60209081029190910101516040516001600160a01b039283166024820152911660448201526064810187905260840161026c565b5050505050505050565b6060336001600160a01b031663e86637db8d8d8d8d8d8d8d8d8d6001336001600160a01b031663affed0e06040518163ffffffff1660e01b8152600401602060405180830381865afa1580156105c6573d6000803e3d6000fd5b505050506040513d601f19601f820116820180604052508101906105ea9190610faa565b6105f49190610fc3565b6040518b63ffffffff1660e01b81526004016106199a99989796959493929190611048565b600060405180830381865afa158015610636573d6000803e3d6000fd5b505050506040513d6000823e601f3d908101601f1916820160405261065e91908101906110be565b905060008060008061066e610a3b565b929650909450925090506000808080808080805b60418f516106909190611135565b8110156109a7576106ba8f8260419081029190910160208101516040820151919092015160ff1692565b9197509550935060ff86166000036106e55760405163523be13960e01b815260040160405180910390fd5b8560ff166001036106f8578d9150610835565b601e8660ff1611156107cd5760018d8051906020012060405160200161074a91907f19457468657265756d205369676e6564204d6573736167653a0a3332000000008152601c810191909152603c0190565b6040516020818303038152906040528051906020012060048861076d9190611157565b6040805160008152602081018083529390935260ff90911690820152606081018790526080810186905260a0016020604051602081039080840390855afa1580156107bc573d6000803e3d6000fd5b505050602060405103519150610835565b8c516020808f019190912060408051600081529283018082529190915260ff881690820152606081018690526080810185905260019060a0016020604051602081039080840390855afa158015610828573d6000803e3d6000fd5b5050506020604051035191505b826001600160a01b0316826001600160a01b031611158061085d57506001600160a01b038216155b156108a157604051625616a160e91b81526001600160a01b038316600482015260ff8716602482015260448101869052606481018590526084015b60405180910390fd5b8a88101561090d5760005b8c5181101561090b57826001600160a01b03168d82815181106108d1576108d1610f5e565b60200260200101516001600160a01b0316036108f957886108f181610f74565b99505061090b565b8061090381610f74565b9150506108ac565b505b60028a5161091b9190611135565b610926906001610e99565b8710156109915760005b8a5181101561098f57826001600160a01b03168b828151811061095557610955610f5e565b60200260200101516001600160a01b03160361097d578761097581610f74565b98505061098f565b8061098781610f74565b915050610930565b505b819250808061099f90610f74565b915050610682565b50898710156109e757604051635dd4a79360e01b81526a7665746f5369676e65727360a81b6004820152602481018b905260448101889052606401610898565b87861015610a2257604051635dd4a79360e01b81526618dbdd5b98da5b60ca1b60048201526024810189905260448101879052606401610898565b5050505050505050505050505050505050505050505050565b60606000606060008060009054906101000a90046001600160a01b03166001600160a01b031663606a6b766040518163ffffffff1660e01b8152600401600060405180830381865afa158015610a95573d6000803e3d6000fd5b505050506040513d6000823e601f3d908101601f19168201604052610abd9190810190610eac565b9350600160009054906101000a90046001600160a01b03166001600160a01b031663a0e67e2b6040518163ffffffff1660e01b8152600401600060405180830381865afa158015610b12573d6000803e3d6000fd5b505050506040513d6000823e601f3d908101601f19168201604052610b3a9190810190610eac565b91508351600014610b4c576001610b4f565b60005b60ff16925060028251610b629190611135565b610b6d906001610e99565b905090919293565b60405163468721a760e01b81526000906001600160a01b0384169063468721a790610baa908690859087908290600401611170565b6020604051808303816000875af1158015610bc9573d6000803e3d6000fd5b505050506040513d601f19601f82011682018060405250810190610bed9190610f8d565b905080610c1157828260405163039126f960e11b81526004016108989291906111a6565b505050565b600060208284031215610c2857600080fd5b81356001600160e01b031981168114610c4057600080fd5b9392505050565b6001600160a01b0381168114610c5c57600080fd5b50565b600060208284031215610c7157600080fd5b8135610c4081610c47565b8035610c8781610c47565b919050565b634e487b7160e01b600052604160045260246000fd5b604051601f8201601f1916810167ffffffffffffffff81118282101715610ccb57610ccb610c8c565b604052919050565b600067ffffffffffffffff821115610ced57610ced610c8c565b50601f01601f191660200190565b600082601f830112610d0c57600080fd5b8135610d1f610d1a82610cd3565b610ca2565b818152846020838601011115610d3457600080fd5b816020850160208301376000918101602001919091529392505050565b803560028110610c8757600080fd5b60008060008060008060008060008060006101608c8e031215610d8257600080fd5b610d8b8c610c7c565b9a5060208c0135995067ffffffffffffffff8060408e01351115610dae57600080fd5b610dbe8e60408f01358f01610cfb565b9950610dcc60608e01610d51565b985060808d0135975060a08d0135965060c08d01359550610def60e08e01610c7c565b9450610dfe6101008e01610c7c565b9350806101208e01351115610e1257600080fd5b50610e248d6101208e01358e01610cfb565b9150610e336101408d01610c7c565b90509295989b509295989b9093969950565b8015158114610c5c57600080fd5b60008060408385031215610e6657600080fd5b823591506020830135610e7881610e45565b809150509250929050565b634e487b7160e01b600052601160045260246000fd5b8082018082111561016157610161610e83565b60006020808385031215610ebf57600080fd5b825167ffffffffffffffff80821115610ed757600080fd5b818501915085601f830112610eeb57600080fd5b815181811115610efd57610efd610c8c565b8060051b9150610f0e848301610ca2565b8181529183018401918481019088841115610f2857600080fd5b938501935b83851015610f525784519250610f4283610c47565b8282529385019390850190610f2d565b98975050505050505050565b634e487b7160e01b600052603260045260246000fd5b600060018201610f8657610f86610e83565b5060010190565b600060208284031215610f9f57600080fd5b8151610c4081610e45565b600060208284031215610fbc57600080fd5b5051919050565b8181038181111561016157610161610e83565b60005b83811015610ff1578181015183820152602001610fd9565b50506000910152565b60008151808452611012816020860160208601610fd6565b601f01601f19169290920160200192915050565b6002811061104457634e487b7160e01b600052602160045260246000fd5b9052565b6001600160a01b038b81168252602082018b9052610140604083018190526000916110758483018d610ffa565b9250611084606085018c611026565b60808401999099525060a082019690965260c081019490945291851660e08401529093166101008201526101200191909152949350505050565b6000602082840312156110d057600080fd5b815167ffffffffffffffff8111156110e757600080fd5b8201601f810184136110f857600080fd5b8051611106610d1a82610cd3565b81815285602083850101111561111b57600080fd5b61112c826020830160208601610fd6565b95945050505050565b60008261115257634e487b7160e01b600052601260045260246000fd5b500490565b60ff828116828216039081111561016157610161610e83565b60018060a01b03851681528360208201526080604082015260006111976080830185610ffa565b905061112c6060830184611026565b6001600160a01b03831681526040602082018190526000906111ca90830184610ffa565b94935050505056fea2646970667358221220aad6a4bd596b94d3d87a71cc007e9598a46ba0b5533683209b1befd2a1f60dfc64736f6c634300081500330000000000000000000000008d6c35f289913a2f0486ac95fb0e5ba8c741c3010000000000000000000000007908b77683a6b59562ffaf9d9f13728d525710ec",
        "nonce": "0x96e",
        "accessList": []
      },
      "additionalContracts": [],
      "isFixedGasLimit": false
    },
    {
      "hash": "0xe33327161a24ef5c490da8c5e2a7a5b6eae4b50f3a5ace9569f86ae94970eae3",
      "transactionType": "CALL",
      "contractName": null,
      "contractAddress": "0x464F1AA70c985bef8b60C32fac564110f7542E8c",
      "function": null,
      "arguments": null,
      "transaction": {
        "type": "0x02",
        "from": "0x921d360ad22a6d0289ce57fcb8250e299cb19ea3",
        "to": "0x464f1aa70c985bef8b60c32fac564110f7542e8c",
        "gas": "0x27e42",
        "value": "0x0",
        "data": "0x6a761202000000000000000000000000bc39963e3e133382c834a7d1b7f1be2543b655350000000000000000000000000000000000000000000000000000000000000000000000000000000000000000000000000000000000000000000000000000014000000000000000000000000000000000000000000000000000000000000000010000000000000000000000000000000000000000000000000000000000000000000000000000000000000000000000000000000000000000000000000000000000000000000000000000000000000000000000000000000000000000000000000000000000000000000000000000000000000000000000000000000000000000000000000000000000000000000000000000000000000000000000000000000000000000000000000000000000000000000000000000000000000000000001a0000000000000000000000000000000000000000000000000000000000000002466d3820300000000000000000000000013f10bbc8124754a8995fbfbd5535209e82398da000000000000000000000000000000000000000000000000000000000000000000000000000000000000000000000000000000000000000000000041000000000000000000000000921d360ad22a6d0289ce57fcb8250e299cb19ea300000000000000000000000000000000000000000000000000000000000000000100000000000000000000000000000000000000000000000000000000000000",
        "nonce": "0x96f",
        "accessList": []
      },
      "additionalContracts": [],
      "isFixedGasLimit": false
    },
    {
      "hash": "0x4ccfd713fd866310f1bc27652d142d4d9fcf4a44044e44f1aed9ffa01e8ae9a4",
      "transactionType": "CALL",
      "contractName": "SynthetixSafeModule",
      "contractAddress": "0x13F10bBc8124754A8995FbFBd5535209E82398da",
      "function": "resetSafeSigners(address)",
      "arguments": [
        "0x464F1AA70c985bef8b60C32fac564110f7542E8c"
      ],
      "transaction": {
        "type": "0x02",
        "from": "0x921d360ad22a6d0289ce57fcb8250e299cb19ea3",
        "to": "0x13f10bbc8124754a8995fbfbd5535209e82398da",
        "gas": "0x1676b",
        "value": "0x0",
        "data": "0x2e643a12000000000000000000000000464f1aa70c985bef8b60c32fac564110f7542e8c",
        "nonce": "0x970",
        "accessList": []
      },
      "additionalContracts": [],
      "isFixedGasLimit": false
    },
    {
      "hash": "0x26b24612b25a41fb14d4d0079798df45d6fdf6507f5a7c3a2512428bf0f5d834",
      "transactionType": "CREATE2",
      "contractName": "SynthetixSafeModule",
      "contractAddress": "0x412cE3b57490051C27A1d262a381509dFb664a2B",
      "function": null,
      "arguments": null,
      "transaction": {
        "type": "0x02",
        "from": "0x921d360ad22a6d0289ce57fcb8250e299cb19ea3",
        "to": "0x4e59b44847b379578588920ca78fbf26c0b4956c",
        "gas": "0x172ea5",
        "value": "0x0",
        "data": "0xc46e6e23d3d9a02ccb1ca133e7bf1261a1689b3406f40ee4f36141714253d5dc608060405234801561001057600080fd5b506040516112c93803806112c983398101604081905261002f91610078565b600080546001600160a01b039384166001600160a01b031991821617909155600180549290931691161790556100b2565b6001600160a01b038116811461007557600080fd5b50565b6000806040838503121561008b57600080fd5b825161009681610060565b60208401519092506100a781610060565b809150509250929050565b611208806100c16000396000f3fe608060405234801561001057600080fd5b506004361061007d5760003560e01c80636c53db9a1161005b5780636c53db9a146100cd57806375f0bb52146100f8578063932713681461010b578063c27202591461011d57600080fd5b806301ffc9a7146100825780632e643a12146100aa5780633408e470146100bf575b600080fd5b610095610090366004610c16565b610130565b60405190151581526020015b60405180910390f35b6100bd6100b8366004610c5f565b610167565b005b6040514681526020016100a1565b6001546100e0906001600160a01b031681565b6040516001600160a01b0390911681526020016100a1565b6100bd610106366004610d60565b61056c565b6100bd610119366004610e53565b5050565b6000546100e0906001600160a01b031681565b60006001600160e01b0319821663736bd41d60e11b148061016157506001600160e01b031982166301ffc9a760e01b145b92915050565b600080600080610175610a3b565b93509350935093506000818461018b9190610e99565b90506000866001600160a01b031663a0e67e2b6040518163ffffffff1660e01b8152600401600060405180830381865afa1580156101cd573d6000803e3d6000fd5b505050506040513d6000823e601f3d908101601f191682016040526101f59190810190610eac565b905060015b81518110156102b5576102a38863f8dc5dd960e01b8460008151811061022257610222610f5e565b602002602001015185858151811061023c5761023c610f5e565b60209081029190910101516040516001600160a01b03928316602482015291166044820152600160648201526084015b60408051601f198184030181529190526020810180516001600160e01b03166001600160e01b031990931692909217909152610b75565b806102ad81610f74565b9150506101fa565b506000805b85518110156103a657600083511180156103185750826000815181106102e2576102e2610f5e565b60200260200101516001600160a01b031686828151811061030557610305610f5e565b60200260200101516001600160a01b0316145b15610333576040805160008152602081019091529250610394565b61039489630d582f1360e01b88848151811061035157610351610f5e565b60200260200101518561036390610f74565b95508588106103725785610374565b875b6040516001600160a01b039092166024830152604482015260640161026c565b8061039e81610f74565b9150506102ba565b5060005b87518110156104ec57600083511180156104085750826000815181106103d2576103d2610f5e565b60200260200101516001600160a01b03168882815181106103f5576103f5610f5e565b60200260200101516001600160a01b0316145b156104235760408051600081526020810190915292506104da565b886001600160a01b0316632f54bf6e89838151811061044457610444610f5e565b60200260200101516040518263ffffffff1660e01b815260040161047791906001600160a01b0391909116815260200190565b602060405180830381865afa158015610494573d6000803e3d6000fd5b505050506040513d601f19601f820116820180604052508101906104b89190610f8d565b6104da576104da89630d582f1360e01b8a848151811061035157610351610f5e565b806104e481610f74565b9150506103aa565b50815115610562576105628863f8dc5dd960e01b8760008151811061051357610513610f5e565b60200260200101518560008151811061052e5761052e610f5e565b60209081029190910101516040516001600160a01b039283166024820152911660448201526064810187905260840161026c565b5050505050505050565b6060336001600160a01b031663e86637db8d8d8d8d8d8d8d8d8d6001336001600160a01b031663affed0e06040518163ffffffff1660e01b8152600401602060405180830381865afa1580156105c6573d6000803e3d6000fd5b505050506040513d601f19601f820116820180604052508101906105ea9190610faa565b6105f49190610fc3565b6040518b63ffffffff1660e01b81526004016106199a99989796959493929190611048565b600060405180830381865afa158015610636573d6000803e3d6000fd5b505050506040513d6000823e601f3d908101601f1916820160405261065e91908101906110be565b905060008060008061066e610a3b565b929650909450925090506000808080808080805b60418f516106909190611135565b8110156109a7576106ba8f8260419081029190910160208101516040820151919092015160ff1692565b9197509550935060ff86166000036106e55760405163523be13960e01b815260040160405180910390fd5b8560ff166001036106f8578d9150610835565b601e8660ff1611156107cd5760018d8051906020012060405160200161074a91907f19457468657265756d205369676e6564204d6573736167653a0a3332000000008152601c810191909152603c0190565b6040516020818303038152906040528051906020012060048861076d9190611157565b6040805160008152602081018083529390935260ff90911690820152606081018790526080810186905260a0016020604051602081039080840390855afa1580156107bc573d6000803e3d6000fd5b505050602060405103519150610835565b8c516020808f019190912060408051600081529283018082529190915260ff881690820152606081018690526080810185905260019060a0016020604051602081039080840390855afa158015610828573d6000803e3d6000fd5b5050506020604051035191505b826001600160a01b0316826001600160a01b031611158061085d57506001600160a01b038216155b156108a157604051625616a160e91b81526001600160a01b038316600482015260ff8716602482015260448101869052606481018590526084015b60405180910390fd5b8a88101561090d5760005b8c5181101561090b57826001600160a01b03168d82815181106108d1576108d1610f5e565b60200260200101516001600160a01b0316036108f957886108f181610f74565b99505061090b565b8061090381610f74565b9150506108ac565b505b60028a5161091b9190611135565b610926906001610e99565b8710156109915760005b8a5181101561098f57826001600160a01b03168b828151811061095557610955610f5e565b60200260200101516001600160a01b03160361097d578761097581610f74565b98505061098f565b8061098781610f74565b915050610930565b505b819250808061099f90610f74565b915050610682565b50898710156109e757604051635dd4a79360e01b81526a7665746f5369676e65727360a81b6004820152602481018b905260448101889052606401610898565b87861015610a2257604051635dd4a79360e01b81526618dbdd5b98da5b60ca1b60048201526024810189905260448101879052606401610898565b5050505050505050505050505050505050505050505050565b60606000606060008060009054906101000a90046001600160a01b03166001600160a01b031663606a6b766040518163ffffffff1660e01b8152600401600060405180830381865afa158015610a95573d6000803e3d6000fd5b505050506040513d6000823e601f3d908101601f19168201604052610abd9190810190610eac565b9350600160009054906101000a90046001600160a01b03166001600160a01b031663a0e67e2b6040518163ffffffff1660e01b8152600401600060405180830381865afa158015610b12573d6000803e3d6000fd5b505050506040513d6000823e601f3d908101601f19168201604052610b3a9190810190610eac565b91508351600014610b4c576001610b4f565b60005b60ff16925060028251610b629190611135565b610b6d906001610e99565b905090919293565b60405163468721a760e01b81526000906001600160a01b0384169063468721a790610baa908690859087908290600401611170565b6020604051808303816000875af1158015610bc9573d6000803e3d6000fd5b505050506040513d601f19601f82011682018060405250810190610bed9190610f8d565b905080610c1157828260405163039126f960e11b81526004016108989291906111a6565b505050565b600060208284031215610c2857600080fd5b81356001600160e01b031981168114610c4057600080fd5b9392505050565b6001600160a01b0381168114610c5c57600080fd5b50565b600060208284031215610c7157600080fd5b8135610c4081610c47565b8035610c8781610c47565b919050565b634e487b7160e01b600052604160045260246000fd5b604051601f8201601f1916810167ffffffffffffffff81118282101715610ccb57610ccb610c8c565b604052919050565b600067ffffffffffffffff821115610ced57610ced610c8c565b50601f01601f191660200190565b600082601f830112610d0c57600080fd5b8135610d1f610d1a82610cd3565b610ca2565b818152846020838601011115610d3457600080fd5b816020850160208301376000918101602001919091529392505050565b803560028110610c8757600080fd5b60008060008060008060008060008060006101608c8e031215610d8257600080fd5b610d8b8c610c7c565b9a5060208c0135995067ffffffffffffffff8060408e01351115610dae57600080fd5b610dbe8e60408f01358f01610cfb565b9950610dcc60608e01610d51565b985060808d0135975060a08d0135965060c08d01359550610def60e08e01610c7c565b9450610dfe6101008e01610c7c565b9350806101208e01351115610e1257600080fd5b50610e248d6101208e01358e01610cfb565b9150610e336101408d01610c7c565b90509295989b509295989b9093969950565b8015158114610c5c57600080fd5b60008060408385031215610e6657600080fd5b823591506020830135610e7881610e45565b809150509250929050565b634e487b7160e01b600052601160045260246000fd5b8082018082111561016157610161610e83565b60006020808385031215610ebf57600080fd5b825167ffffffffffffffff80821115610ed757600080fd5b818501915085601f830112610eeb57600080fd5b815181811115610efd57610efd610c8c565b8060051b9150610f0e848301610ca2565b8181529183018401918481019088841115610f2857600080fd5b938501935b83851015610f525784519250610f4283610c47565b8282529385019390850190610f2d565b98975050505050505050565b634e487b7160e01b600052603260045260246000fd5b600060018201610f8657610f86610e83565b5060010190565b600060208284031215610f9f57600080fd5b8151610c4081610e45565b600060208284031215610fbc57600080fd5b5051919050565b8181038181111561016157610161610e83565b60005b83811015610ff1578181015183820152602001610fd9565b50506000910152565b60008151808452611012816020860160208601610fd6565b601f01601f19169290920160200192915050565b6002811061104457634e487b7160e01b600052602160045260246000fd5b9052565b6001600160a01b038b81168252602082018b9052610140604083018190526000916110758483018d610ffa565b9250611084606085018c611026565b60808401999099525060a082019690965260c081019490945291851660e08401529093166101008201526101200191909152949350505050565b6000602082840312156110d057600080fd5b815167ffffffffffffffff8111156110e757600080fd5b8201601f810184136110f857600080fd5b8051611106610d1a82610cd3565b81815285602083850101111561111b57600080fd5b61112c826020830160208601610fd6565b95945050505050565b60008261115257634e487b7160e01b600052601260045260246000fd5b500490565b60ff828116828216039081111561016157610161610e83565b60018060a01b03851681528360208201526080604082015260006111976080830185610ffa565b905061112c6060830184611026565b6001600160a01b03831681526040602082018190526000906111ca90830184610ffa565b94935050505056fea2646970667358221220aad6a4bd596b94d3d87a71cc007e9598a46ba0b5533683209b1befd2a1f60dfc64736f6c634300081500330000000000000000000000008cc83c079bcbd313491b7bcda7fb8f1687f0af68000000000000000000000000464f1aa70c985bef8b60c32fac564110f7542e8c",
        "nonce": "0x971",
        "accessList": []
      },
      "additionalContracts": [],
      "isFixedGasLimit": false
    },
    {
      "hash": "0x47a33423d792ec599eb1ab5a16be2cc14034ca28d4d2b313d65b0cfe23aabf77",
      "transactionType": "CALL",
      "contractName": null,
      "contractAddress": "0xD5CB13348F3e33B964D5eAe1E18C276748e79A97",
      "function": null,
      "arguments": null,
      "transaction": {
        "type": "0x02",
        "from": "0x921d360ad22a6d0289ce57fcb8250e299cb19ea3",
        "to": "0xd5cb13348f3e33b964d5eae1e18c276748e79a97",
        "gas": "0x27e42",
        "value": "0x0",
        "data": "0x6a761202000000000000000000000000bc39963e3e133382c834a7d1b7f1be2543b655350000000000000000000000000000000000000000000000000000000000000000000000000000000000000000000000000000000000000000000000000000014000000000000000000000000000000000000000000000000000000000000000010000000000000000000000000000000000000000000000000000000000000000000000000000000000000000000000000000000000000000000000000000000000000000000000000000000000000000000000000000000000000000000000000000000000000000000000000000000000000000000000000000000000000000000000000000000000000000000000000000000000000000000000000000000000000000000000000000000000000000000000000000000000000000000001a0000000000000000000000000000000000000000000000000000000000000002466d38203000000000000000000000000412ce3b57490051c27a1d262a381509dfb664a2b000000000000000000000000000000000000000000000000000000000000000000000000000000000000000000000000000000000000000000000041000000000000000000000000921d360ad22a6d0289ce57fcb8250e299cb19ea300000000000000000000000000000000000000000000000000000000000000000100000000000000000000000000000000000000000000000000000000000000",
        "nonce": "0x972",
        "accessList": []
      },
      "additionalContracts": [],
      "isFixedGasLimit": false
    },
    {
      "hash": "0x15fdb2b0d74593cf7e1d4618c010478ab34c8360913431d46a1bb337cc5cc85f",
      "transactionType": "CALL",
      "contractName": "SynthetixSafeModule",
      "contractAddress": "0x412cE3b57490051C27A1d262a381509dFb664a2B",
      "function": "resetSafeSigners(address)",
      "arguments": [
        "0xD5CB13348F3e33B964D5eAe1E18C276748e79A97"
      ],
      "transaction": {
        "type": "0x02",
        "from": "0x921d360ad22a6d0289ce57fcb8250e299cb19ea3",
        "to": "0x412ce3b57490051c27a1d262a381509dfb664a2b",
        "gas": "0x19013",
        "value": "0x0",
        "data": "0x2e643a12000000000000000000000000d5cb13348f3e33b964d5eae1e18c276748e79a97",
        "nonce": "0x973",
        "accessList": []
      },
      "additionalContracts": [],
      "isFixedGasLimit": false
    },
    {
      "hash": "0xe6669322907c32f5cca2ce46ff981397f56f3222112cc5abcd22be64ebe82b46",
      "transactionType": "CREATE2",
      "contractName": "SynthetixSafeModule",
      "contractAddress": "0x701149754188B710b0C58f23c5356E6620cF74C2",
      "function": null,
      "arguments": null,
      "transaction": {
        "type": "0x02",
        "from": "0x921d360ad22a6d0289ce57fcb8250e299cb19ea3",
        "to": "0x4e59b44847b379578588920ca78fbf26c0b4956c",
        "gas": "0x172ea5",
        "value": "0x0",
        "data": "0x34252ba796de71a64d843da767e72943981e865dc6464e7357c880d80a19b57b608060405234801561001057600080fd5b506040516112c93803806112c983398101604081905261002f91610078565b600080546001600160a01b039384166001600160a01b031991821617909155600180549290931691161790556100b2565b6001600160a01b038116811461007557600080fd5b50565b6000806040838503121561008b57600080fd5b825161009681610060565b60208401519092506100a781610060565b809150509250929050565b611208806100c16000396000f3fe608060405234801561001057600080fd5b506004361061007d5760003560e01c80636c53db9a1161005b5780636c53db9a146100cd57806375f0bb52146100f8578063932713681461010b578063c27202591461011d57600080fd5b806301ffc9a7146100825780632e643a12146100aa5780633408e470146100bf575b600080fd5b610095610090366004610c16565b610130565b60405190151581526020015b60405180910390f35b6100bd6100b8366004610c5f565b610167565b005b6040514681526020016100a1565b6001546100e0906001600160a01b031681565b6040516001600160a01b0390911681526020016100a1565b6100bd610106366004610d60565b61056c565b6100bd610119366004610e53565b5050565b6000546100e0906001600160a01b031681565b60006001600160e01b0319821663736bd41d60e11b148061016157506001600160e01b031982166301ffc9a760e01b145b92915050565b600080600080610175610a3b565b93509350935093506000818461018b9190610e99565b90506000866001600160a01b031663a0e67e2b6040518163ffffffff1660e01b8152600401600060405180830381865afa1580156101cd573d6000803e3d6000fd5b505050506040513d6000823e601f3d908101601f191682016040526101f59190810190610eac565b905060015b81518110156102b5576102a38863f8dc5dd960e01b8460008151811061022257610222610f5e565b602002602001015185858151811061023c5761023c610f5e565b60209081029190910101516040516001600160a01b03928316602482015291166044820152600160648201526084015b60408051601f198184030181529190526020810180516001600160e01b03166001600160e01b031990931692909217909152610b75565b806102ad81610f74565b9150506101fa565b506000805b85518110156103a657600083511180156103185750826000815181106102e2576102e2610f5e565b60200260200101516001600160a01b031686828151811061030557610305610f5e565b60200260200101516001600160a01b0316145b15610333576040805160008152602081019091529250610394565b61039489630d582f1360e01b88848151811061035157610351610f5e565b60200260200101518561036390610f74565b95508588106103725785610374565b875b6040516001600160a01b039092166024830152604482015260640161026c565b8061039e81610f74565b9150506102ba565b5060005b87518110156104ec57600083511180156104085750826000815181106103d2576103d2610f5e565b60200260200101516001600160a01b03168882815181106103f5576103f5610f5e565b60200260200101516001600160a01b0316145b156104235760408051600081526020810190915292506104da565b886001600160a01b0316632f54bf6e89838151811061044457610444610f5e565b60200260200101516040518263ffffffff1660e01b815260040161047791906001600160a01b0391909116815260200190565b602060405180830381865afa158015610494573d6000803e3d6000fd5b505050506040513d601f19601f820116820180604052508101906104b89190610f8d565b6104da576104da89630d582f1360e01b8a848151811061035157610351610f5e565b806104e481610f74565b9150506103aa565b50815115610562576105628863f8dc5dd960e01b8760008151811061051357610513610f5e565b60200260200101518560008151811061052e5761052e610f5e565b60209081029190910101516040516001600160a01b039283166024820152911660448201526064810187905260840161026c565b5050505050505050565b6060336001600160a01b031663e86637db8d8d8d8d8d8d8d8d8d6001336001600160a01b031663affed0e06040518163ffffffff1660e01b8152600401602060405180830381865afa1580156105c6573d6000803e3d6000fd5b505050506040513d601f19601f820116820180604052508101906105ea9190610faa565b6105f49190610fc3565b6040518b63ffffffff1660e01b81526004016106199a99989796959493929190611048565b600060405180830381865afa158015610636573d6000803e3d6000fd5b505050506040513d6000823e601f3d908101601f1916820160405261065e91908101906110be565b905060008060008061066e610a3b565b929650909450925090506000808080808080805b60418f516106909190611135565b8110156109a7576106ba8f8260419081029190910160208101516040820151919092015160ff1692565b9197509550935060ff86166000036106e55760405163523be13960e01b815260040160405180910390fd5b8560ff166001036106f8578d9150610835565b601e8660ff1611156107cd5760018d8051906020012060405160200161074a91907f19457468657265756d205369676e6564204d6573736167653a0a3332000000008152601c810191909152603c0190565b6040516020818303038152906040528051906020012060048861076d9190611157565b6040805160008152602081018083529390935260ff90911690820152606081018790526080810186905260a0016020604051602081039080840390855afa1580156107bc573d6000803e3d6000fd5b505050602060405103519150610835565b8c516020808f019190912060408051600081529283018082529190915260ff881690820152606081018690526080810185905260019060a0016020604051602081039080840390855afa158015610828573d6000803e3d6000fd5b5050506020604051035191505b826001600160a01b0316826001600160a01b031611158061085d57506001600160a01b038216155b156108a157604051625616a160e91b81526001600160a01b038316600482015260ff8716602482015260448101869052606481018590526084015b60405180910390fd5b8a88101561090d5760005b8c5181101561090b57826001600160a01b03168d82815181106108d1576108d1610f5e565b60200260200101516001600160a01b0316036108f957886108f181610f74565b99505061090b565b8061090381610f74565b9150506108ac565b505b60028a5161091b9190611135565b610926906001610e99565b8710156109915760005b8a5181101561098f57826001600160a01b03168b828151811061095557610955610f5e565b60200260200101516001600160a01b03160361097d578761097581610f74565b98505061098f565b8061098781610f74565b915050610930565b505b819250808061099f90610f74565b915050610682565b50898710156109e757604051635dd4a79360e01b81526a7665746f5369676e65727360a81b6004820152602481018b905260448101889052606401610898565b87861015610a2257604051635dd4a79360e01b81526618dbdd5b98da5b60ca1b60048201526024810189905260448101879052606401610898565b5050505050505050505050505050505050505050505050565b60606000606060008060009054906101000a90046001600160a01b03166001600160a01b031663606a6b766040518163ffffffff1660e01b8152600401600060405180830381865afa158015610a95573d6000803e3d6000fd5b505050506040513d6000823e601f3d908101601f19168201604052610abd9190810190610eac565b9350600160009054906101000a90046001600160a01b03166001600160a01b031663a0e67e2b6040518163ffffffff1660e01b8152600401600060405180830381865afa158015610b12573d6000803e3d6000fd5b505050506040513d6000823e601f3d908101601f19168201604052610b3a9190810190610eac565b91508351600014610b4c576001610b4f565b60005b60ff16925060028251610b629190611135565b610b6d906001610e99565b905090919293565b60405163468721a760e01b81526000906001600160a01b0384169063468721a790610baa908690859087908290600401611170565b6020604051808303816000875af1158015610bc9573d6000803e3d6000fd5b505050506040513d601f19601f82011682018060405250810190610bed9190610f8d565b905080610c1157828260405163039126f960e11b81526004016108989291906111a6565b505050565b600060208284031215610c2857600080fd5b81356001600160e01b031981168114610c4057600080fd5b9392505050565b6001600160a01b0381168114610c5c57600080fd5b50565b600060208284031215610c7157600080fd5b8135610c4081610c47565b8035610c8781610c47565b919050565b634e487b7160e01b600052604160045260246000fd5b604051601f8201601f1916810167ffffffffffffffff81118282101715610ccb57610ccb610c8c565b604052919050565b600067ffffffffffffffff821115610ced57610ced610c8c565b50601f01601f191660200190565b600082601f830112610d0c57600080fd5b8135610d1f610d1a82610cd3565b610ca2565b818152846020838601011115610d3457600080fd5b816020850160208301376000918101602001919091529392505050565b803560028110610c8757600080fd5b60008060008060008060008060008060006101608c8e031215610d8257600080fd5b610d8b8c610c7c565b9a5060208c0135995067ffffffffffffffff8060408e01351115610dae57600080fd5b610dbe8e60408f01358f01610cfb565b9950610dcc60608e01610d51565b985060808d0135975060a08d0135965060c08d01359550610def60e08e01610c7c565b9450610dfe6101008e01610c7c565b9350806101208e01351115610e1257600080fd5b50610e248d6101208e01358e01610cfb565b9150610e336101408d01610c7c565b90509295989b509295989b9093969950565b8015158114610c5c57600080fd5b60008060408385031215610e6657600080fd5b823591506020830135610e7881610e45565b809150509250929050565b634e487b7160e01b600052601160045260246000fd5b8082018082111561016157610161610e83565b60006020808385031215610ebf57600080fd5b825167ffffffffffffffff80821115610ed757600080fd5b818501915085601f830112610eeb57600080fd5b815181811115610efd57610efd610c8c565b8060051b9150610f0e848301610ca2565b8181529183018401918481019088841115610f2857600080fd5b938501935b83851015610f525784519250610f4283610c47565b8282529385019390850190610f2d565b98975050505050505050565b634e487b7160e01b600052603260045260246000fd5b600060018201610f8657610f86610e83565b5060010190565b600060208284031215610f9f57600080fd5b8151610c4081610e45565b600060208284031215610fbc57600080fd5b5051919050565b8181038181111561016157610161610e83565b60005b83811015610ff1578181015183820152602001610fd9565b50506000910152565b60008151808452611012816020860160208601610fd6565b601f01601f19169290920160200192915050565b6002811061104457634e487b7160e01b600052602160045260246000fd5b9052565b6001600160a01b038b81168252602082018b9052610140604083018190526000916110758483018d610ffa565b9250611084606085018c611026565b60808401999099525060a082019690965260c081019490945291851660e08401529093166101008201526101200191909152949350505050565b6000602082840312156110d057600080fd5b815167ffffffffffffffff8111156110e757600080fd5b8201601f810184136110f857600080fd5b8051611106610d1a82610cd3565b81815285602083850101111561111b57600080fd5b61112c826020830160208601610fd6565b95945050505050565b60008261115257634e487b7160e01b600052601260045260246000fd5b500490565b60ff828116828216039081111561016157610161610e83565b60018060a01b03851681528360208201526080604082015260006111976080830185610ffa565b905061112c6060830184611026565b6001600160a01b03831681526040602082018190526000906111ca90830184610ffa565b94935050505056fea2646970667358221220aad6a4bd596b94d3d87a71cc007e9598a46ba0b5533683209b1befd2a1f60dfc64736f6c634300081500330000000000000000000000005dfb361ac273610c8b6ac29c213d7eac6ba8e9fa000000000000000000000000d5cb13348f3e33b964d5eae1e18c276748e79a97",
        "nonce": "0x974",
        "accessList": []
      },
      "additionalContracts": [],
      "isFixedGasLimit": false
    },
    {
      "hash": "0xfe3d34ad6b8733588f9fec643214f8d0293cd7606989ceac813964e353b05fef",
      "transactionType": "CALL",
      "contractName": null,
      "contractAddress": "0xA809b77718fe9e27E8E4cfE5B801335C4E73437B",
      "function": null,
      "arguments": null,
      "transaction": {
        "type": "0x02",
        "from": "0x921d360ad22a6d0289ce57fcb8250e299cb19ea3",
        "to": "0xa809b77718fe9e27e8e4cfe5b801335c4e73437b",
        "gas": "0x27e42",
        "value": "0x0",
        "data": "0x6a761202000000000000000000000000bc39963e3e133382c834a7d1b7f1be2543b655350000000000000000000000000000000000000000000000000000000000000000000000000000000000000000000000000000000000000000000000000000014000000000000000000000000000000000000000000000000000000000000000010000000000000000000000000000000000000000000000000000000000000000000000000000000000000000000000000000000000000000000000000000000000000000000000000000000000000000000000000000000000000000000000000000000000000000000000000000000000000000000000000000000000000000000000000000000000000000000000000000000000000000000000000000000000000000000000000000000000000000000000000000000000000000000001a0000000000000000000000000000000000000000000000000000000000000002466d38203000000000000000000000000701149754188b710b0c58f23c5356e6620cf74c2000000000000000000000000000000000000000000000000000000000000000000000000000000000000000000000000000000000000000000000041000000000000000000000000921d360ad22a6d0289ce57fcb8250e299cb19ea300000000000000000000000000000000000000000000000000000000000000000100000000000000000000000000000000000000000000000000000000000000",
        "nonce": "0x975",
        "accessList": []
      },
      "additionalContracts": [],
      "isFixedGasLimit": false
    },
    {
      "hash": "0x9422d671af4a6bd98dad9238426243c25cf9b21de9ca2e4e91a46ef364867e3b",
      "transactionType": "CALL",
      "contractName": "SynthetixSafeModule",
      "contractAddress": "0x701149754188B710b0C58f23c5356E6620cF74C2",
      "function": "resetSafeSigners(address)",
      "arguments": [
        "0xA809b77718fe9e27E8E4cfE5B801335C4E73437B"
      ],
      "transaction": {
        "type": "0x02",
        "from": "0x921d360ad22a6d0289ce57fcb8250e299cb19ea3",
        "to": "0x701149754188b710b0c58f23c5356e6620cf74c2",
        "gas": "0x19013",
        "value": "0x0",
        "data": "0x2e643a12000000000000000000000000a809b77718fe9e27e8e4cfe5b801335c4e73437b",
        "nonce": "0x976",
        "accessList": []
      },
      "additionalContracts": [],
      "isFixedGasLimit": false
    },
    {
      "hash": "0x5c9467483cbf497325effd7cd05ac3234be7601245f1251896d8c034b6d04f65",
      "transactionType": "CREATE2",
      "contractName": "SynthetixSafeModule",
      "contractAddress": "0x1c958E22bBF933Ed2d4120D225FfE7E10387A853",
      "function": null,
      "arguments": null,
      "transaction": {
        "type": "0x02",
        "from": "0x921d360ad22a6d0289ce57fcb8250e299cb19ea3",
        "to": "0x4e59b44847b379578588920ca78fbf26c0b4956c",
        "gas": "0x172ea5",
        "value": "0x0",
        "data": "0x6726488c13ab47de6ae7fafdd149e41ac37647a4accacdd25695c24b09619806608060405234801561001057600080fd5b506040516112c93803806112c983398101604081905261002f91610078565b600080546001600160a01b039384166001600160a01b031991821617909155600180549290931691161790556100b2565b6001600160a01b038116811461007557600080fd5b50565b6000806040838503121561008b57600080fd5b825161009681610060565b60208401519092506100a781610060565b809150509250929050565b611208806100c16000396000f3fe608060405234801561001057600080fd5b506004361061007d5760003560e01c80636c53db9a1161005b5780636c53db9a146100cd57806375f0bb52146100f8578063932713681461010b578063c27202591461011d57600080fd5b806301ffc9a7146100825780632e643a12146100aa5780633408e470146100bf575b600080fd5b610095610090366004610c16565b610130565b60405190151581526020015b60405180910390f35b6100bd6100b8366004610c5f565b610167565b005b6040514681526020016100a1565b6001546100e0906001600160a01b031681565b6040516001600160a01b0390911681526020016100a1565b6100bd610106366004610d60565b61056c565b6100bd610119366004610e53565b5050565b6000546100e0906001600160a01b031681565b60006001600160e01b0319821663736bd41d60e11b148061016157506001600160e01b031982166301ffc9a760e01b145b92915050565b600080600080610175610a3b565b93509350935093506000818461018b9190610e99565b90506000866001600160a01b031663a0e67e2b6040518163ffffffff1660e01b8152600401600060405180830381865afa1580156101cd573d6000803e3d6000fd5b505050506040513d6000823e601f3d908101601f191682016040526101f59190810190610eac565b905060015b81518110156102b5576102a38863f8dc5dd960e01b8460008151811061022257610222610f5e565b602002602001015185858151811061023c5761023c610f5e565b60209081029190910101516040516001600160a01b03928316602482015291166044820152600160648201526084015b60408051601f198184030181529190526020810180516001600160e01b03166001600160e01b031990931692909217909152610b75565b806102ad81610f74565b9150506101fa565b506000805b85518110156103a657600083511180156103185750826000815181106102e2576102e2610f5e565b60200260200101516001600160a01b031686828151811061030557610305610f5e565b60200260200101516001600160a01b0316145b15610333576040805160008152602081019091529250610394565b61039489630d582f1360e01b88848151811061035157610351610f5e565b60200260200101518561036390610f74565b95508588106103725785610374565b875b6040516001600160a01b039092166024830152604482015260640161026c565b8061039e81610f74565b9150506102ba565b5060005b87518110156104ec57600083511180156104085750826000815181106103d2576103d2610f5e565b60200260200101516001600160a01b03168882815181106103f5576103f5610f5e565b60200260200101516001600160a01b0316145b156104235760408051600081526020810190915292506104da565b886001600160a01b0316632f54bf6e89838151811061044457610444610f5e565b60200260200101516040518263ffffffff1660e01b815260040161047791906001600160a01b0391909116815260200190565b602060405180830381865afa158015610494573d6000803e3d6000fd5b505050506040513d601f19601f820116820180604052508101906104b89190610f8d565b6104da576104da89630d582f1360e01b8a848151811061035157610351610f5e565b806104e481610f74565b9150506103aa565b50815115610562576105628863f8dc5dd960e01b8760008151811061051357610513610f5e565b60200260200101518560008151811061052e5761052e610f5e565b60209081029190910101516040516001600160a01b039283166024820152911660448201526064810187905260840161026c565b5050505050505050565b6060336001600160a01b031663e86637db8d8d8d8d8d8d8d8d8d6001336001600160a01b031663affed0e06040518163ffffffff1660e01b8152600401602060405180830381865afa1580156105c6573d6000803e3d6000fd5b505050506040513d601f19601f820116820180604052508101906105ea9190610faa565b6105f49190610fc3565b6040518b63ffffffff1660e01b81526004016106199a99989796959493929190611048565b600060405180830381865afa158015610636573d6000803e3d6000fd5b505050506040513d6000823e601f3d908101601f1916820160405261065e91908101906110be565b905060008060008061066e610a3b565b929650909450925090506000808080808080805b60418f516106909190611135565b8110156109a7576106ba8f8260419081029190910160208101516040820151919092015160ff1692565b9197509550935060ff86166000036106e55760405163523be13960e01b815260040160405180910390fd5b8560ff166001036106f8578d9150610835565b601e8660ff1611156107cd5760018d8051906020012060405160200161074a91907f19457468657265756d205369676e6564204d6573736167653a0a3332000000008152601c810191909152603c0190565b6040516020818303038152906040528051906020012060048861076d9190611157565b6040805160008152602081018083529390935260ff90911690820152606081018790526080810186905260a0016020604051602081039080840390855afa1580156107bc573d6000803e3d6000fd5b505050602060405103519150610835565b8c516020808f019190912060408051600081529283018082529190915260ff881690820152606081018690526080810185905260019060a0016020604051602081039080840390855afa158015610828573d6000803e3d6000fd5b5050506020604051035191505b826001600160a01b0316826001600160a01b031611158061085d57506001600160a01b038216155b156108a157604051625616a160e91b81526001600160a01b038316600482015260ff8716602482015260448101869052606481018590526084015b60405180910390fd5b8a88101561090d5760005b8c5181101561090b57826001600160a01b03168d82815181106108d1576108d1610f5e565b60200260200101516001600160a01b0316036108f957886108f181610f74565b99505061090b565b8061090381610f74565b9150506108ac565b505b60028a5161091b9190611135565b610926906001610e99565b8710156109915760005b8a5181101561098f57826001600160a01b03168b828151811061095557610955610f5e565b60200260200101516001600160a01b03160361097d578761097581610f74565b98505061098f565b8061098781610f74565b915050610930565b505b819250808061099f90610f74565b915050610682565b50898710156109e757604051635dd4a79360e01b81526a7665746f5369676e65727360a81b6004820152602481018b905260448101889052606401610898565b87861015610a2257604051635dd4a79360e01b81526618dbdd5b98da5b60ca1b60048201526024810189905260448101879052606401610898565b5050505050505050505050505050505050505050505050565b60606000606060008060009054906101000a90046001600160a01b03166001600160a01b031663606a6b766040518163ffffffff1660e01b8152600401600060405180830381865afa158015610a95573d6000803e3d6000fd5b505050506040513d6000823e601f3d908101601f19168201604052610abd9190810190610eac565b9350600160009054906101000a90046001600160a01b03166001600160a01b031663a0e67e2b6040518163ffffffff1660e01b8152600401600060405180830381865afa158015610b12573d6000803e3d6000fd5b505050506040513d6000823e601f3d908101601f19168201604052610b3a9190810190610eac565b91508351600014610b4c576001610b4f565b60005b60ff16925060028251610b629190611135565b610b6d906001610e99565b905090919293565b60405163468721a760e01b81526000906001600160a01b0384169063468721a790610baa908690859087908290600401611170565b6020604051808303816000875af1158015610bc9573d6000803e3d6000fd5b505050506040513d601f19601f82011682018060405250810190610bed9190610f8d565b905080610c1157828260405163039126f960e11b81526004016108989291906111a6565b505050565b600060208284031215610c2857600080fd5b81356001600160e01b031981168114610c4057600080fd5b9392505050565b6001600160a01b0381168114610c5c57600080fd5b50565b600060208284031215610c7157600080fd5b8135610c4081610c47565b8035610c8781610c47565b919050565b634e487b7160e01b600052604160045260246000fd5b604051601f8201601f1916810167ffffffffffffffff81118282101715610ccb57610ccb610c8c565b604052919050565b600067ffffffffffffffff821115610ced57610ced610c8c565b50601f01601f191660200190565b600082601f830112610d0c57600080fd5b8135610d1f610d1a82610cd3565b610ca2565b818152846020838601011115610d3457600080fd5b816020850160208301376000918101602001919091529392505050565b803560028110610c8757600080fd5b60008060008060008060008060008060006101608c8e031215610d8257600080fd5b610d8b8c610c7c565b9a5060208c0135995067ffffffffffffffff8060408e01351115610dae57600080fd5b610dbe8e60408f01358f01610cfb565b9950610dcc60608e01610d51565b985060808d0135975060a08d0135965060c08d01359550610def60e08e01610c7c565b9450610dfe6101008e01610c7c565b9350806101208e01351115610e1257600080fd5b50610e248d6101208e01358e01610cfb565b9150610e336101408d01610c7c565b90509295989b509295989b9093969950565b8015158114610c5c57600080fd5b60008060408385031215610e6657600080fd5b823591506020830135610e7881610e45565b809150509250929050565b634e487b7160e01b600052601160045260246000fd5b8082018082111561016157610161610e83565b60006020808385031215610ebf57600080fd5b825167ffffffffffffffff80821115610ed757600080fd5b818501915085601f830112610eeb57600080fd5b815181811115610efd57610efd610c8c565b8060051b9150610f0e848301610ca2565b8181529183018401918481019088841115610f2857600080fd5b938501935b83851015610f525784519250610f4283610c47565b8282529385019390850190610f2d565b98975050505050505050565b634e487b7160e01b600052603260045260246000fd5b600060018201610f8657610f86610e83565b5060010190565b600060208284031215610f9f57600080fd5b8151610c4081610e45565b600060208284031215610fbc57600080fd5b5051919050565b8181038181111561016157610161610e83565b60005b83811015610ff1578181015183820152602001610fd9565b50506000910152565b60008151808452611012816020860160208601610fd6565b601f01601f19169290920160200192915050565b6002811061104457634e487b7160e01b600052602160045260246000fd5b9052565b6001600160a01b038b81168252602082018b9052610140604083018190526000916110758483018d610ffa565b9250611084606085018c611026565b60808401999099525060a082019690965260c081019490945291851660e08401529093166101008201526101200191909152949350505050565b6000602082840312156110d057600080fd5b815167ffffffffffffffff8111156110e757600080fd5b8201601f810184136110f857600080fd5b8051611106610d1a82610cd3565b81815285602083850101111561111b57600080fd5b61112c826020830160208601610fd6565b95945050505050565b60008261115257634e487b7160e01b600052601260045260246000fd5b500490565b60ff828116828216039081111561016157610161610e83565b60018060a01b03851681528360208201526080604082015260006111976080830185610ffa565b905061112c6060830184611026565b6001600160a01b03831681526040602082018190526000906111ca90830184610ffa565b94935050505056fea2646970667358221220aad6a4bd596b94d3d87a71cc007e9598a46ba0b5533683209b1befd2a1f60dfc64736f6c634300081500330000000000000000000000004caccfaef18526292e901c1668f23d125ca6c66c000000000000000000000000a809b77718fe9e27e8e4cfe5b801335c4e73437b",
        "nonce": "0x977",
        "accessList": []
      },
      "additionalContracts": [],
      "isFixedGasLimit": false
    },
    {
      "hash": "0xf039298bb6c171e918df26c40774b3bbc4bedde4ec657632cf8aa92ac035845b",
      "transactionType": "CALL",
      "contractName": null,
      "contractAddress": "0x3bA4a434bcc62a7f3B01984981fCAFf6411C4A03",
      "function": null,
      "arguments": null,
      "transaction": {
        "type": "0x02",
        "from": "0x921d360ad22a6d0289ce57fcb8250e299cb19ea3",
        "to": "0x3ba4a434bcc62a7f3b01984981fcaff6411c4a03",
        "gas": "0x2421d",
        "value": "0x0",
        "data": "0x6a761202000000000000000000000000bc39963e3e133382c834a7d1b7f1be2543b655350000000000000000000000000000000000000000000000000000000000000000000000000000000000000000000000000000000000000000000000000000014000000000000000000000000000000000000000000000000000000000000000010000000000000000000000000000000000000000000000000000000000000000000000000000000000000000000000000000000000000000000000000000000000000000000000000000000000000000000000000000000000000000000000000000000000000000000000000000000000000000000000000000000000000000000000000000000000000000000000000000000000000000000000000000000000000000000000000000000000000000000000000000000000000000000001a0000000000000000000000000000000000000000000000000000000000000002466d382030000000000000000000000001c958e22bbf933ed2d4120d225ffe7e10387a853000000000000000000000000000000000000000000000000000000000000000000000000000000000000000000000000000000000000000000000041000000000000000000000000921d360ad22a6d0289ce57fcb8250e299cb19ea300000000000000000000000000000000000000000000000000000000000000000100000000000000000000000000000000000000000000000000000000000000",
        "nonce": "0x978",
        "accessList": []
      },
      "additionalContracts": [],
      "isFixedGasLimit": false
    },
    {
      "hash": "0xdf6c4abddfce16d22e695be23bdaf7e8c63e69f1c9c2848e07273c7cf102f06e",
      "transactionType": "CALL",
      "contractName": "SynthetixSafeModule",
      "contractAddress": "0x1c958E22bBF933Ed2d4120D225FfE7E10387A853",
      "function": "resetSafeSigners(address)",
      "arguments": [
        "0x3bA4a434bcc62a7f3B01984981fCAFf6411C4A03"
      ],
      "transaction": {
        "type": "0x02",
        "from": "0x921d360ad22a6d0289ce57fcb8250e299cb19ea3",
        "to": "0x1c958e22bbf933ed2d4120d225ffe7e10387a853",
        "gas": "0x19013",
        "value": "0x0",
        "data": "0x2e643a120000000000000000000000003ba4a434bcc62a7f3b01984981fcaff6411c4a03",
        "nonce": "0x979",
        "accessList": []
      },
      "additionalContracts": [],
      "isFixedGasLimit": false
    },
    {
      "hash": "0x687ffec7babec98294d1254bb714b9af7b3933e1842856885d4ee9007e8a3b59",
      "transactionType": "CREATE2",
      "contractName": "SynthetixSafeModule",
      "contractAddress": "0x713534E7c834aA0E772E5fC0A05E8E53327e863c",
      "function": null,
      "arguments": null,
      "transaction": {
        "type": "0x02",
        "from": "0x921d360ad22a6d0289ce57fcb8250e299cb19ea3",
        "to": "0x4e59b44847b379578588920ca78fbf26c0b4956c",
        "gas": "0x172ea5",
        "value": "0x0",
        "data": "0x79820d57c64834aacb4b6a364a14d13a9e8ee0faab704ab879e3ad4f34bc6b6e608060405234801561001057600080fd5b506040516112c93803806112c983398101604081905261002f91610078565b600080546001600160a01b039384166001600160a01b031991821617909155600180549290931691161790556100b2565b6001600160a01b038116811461007557600080fd5b50565b6000806040838503121561008b57600080fd5b825161009681610060565b60208401519092506100a781610060565b809150509250929050565b611208806100c16000396000f3fe608060405234801561001057600080fd5b506004361061007d5760003560e01c80636c53db9a1161005b5780636c53db9a146100cd57806375f0bb52146100f8578063932713681461010b578063c27202591461011d57600080fd5b806301ffc9a7146100825780632e643a12146100aa5780633408e470146100bf575b600080fd5b610095610090366004610c16565b610130565b60405190151581526020015b60405180910390f35b6100bd6100b8366004610c5f565b610167565b005b6040514681526020016100a1565b6001546100e0906001600160a01b031681565b6040516001600160a01b0390911681526020016100a1565b6100bd610106366004610d60565b61056c565b6100bd610119366004610e53565b5050565b6000546100e0906001600160a01b031681565b60006001600160e01b0319821663736bd41d60e11b148061016157506001600160e01b031982166301ffc9a760e01b145b92915050565b600080600080610175610a3b565b93509350935093506000818461018b9190610e99565b90506000866001600160a01b031663a0e67e2b6040518163ffffffff1660e01b8152600401600060405180830381865afa1580156101cd573d6000803e3d6000fd5b505050506040513d6000823e601f3d908101601f191682016040526101f59190810190610eac565b905060015b81518110156102b5576102a38863f8dc5dd960e01b8460008151811061022257610222610f5e565b602002602001015185858151811061023c5761023c610f5e565b60209081029190910101516040516001600160a01b03928316602482015291166044820152600160648201526084015b60408051601f198184030181529190526020810180516001600160e01b03166001600160e01b031990931692909217909152610b75565b806102ad81610f74565b9150506101fa565b506000805b85518110156103a657600083511180156103185750826000815181106102e2576102e2610f5e565b60200260200101516001600160a01b031686828151811061030557610305610f5e565b60200260200101516001600160a01b0316145b15610333576040805160008152602081019091529250610394565b61039489630d582f1360e01b88848151811061035157610351610f5e565b60200260200101518561036390610f74565b95508588106103725785610374565b875b6040516001600160a01b039092166024830152604482015260640161026c565b8061039e81610f74565b9150506102ba565b5060005b87518110156104ec57600083511180156104085750826000815181106103d2576103d2610f5e565b60200260200101516001600160a01b03168882815181106103f5576103f5610f5e565b60200260200101516001600160a01b0316145b156104235760408051600081526020810190915292506104da565b886001600160a01b0316632f54bf6e89838151811061044457610444610f5e565b60200260200101516040518263ffffffff1660e01b815260040161047791906001600160a01b0391909116815260200190565b602060405180830381865afa158015610494573d6000803e3d6000fd5b505050506040513d601f19601f820116820180604052508101906104b89190610f8d565b6104da576104da89630d582f1360e01b8a848151811061035157610351610f5e565b806104e481610f74565b9150506103aa565b50815115610562576105628863f8dc5dd960e01b8760008151811061051357610513610f5e565b60200260200101518560008151811061052e5761052e610f5e565b60209081029190910101516040516001600160a01b039283166024820152911660448201526064810187905260840161026c565b5050505050505050565b6060336001600160a01b031663e86637db8d8d8d8d8d8d8d8d8d6001336001600160a01b031663affed0e06040518163ffffffff1660e01b8152600401602060405180830381865afa1580156105c6573d6000803e3d6000fd5b505050506040513d601f19601f820116820180604052508101906105ea9190610faa565b6105f49190610fc3565b6040518b63ffffffff1660e01b81526004016106199a99989796959493929190611048565b600060405180830381865afa158015610636573d6000803e3d6000fd5b505050506040513d6000823e601f3d908101601f1916820160405261065e91908101906110be565b905060008060008061066e610a3b565b929650909450925090506000808080808080805b60418f516106909190611135565b8110156109a7576106ba8f8260419081029190910160208101516040820151919092015160ff1692565b9197509550935060ff86166000036106e55760405163523be13960e01b815260040160405180910390fd5b8560ff166001036106f8578d9150610835565b601e8660ff1611156107cd5760018d8051906020012060405160200161074a91907f19457468657265756d205369676e6564204d6573736167653a0a3332000000008152601c810191909152603c0190565b6040516020818303038152906040528051906020012060048861076d9190611157565b6040805160008152602081018083529390935260ff90911690820152606081018790526080810186905260a0016020604051602081039080840390855afa1580156107bc573d6000803e3d6000fd5b505050602060405103519150610835565b8c516020808f019190912060408051600081529283018082529190915260ff881690820152606081018690526080810185905260019060a0016020604051602081039080840390855afa158015610828573d6000803e3d6000fd5b5050506020604051035191505b826001600160a01b0316826001600160a01b031611158061085d57506001600160a01b038216155b156108a157604051625616a160e91b81526001600160a01b038316600482015260ff8716602482015260448101869052606481018590526084015b60405180910390fd5b8a88101561090d5760005b8c5181101561090b57826001600160a01b03168d82815181106108d1576108d1610f5e565b60200260200101516001600160a01b0316036108f957886108f181610f74565b99505061090b565b8061090381610f74565b9150506108ac565b505b60028a5161091b9190611135565b610926906001610e99565b8710156109915760005b8a5181101561098f57826001600160a01b03168b828151811061095557610955610f5e565b60200260200101516001600160a01b03160361097d578761097581610f74565b98505061098f565b8061098781610f74565b915050610930565b505b819250808061099f90610f74565b915050610682565b50898710156109e757604051635dd4a79360e01b81526a7665746f5369676e65727360a81b6004820152602481018b905260448101889052606401610898565b87861015610a2257604051635dd4a79360e01b81526618dbdd5b98da5b60ca1b60048201526024810189905260448101879052606401610898565b5050505050505050505050505050505050505050505050565b60606000606060008060009054906101000a90046001600160a01b03166001600160a01b031663606a6b766040518163ffffffff1660e01b8152600401600060405180830381865afa158015610a95573d6000803e3d6000fd5b505050506040513d6000823e601f3d908101601f19168201604052610abd9190810190610eac565b9350600160009054906101000a90046001600160a01b03166001600160a01b031663a0e67e2b6040518163ffffffff1660e01b8152600401600060405180830381865afa158015610b12573d6000803e3d6000fd5b505050506040513d6000823e601f3d908101601f19168201604052610b3a9190810190610eac565b91508351600014610b4c576001610b4f565b60005b60ff16925060028251610b629190611135565b610b6d906001610e99565b905090919293565b60405163468721a760e01b81526000906001600160a01b0384169063468721a790610baa908690859087908290600401611170565b6020604051808303816000875af1158015610bc9573d6000803e3d6000fd5b505050506040513d601f19601f82011682018060405250810190610bed9190610f8d565b905080610c1157828260405163039126f960e11b81526004016108989291906111a6565b505050565b600060208284031215610c2857600080fd5b81356001600160e01b031981168114610c4057600080fd5b9392505050565b6001600160a01b0381168114610c5c57600080fd5b50565b600060208284031215610c7157600080fd5b8135610c4081610c47565b8035610c8781610c47565b919050565b634e487b7160e01b600052604160045260246000fd5b604051601f8201601f1916810167ffffffffffffffff81118282101715610ccb57610ccb610c8c565b604052919050565b600067ffffffffffffffff821115610ced57610ced610c8c565b50601f01601f191660200190565b600082601f830112610d0c57600080fd5b8135610d1f610d1a82610cd3565b610ca2565b818152846020838601011115610d3457600080fd5b816020850160208301376000918101602001919091529392505050565b803560028110610c8757600080fd5b60008060008060008060008060008060006101608c8e031215610d8257600080fd5b610d8b8c610c7c565b9a5060208c0135995067ffffffffffffffff8060408e01351115610dae57600080fd5b610dbe8e60408f01358f01610cfb565b9950610dcc60608e01610d51565b985060808d0135975060a08d0135965060c08d01359550610def60e08e01610c7c565b9450610dfe6101008e01610c7c565b9350806101208e01351115610e1257600080fd5b50610e248d6101208e01358e01610cfb565b9150610e336101408d01610c7c565b90509295989b509295989b9093969950565b8015158114610c5c57600080fd5b60008060408385031215610e6657600080fd5b823591506020830135610e7881610e45565b809150509250929050565b634e487b7160e01b600052601160045260246000fd5b8082018082111561016157610161610e83565b60006020808385031215610ebf57600080fd5b825167ffffffffffffffff80821115610ed757600080fd5b818501915085601f830112610eeb57600080fd5b815181811115610efd57610efd610c8c565b8060051b9150610f0e848301610ca2565b8181529183018401918481019088841115610f2857600080fd5b938501935b83851015610f525784519250610f4283610c47565b8282529385019390850190610f2d565b98975050505050505050565b634e487b7160e01b600052603260045260246000fd5b600060018201610f8657610f86610e83565b5060010190565b600060208284031215610f9f57600080fd5b8151610c4081610e45565b600060208284031215610fbc57600080fd5b5051919050565b8181038181111561016157610161610e83565b60005b83811015610ff1578181015183820152602001610fd9565b50506000910152565b60008151808452611012816020860160208601610fd6565b601f01601f19169290920160200192915050565b6002811061104457634e487b7160e01b600052602160045260246000fd5b9052565b6001600160a01b038b81168252602082018b9052610140604083018190526000916110758483018d610ffa565b9250611084606085018c611026565b60808401999099525060a082019690965260c081019490945291851660e08401529093166101008201526101200191909152949350505050565b6000602082840312156110d057600080fd5b815167ffffffffffffffff8111156110e757600080fd5b8201601f810184136110f857600080fd5b8051611106610d1a82610cd3565b81815285602083850101111561111b57600080fd5b61112c826020830160208601610fd6565b95945050505050565b60008261115257634e487b7160e01b600052601260045260246000fd5b500490565b60ff828116828216039081111561016157610161610e83565b60018060a01b03851681528360208201526080604082015260006111976080830185610ffa565b905061112c6060830184611026565b6001600160a01b03831681526040602082018190526000906111ca90830184610ffa565b94935050505056fea2646970667358221220aad6a4bd596b94d3d87a71cc007e9598a46ba0b5533683209b1befd2a1f60dfc64736f6c634300081500330000000000000000000000007908b77683a6b59562ffaf9d9f13728d525710ec0000000000000000000000003ba4a434bcc62a7f3b01984981fcaff6411c4a03",
        "nonce": "0x97a",
        "accessList": []
      },
      "additionalContracts": [],
      "isFixedGasLimit": false
    },
    {
      "hash": "0x84ffefcaf5f71ebd62d84ccf204d8e6c7a00d46dc6fa4e7080577dc8e5085acc",
      "transactionType": "CALL",
      "contractName": null,
      "contractAddress": "0xc21cBd97e46dE91bE7A659f4f6a0F5866C538eFD",
      "function": null,
      "arguments": null,
      "transaction": {
        "type": "0x02",
        "from": "0x921d360ad22a6d0289ce57fcb8250e299cb19ea3",
        "to": "0xc21cbd97e46de91be7a659f4f6a0f5866c538efd",
        "gas": "0x2421d",
        "value": "0x0",
        "data": "0x6a761202000000000000000000000000bc39963e3e133382c834a7d1b7f1be2543b655350000000000000000000000000000000000000000000000000000000000000000000000000000000000000000000000000000000000000000000000000000014000000000000000000000000000000000000000000000000000000000000000010000000000000000000000000000000000000000000000000000000000000000000000000000000000000000000000000000000000000000000000000000000000000000000000000000000000000000000000000000000000000000000000000000000000000000000000000000000000000000000000000000000000000000000000000000000000000000000000000000000000000000000000000000000000000000000000000000000000000000000000000000000000000000000001a0000000000000000000000000000000000000000000000000000000000000002466d38203000000000000000000000000713534e7c834aa0e772e5fc0a05e8e53327e863c000000000000000000000000000000000000000000000000000000000000000000000000000000000000000000000000000000000000000000000041000000000000000000000000921d360ad22a6d0289ce57fcb8250e299cb19ea300000000000000000000000000000000000000000000000000000000000000000100000000000000000000000000000000000000000000000000000000000000",
        "nonce": "0x97b",
        "accessList": []
      },
      "additionalContracts": [],
      "isFixedGasLimit": false
    },
    {
      "hash": "0x79bd0455b33649e4b9d7530194742fffd79214eb12ab2930fd26e58440ba24d8",
      "transactionType": "CALL",
      "contractName": "SynthetixSafeModule",
      "contractAddress": "0x713534E7c834aA0E772E5fC0A05E8E53327e863c",
      "function": "resetSafeSigners(address)",
      "arguments": [
        "0xc21cBd97e46dE91bE7A659f4f6a0F5866C538eFD"
      ],
      "transaction": {
        "type": "0x02",
        "from": "0x921d360ad22a6d0289ce57fcb8250e299cb19ea3",
        "to": "0x713534e7c834aa0e772e5fc0a05e8e53327e863c",
        "gas": "0x1402a",
        "value": "0x0",
        "data": "0x2e643a12000000000000000000000000c21cbd97e46de91be7a659f4f6a0f5866c538efd",
        "nonce": "0x97c",
        "accessList": []
      },
      "additionalContracts": [],
      "isFixedGasLimit": false
    }
  ],
  "receipts": [
    {
      "transactionHash": "0xb0be6f932c41d357e0cae8336a1842aeadcda5086cf7034b250c1e4880b87da8",
      "transactionIndex": "0x0",
      "blockHash": "0x16933e7d73455def0feb4cf35ffa3f81f9a3d35de00951f75ee2cdd3c8875de9",
      "blockNumber": "0x962b05",
      "from": "0x921d360aD22A6D0289ce57fcb8250e299cB19EA3",
      "to": "0x4e59b44847b379578588920cA78FbF26c0B4956C",
      "cumulativeGasUsed": "0x12371d",
      "gasUsed": "0x12371d",
      "contractAddress": null,
      "logs": [],
      "status": "0x1",
      "logsBloom": "0x00000000000000000000000000000000000000000000000000000000000000000000000000000000000000000000000000000000000000000000000000000000000000000000000000000000000000000000000000000000000000000000000000000000000000000000000000000000000000000000000000000000000000000000000000000000000000000000000000000000000000000000000000000000000000000000000000000000000000000000000000000000000000000000000000000000000000000000000000000000000000000000000000000000000000000000000000000000000000000000000000000000000000000000000000000000",
      "type": "0x2",
      "effectiveGasPrice": "0xb2d05e09"
    },
    {
      "transactionHash": "0xdcd3213d8df3d0780d2c846c18a0dfa6f10fff55b7d8cc71e3679cbb39e29802",
      "transactionIndex": "0x1",
      "blockHash": "0x16933e7d73455def0feb4cf35ffa3f81f9a3d35de00951f75ee2cdd3c8875de9",
      "blockNumber": "0x962b05",
      "from": "0x921d360aD22A6D0289ce57fcb8250e299cB19EA3",
      "to": "0x644F20Beb994473bc6E8BDc23D7AC0C2bA1EFFc7",
      "cumulativeGasUsed": "0x13c268",
      "gasUsed": "0x18b4b",
      "contractAddress": null,
      "logs": [
        {
          "address": "0x644F20Beb994473bc6E8BDc23D7AC0C2bA1EFFc7",
          "topics": [
            "0xecdf3a3effea5783a3c4c2140e677577666428d44ed9d474a0b3a4c9943f8440"
          ],
          "data": "0x000000000000000000000000ff902740cb47c70e69aee9f5402d13f3b5f1edb0",
          "blockHash": "0x16933e7d73455def0feb4cf35ffa3f81f9a3d35de00951f75ee2cdd3c8875de9",
          "blockNumber": "0x962b05",
          "transactionHash": "0xdcd3213d8df3d0780d2c846c18a0dfa6f10fff55b7d8cc71e3679cbb39e29802",
          "transactionIndex": "0x1",
          "logIndex": "0x0",
          "removed": false
        },
        {
          "address": "0x644F20Beb994473bc6E8BDc23D7AC0C2bA1EFFc7",
          "topics": [
            "0x1151116914515bc0891ff9047a6cb32cf902546f83066499bcf8ba33d2353fa2"
          ],
          "data": "0x000000000000000000000000ff902740cb47c70e69aee9f5402d13f3b5f1edb0",
          "blockHash": "0x16933e7d73455def0feb4cf35ffa3f81f9a3d35de00951f75ee2cdd3c8875de9",
          "blockNumber": "0x962b05",
          "transactionHash": "0xdcd3213d8df3d0780d2c846c18a0dfa6f10fff55b7d8cc71e3679cbb39e29802",
          "transactionIndex": "0x1",
          "logIndex": "0x1",
          "removed": false
        },
        {
          "address": "0x644F20Beb994473bc6E8BDc23D7AC0C2bA1EFFc7",
          "topics": [
            "0x442e715f626346e8c54381002da614f62bee8d27386535b2521ec8540898556e"
          ],
          "data": "0xa48e67d5366b05299af23809c7480c3273f4c111329d2162fbfa640504933c570000000000000000000000000000000000000000000000000000000000000000",
          "blockHash": "0x16933e7d73455def0feb4cf35ffa3f81f9a3d35de00951f75ee2cdd3c8875de9",
          "blockNumber": "0x962b05",
          "transactionHash": "0xdcd3213d8df3d0780d2c846c18a0dfa6f10fff55b7d8cc71e3679cbb39e29802",
          "transactionIndex": "0x1",
          "logIndex": "0x2",
          "removed": false
        }
      ],
      "status": "0x1",
      "logsBloom": "0x00000000400000000000000000000000800000000000000000000000040000000000000000000000000000000000000000001000000000000000000000000000000000000020000000000000000000000000000000000000004000000000000000000000000000002000000000000000000000000000000000000000000000000000010000000000000000000000000000000000000000000000000000000000000000000000800000000000000004000000000008000000000000000000000000000000000000000000000000000000000000000000000000000000000000000000000000000000002000000000000000000000000000000000000000000000",
      "type": "0x2",
      "effectiveGasPrice": "0xb2d05e09"
    },
    {
      "transactionHash": "0x72ae7c2cdf75e96a6ba48120a221f16071f13fa9241fa6afa9f755692ab91ab5",
      "transactionIndex": "0x2",
      "blockHash": "0x16933e7d73455def0feb4cf35ffa3f81f9a3d35de00951f75ee2cdd3c8875de9",
      "blockNumber": "0x962b05",
      "from": "0x921d360aD22A6D0289ce57fcb8250e299cB19EA3",
      "to": "0xff902740Cb47C70E69aEE9f5402D13f3b5f1EDB0",
      "cumulativeGasUsed": "0x1781ca",
      "gasUsed": "0x3bf62",
      "contractAddress": null,
      "logs": [
        {
          "address": "0x644F20Beb994473bc6E8BDc23D7AC0C2bA1EFFc7",
          "topics": [
            "0x9465fa0c962cc76958e6373a993326400c1c94f8be2fe3a952adfa7f60b2ea26"
          ],
          "data": "0x000000000000000000000000ba4bb4e7102229d0f288f04bea3ea7e61c9c2ab6",
          "blockHash": "0x16933e7d73455def0feb4cf35ffa3f81f9a3d35de00951f75ee2cdd3c8875de9",
          "blockNumber": "0x962b05",
          "transactionHash": "0x72ae7c2cdf75e96a6ba48120a221f16071f13fa9241fa6afa9f755692ab91ab5",
          "transactionIndex": "0x2",
          "logIndex": "0x3",
          "removed": false
        },
        {
          "address": "0x644F20Beb994473bc6E8BDc23D7AC0C2bA1EFFc7",
          "topics": [
            "0x6895c13664aa4f67288b25d7a21d7aaa34916e355fb9b6fae0a139a9085becb8",
            "0x000000000000000000000000ff902740cb47c70e69aee9f5402d13f3b5f1edb0"
          ],
          "data": "0x",
          "blockHash": "0x16933e7d73455def0feb4cf35ffa3f81f9a3d35de00951f75ee2cdd3c8875de9",
          "blockNumber": "0x962b05",
          "transactionHash": "0x72ae7c2cdf75e96a6ba48120a221f16071f13fa9241fa6afa9f755692ab91ab5",
          "transactionIndex": "0x2",
          "logIndex": "0x4",
          "removed": false
        },
        {
          "address": "0x644F20Beb994473bc6E8BDc23D7AC0C2bA1EFFc7",
          "topics": [
            "0x9465fa0c962cc76958e6373a993326400c1c94f8be2fe3a952adfa7f60b2ea26"
          ],
          "data": "0x000000000000000000000000003adee9f572ba3b9091f2ed0400040bcb3a7244",
          "blockHash": "0x16933e7d73455def0feb4cf35ffa3f81f9a3d35de00951f75ee2cdd3c8875de9",
          "blockNumber": "0x962b05",
          "transactionHash": "0x72ae7c2cdf75e96a6ba48120a221f16071f13fa9241fa6afa9f755692ab91ab5",
          "transactionIndex": "0x2",
          "logIndex": "0x5",
          "removed": false
        },
        {
          "address": "0x644F20Beb994473bc6E8BDc23D7AC0C2bA1EFFc7",
          "topics": [
            "0x610f7ff2b304ae8903c3de74c60c6ab1f7d6226b3f52c5161905bb5ad4039c93"
          ],
          "data": "0x0000000000000000000000000000000000000000000000000000000000000002",
          "blockHash": "0x16933e7d73455def0feb4cf35ffa3f81f9a3d35de00951f75ee2cdd3c8875de9",
          "blockNumber": "0x962b05",
          "transactionHash": "0x72ae7c2cdf75e96a6ba48120a221f16071f13fa9241fa6afa9f755692ab91ab5",
          "transactionIndex": "0x2",
          "logIndex": "0x6",
          "removed": false
        },
        {
          "address": "0x644F20Beb994473bc6E8BDc23D7AC0C2bA1EFFc7",
          "topics": [
            "0x6895c13664aa4f67288b25d7a21d7aaa34916e355fb9b6fae0a139a9085becb8",
            "0x000000000000000000000000ff902740cb47c70e69aee9f5402d13f3b5f1edb0"
          ],
          "data": "0x",
          "blockHash": "0x16933e7d73455def0feb4cf35ffa3f81f9a3d35de00951f75ee2cdd3c8875de9",
          "blockNumber": "0x962b05",
          "transactionHash": "0x72ae7c2cdf75e96a6ba48120a221f16071f13fa9241fa6afa9f755692ab91ab5",
          "transactionIndex": "0x2",
          "logIndex": "0x7",
          "removed": false
        },
        {
          "address": "0x644F20Beb994473bc6E8BDc23D7AC0C2bA1EFFc7",
          "topics": [
            "0x9465fa0c962cc76958e6373a993326400c1c94f8be2fe3a952adfa7f60b2ea26"
          ],
          "data": "0x000000000000000000000000ccf10b8ff96579beefb2a75f674181e86d3c507e",
          "blockHash": "0x16933e7d73455def0feb4cf35ffa3f81f9a3d35de00951f75ee2cdd3c8875de9",
          "blockNumber": "0x962b05",
          "transactionHash": "0x72ae7c2cdf75e96a6ba48120a221f16071f13fa9241fa6afa9f755692ab91ab5",
          "transactionIndex": "0x2",
          "logIndex": "0x8",
          "removed": false
        },
        {
          "address": "0x644F20Beb994473bc6E8BDc23D7AC0C2bA1EFFc7",
          "topics": [
            "0x610f7ff2b304ae8903c3de74c60c6ab1f7d6226b3f52c5161905bb5ad4039c93"
          ],
          "data": "0x0000000000000000000000000000000000000000000000000000000000000003",
          "blockHash": "0x16933e7d73455def0feb4cf35ffa3f81f9a3d35de00951f75ee2cdd3c8875de9",
          "blockNumber": "0x962b05",
          "transactionHash": "0x72ae7c2cdf75e96a6ba48120a221f16071f13fa9241fa6afa9f755692ab91ab5",
          "transactionIndex": "0x2",
          "logIndex": "0x9",
          "removed": false
        },
        {
          "address": "0x644F20Beb994473bc6E8BDc23D7AC0C2bA1EFFc7",
          "topics": [
            "0x6895c13664aa4f67288b25d7a21d7aaa34916e355fb9b6fae0a139a9085becb8",
            "0x000000000000000000000000ff902740cb47c70e69aee9f5402d13f3b5f1edb0"
          ],
          "data": "0x",
          "blockHash": "0x16933e7d73455def0feb4cf35ffa3f81f9a3d35de00951f75ee2cdd3c8875de9",
          "blockNumber": "0x962b05",
          "transactionHash": "0x72ae7c2cdf75e96a6ba48120a221f16071f13fa9241fa6afa9f755692ab91ab5",
          "transactionIndex": "0x2",
          "logIndex": "0xa",
          "removed": false
        },
        {
          "address": "0x644F20Beb994473bc6E8BDc23D7AC0C2bA1EFFc7",
          "topics": [
            "0x9465fa0c962cc76958e6373a993326400c1c94f8be2fe3a952adfa7f60b2ea26"
          ],
          "data": "0x000000000000000000000000dfddde062a9ce719931dfea3b618d192f3c3aabe",
          "blockHash": "0x16933e7d73455def0feb4cf35ffa3f81f9a3d35de00951f75ee2cdd3c8875de9",
          "blockNumber": "0x962b05",
          "transactionHash": "0x72ae7c2cdf75e96a6ba48120a221f16071f13fa9241fa6afa9f755692ab91ab5",
          "transactionIndex": "0x2",
          "logIndex": "0xb",
          "removed": false
        },
        {
          "address": "0x644F20Beb994473bc6E8BDc23D7AC0C2bA1EFFc7",
          "topics": [
            "0x6895c13664aa4f67288b25d7a21d7aaa34916e355fb9b6fae0a139a9085becb8",
            "0x000000000000000000000000ff902740cb47c70e69aee9f5402d13f3b5f1edb0"
          ],
          "data": "0x",
          "blockHash": "0x16933e7d73455def0feb4cf35ffa3f81f9a3d35de00951f75ee2cdd3c8875de9",
          "blockNumber": "0x962b05",
          "transactionHash": "0x72ae7c2cdf75e96a6ba48120a221f16071f13fa9241fa6afa9f755692ab91ab5",
          "transactionIndex": "0x2",
          "logIndex": "0xc",
          "removed": false
        },
        {
          "address": "0x644F20Beb994473bc6E8BDc23D7AC0C2bA1EFFc7",
          "topics": [
            "0x9465fa0c962cc76958e6373a993326400c1c94f8be2fe3a952adfa7f60b2ea26"
          ],
          "data": "0x0000000000000000000000001be960932cbc08f29cf70349c0a0547c75a297bc",
          "blockHash": "0x16933e7d73455def0feb4cf35ffa3f81f9a3d35de00951f75ee2cdd3c8875de9",
          "blockNumber": "0x962b05",
          "transactionHash": "0x72ae7c2cdf75e96a6ba48120a221f16071f13fa9241fa6afa9f755692ab91ab5",
          "transactionIndex": "0x2",
          "logIndex": "0xd",
          "removed": false
        },
        {
          "address": "0x644F20Beb994473bc6E8BDc23D7AC0C2bA1EFFc7",
          "topics": [
            "0x6895c13664aa4f67288b25d7a21d7aaa34916e355fb9b6fae0a139a9085becb8",
            "0x000000000000000000000000ff902740cb47c70e69aee9f5402d13f3b5f1edb0"
          ],
          "data": "0x",
          "blockHash": "0x16933e7d73455def0feb4cf35ffa3f81f9a3d35de00951f75ee2cdd3c8875de9",
          "blockNumber": "0x962b05",
          "transactionHash": "0x72ae7c2cdf75e96a6ba48120a221f16071f13fa9241fa6afa9f755692ab91ab5",
          "transactionIndex": "0x2",
          "logIndex": "0xe",
          "removed": false
        },
        {
          "address": "0x644F20Beb994473bc6E8BDc23D7AC0C2bA1EFFc7",
          "topics": [
            "0xf8d49fc529812e9a7c5c50e69c20f0dccc0db8fa95c98bc58cc9a4f1c1299eaf"
          ],
          "data": "0x000000000000000000000000921d360ad22a6d0289ce57fcb8250e299cb19ea3",
          "blockHash": "0x16933e7d73455def0feb4cf35ffa3f81f9a3d35de00951f75ee2cdd3c8875de9",
          "blockNumber": "0x962b05",
          "transactionHash": "0x72ae7c2cdf75e96a6ba48120a221f16071f13fa9241fa6afa9f755692ab91ab5",
          "transactionIndex": "0x2",
          "logIndex": "0xf",
          "removed": false
        },
        {
          "address": "0x644F20Beb994473bc6E8BDc23D7AC0C2bA1EFFc7",
          "topics": [
            "0x6895c13664aa4f67288b25d7a21d7aaa34916e355fb9b6fae0a139a9085becb8",
            "0x000000000000000000000000ff902740cb47c70e69aee9f5402d13f3b5f1edb0"
          ],
          "data": "0x",
          "blockHash": "0x16933e7d73455def0feb4cf35ffa3f81f9a3d35de00951f75ee2cdd3c8875de9",
          "blockNumber": "0x962b05",
          "transactionHash": "0x72ae7c2cdf75e96a6ba48120a221f16071f13fa9241fa6afa9f755692ab91ab5",
          "transactionIndex": "0x2",
          "logIndex": "0x10",
          "removed": false
        }
      ],
      "status": "0x1",
      "logsBloom": "0x00000000000010000000000000000000000000000080000000000000000000000000000000000000000000000000000000001000000000000000000000000000000000020000000000000000000000000000000000000000000000000000000000000000000000012000000000000000000000000000000000020004000000000000000000040000000000000000000000000000000000000000000000000000000000000000000000001000000000000200000008000000000000000000000000000000400000000000000000000000000000000000000000000000000040000000000000400000200000000000000200008000000000000000000000000000",
      "type": "0x2",
      "effectiveGasPrice": "0xb2d05e09"
    },
    {
      "transactionHash": "0xf0edb14c3708fe791f650c1349029baa706c2237f11f407be3361f2d8dd3b26f",
      "transactionIndex": "0x3",
      "blockHash": "0x16933e7d73455def0feb4cf35ffa3f81f9a3d35de00951f75ee2cdd3c8875de9",
      "blockNumber": "0x962b05",
      "from": "0x921d360aD22A6D0289ce57fcb8250e299cB19EA3",
      "to": "0x4e59b44847b379578588920cA78FbF26c0B4956C",
      "cumulativeGasUsed": "0x284b90",
      "gasUsed": "0x10c9c6",
      "contractAddress": null,
      "logs": [],
      "status": "0x1",
      "logsBloom": "0x00000000000000000000000000000000000000000000000000000000000000000000000000000000000000000000000000000000000000000000000000000000000000000000000000000000000000000000000000000000000000000000000000000000000000000000000000000000000000000000000000000000000000000000000000000000000000000000000000000000000000000000000000000000000000000000000000000000000000000000000000000000000000000000000000000000000000000000000000000000000000000000000000000000000000000000000000000000000000000000000000000000000000000000000000000000",
      "type": "0x2",
      "effectiveGasPrice": "0xb2d05e09"
    },
    {
      "transactionHash": "0xe33327161a24ef5c490da8c5e2a7a5b6eae4b50f3a5ace9569f86ae94970eae3",
      "transactionIndex": "0x4",
      "blockHash": "0x16933e7d73455def0feb4cf35ffa3f81f9a3d35de00951f75ee2cdd3c8875de9",
      "blockNumber": "0x962b05",
      "from": "0x921d360aD22A6D0289ce57fcb8250e299cB19EA3",
      "to": "0x464F1AA70c985bef8b60C32fac564110f7542E8c",
      "cumulativeGasUsed": "0x2a19a7",
      "gasUsed": "0x1ce17",
      "contractAddress": null,
      "logs": [
        {
          "address": "0x464F1AA70c985bef8b60C32fac564110f7542E8c",
          "topics": [
            "0xecdf3a3effea5783a3c4c2140e677577666428d44ed9d474a0b3a4c9943f8440"
          ],
          "data": "0x00000000000000000000000013f10bbc8124754a8995fbfbd5535209e82398da",
          "blockHash": "0x16933e7d73455def0feb4cf35ffa3f81f9a3d35de00951f75ee2cdd3c8875de9",
          "blockNumber": "0x962b05",
          "transactionHash": "0xe33327161a24ef5c490da8c5e2a7a5b6eae4b50f3a5ace9569f86ae94970eae3",
          "transactionIndex": "0x4",
          "logIndex": "0x11",
          "removed": false
        },
        {
          "address": "0x464F1AA70c985bef8b60C32fac564110f7542E8c",
          "topics": [
            "0x1151116914515bc0891ff9047a6cb32cf902546f83066499bcf8ba33d2353fa2"
          ],
          "data": "0x00000000000000000000000013f10bbc8124754a8995fbfbd5535209e82398da",
          "blockHash": "0x16933e7d73455def0feb4cf35ffa3f81f9a3d35de00951f75ee2cdd3c8875de9",
          "blockNumber": "0x962b05",
          "transactionHash": "0xe33327161a24ef5c490da8c5e2a7a5b6eae4b50f3a5ace9569f86ae94970eae3",
          "transactionIndex": "0x4",
          "logIndex": "0x12",
          "removed": false
        },
        {
          "address": "0x464F1AA70c985bef8b60C32fac564110f7542E8c",
          "topics": [
            "0x442e715f626346e8c54381002da614f62bee8d27386535b2521ec8540898556e"
          ],
          "data": "0x5ddf03cb3ba0887e0155af13bf237d9bfc2acc5f66a2f8b150bd3def2b1ef1360000000000000000000000000000000000000000000000000000000000000000",
          "blockHash": "0x16933e7d73455def0feb4cf35ffa3f81f9a3d35de00951f75ee2cdd3c8875de9",
          "blockNumber": "0x962b05",
          "transactionHash": "0xe33327161a24ef5c490da8c5e2a7a5b6eae4b50f3a5ace9569f86ae94970eae3",
          "transactionIndex": "0x4",
          "logIndex": "0x13",
          "removed": false
        }
      ],
      "status": "0x1",
      "logsBloom": "0x00000000400000000000000000000000800000000000000000000000040000000000000040000000080000000000000000000000000000000000000000000000000000000020000000000000000000000000000000000000004000000000000000000000000000000000000000000000000000000000000000000000000000000000010000000000000000000000000000000000000000000000000000000000000000000002800000000000000004000000000000000000000000000000000000000000000000000000000000000000000000000000000000000000000000000000000000000000002000000000000000000000000000000000000000000000",
      "type": "0x2",
      "effectiveGasPrice": "0xb2d05e09"
    },
    {
      "transactionHash": "0x4ccfd713fd866310f1bc27652d142d4d9fcf4a44044e44f1aed9ffa01e8ae9a4",
      "transactionIndex": "0x0",
      "blockHash": "0x186ce98809378219329424d7fc4085de31635c109e54dfca509ce43c91d21a38",
      "blockNumber": "0x962b06",
      "from": "0x921d360aD22A6D0289ce57fcb8250e299cB19EA3",
      "to": "0x13F10bBc8124754A8995FbFBd5535209E82398da",
      "cumulativeGasUsed": "0xf5c2",
      "gasUsed": "0xf5c2",
      "contractAddress": null,
      "logs": [],
      "status": "0x1",
      "logsBloom": "0x00000000000000000000000000000000000000000000000000000000000000000000000000000000000000000000000000000000000000000000000000000000000000000000000000000000000000000000000000000000000000000000000000000000000000000000000000000000000000000000000000000000000000000000000000000000000000000000000000000000000000000000000000000000000000000000000000000000000000000000000000000000000000000000000000000000000000000000000000000000000000000000000000000000000000000000000000000000000000000000000000000000000000000000000000000000",
      "type": "0x2",
      "effectiveGasPrice": "0xb2d05e09"
    },
    {
      "transactionHash": "0x26b24612b25a41fb14d4d0079798df45d6fdf6507f5a7c3a2512428bf0f5d834",
      "transactionIndex": "0x1",
      "blockHash": "0x186ce98809378219329424d7fc4085de31635c109e54dfca509ce43c91d21a38",
      "blockNumber": "0x962b06",
      "from": "0x921d360aD22A6D0289ce57fcb8250e299cB19EA3",
      "to": "0x4e59b44847b379578588920cA78FbF26c0B4956C",
      "cumulativeGasUsed": "0x11bf88",
      "gasUsed": "0x10c9c6",
      "contractAddress": null,
      "logs": [],
      "status": "0x1",
      "logsBloom": "0x00000000000000000000000000000000000000000000000000000000000000000000000000000000000000000000000000000000000000000000000000000000000000000000000000000000000000000000000000000000000000000000000000000000000000000000000000000000000000000000000000000000000000000000000000000000000000000000000000000000000000000000000000000000000000000000000000000000000000000000000000000000000000000000000000000000000000000000000000000000000000000000000000000000000000000000000000000000000000000000000000000000000000000000000000000000",
      "type": "0x2",
      "effectiveGasPrice": "0xb2d05e09"
    },
    {
      "transactionHash": "0x47a33423d792ec599eb1ab5a16be2cc14034ca28d4d2b313d65b0cfe23aabf77",
      "transactionIndex": "0x2",
      "blockHash": "0x186ce98809378219329424d7fc4085de31635c109e54dfca509ce43c91d21a38",
      "blockNumber": "0x962b06",
      "from": "0x921d360aD22A6D0289ce57fcb8250e299cB19EA3",
      "to": "0xD5CB13348F3e33B964D5eAe1E18C276748e79A97",
      "cumulativeGasUsed": "0x138d9f",
      "gasUsed": "0x1ce17",
      "contractAddress": null,
      "logs": [
        {
          "address": "0xD5CB13348F3e33B964D5eAe1E18C276748e79A97",
          "topics": [
            "0xecdf3a3effea5783a3c4c2140e677577666428d44ed9d474a0b3a4c9943f8440"
          ],
          "data": "0x000000000000000000000000412ce3b57490051c27a1d262a381509dfb664a2b",
          "blockHash": "0x186ce98809378219329424d7fc4085de31635c109e54dfca509ce43c91d21a38",
          "blockNumber": "0x962b06",
          "transactionHash": "0x47a33423d792ec599eb1ab5a16be2cc14034ca28d4d2b313d65b0cfe23aabf77",
          "transactionIndex": "0x2",
          "logIndex": "0x0",
          "removed": false
        },
        {
          "address": "0xD5CB13348F3e33B964D5eAe1E18C276748e79A97",
          "topics": [
            "0x1151116914515bc0891ff9047a6cb32cf902546f83066499bcf8ba33d2353fa2"
          ],
          "data": "0x000000000000000000000000412ce3b57490051c27a1d262a381509dfb664a2b",
          "blockHash": "0x186ce98809378219329424d7fc4085de31635c109e54dfca509ce43c91d21a38",
          "blockNumber": "0x962b06",
          "transactionHash": "0x47a33423d792ec599eb1ab5a16be2cc14034ca28d4d2b313d65b0cfe23aabf77",
          "transactionIndex": "0x2",
          "logIndex": "0x1",
          "removed": false
        },
        {
          "address": "0xD5CB13348F3e33B964D5eAe1E18C276748e79A97",
          "topics": [
            "0x442e715f626346e8c54381002da614f62bee8d27386535b2521ec8540898556e"
          ],
          "data": "0xf554f5c5b83661ef646285b9276eb9d2c569f3d27df8072eef92efccc01a896f0000000000000000000000000000000000000000000000000000000000000000",
          "blockHash": "0x186ce98809378219329424d7fc4085de31635c109e54dfca509ce43c91d21a38",
          "blockNumber": "0x962b06",
          "transactionHash": "0x47a33423d792ec599eb1ab5a16be2cc14034ca28d4d2b313d65b0cfe23aabf77",
          "transactionIndex": "0x2",
          "logIndex": "0x2",
          "removed": false
        }
      ],
      "status": "0x1",
      "logsBloom": "0x00000000400000000000000000000000800000000000000000000000040000000000000000000000000000000000000000000000000000000000000000000000000000000020000000000000000000000000000000000000004000000000000000000000000000000000000000000000000000000000000000000000200000000000010010000000000000000000000000000000000000000000000000000000000000000000800000000000001004000000000000000000000000000000000000000000000000000000000000000000000000000000000000000000000000000000000000000000002000000000000000000000000000000000000000000000",
      "type": "0x2",
      "effectiveGasPrice": "0xb2d05e09"
    },
    {
      "transactionHash": "0x15fdb2b0d74593cf7e1d4618c010478ab34c8360913431d46a1bb337cc5cc85f",
      "transactionIndex": "0x3",
      "blockHash": "0x186ce98809378219329424d7fc4085de31635c109e54dfca509ce43c91d21a38",
      "blockNumber": "0x962b06",
      "from": "0x921d360aD22A6D0289ce57fcb8250e299cB19EA3",
      "to": "0x412cE3b57490051C27A1d262a381509dFb664a2B",
      "cumulativeGasUsed": "0x14af45",
      "gasUsed": "0x121a6",
      "contractAddress": null,
      "logs": [],
      "status": "0x1",
      "logsBloom": "0x00000000000000000000000000000000000000000000000000000000000000000000000000000000000000000000000000000000000000000000000000000000000000000000000000000000000000000000000000000000000000000000000000000000000000000000000000000000000000000000000000000000000000000000000000000000000000000000000000000000000000000000000000000000000000000000000000000000000000000000000000000000000000000000000000000000000000000000000000000000000000000000000000000000000000000000000000000000000000000000000000000000000000000000000000000000",
      "type": "0x2",
      "effectiveGasPrice": "0xb2d05e09"
    },
    {
      "transactionHash": "0xe6669322907c32f5cca2ce46ff981397f56f3222112cc5abcd22be64ebe82b46",
      "transactionIndex": "0x4",
      "blockHash": "0x186ce98809378219329424d7fc4085de31635c109e54dfca509ce43c91d21a38",
      "blockNumber": "0x962b06",
      "from": "0x921d360aD22A6D0289ce57fcb8250e299cB19EA3",
      "to": "0x4e59b44847b379578588920cA78FbF26c0B4956C",
      "cumulativeGasUsed": "0x25790b",
      "gasUsed": "0x10c9c6",
      "contractAddress": null,
      "logs": [],
      "status": "0x1",
      "logsBloom": "0x00000000000000000000000000000000000000000000000000000000000000000000000000000000000000000000000000000000000000000000000000000000000000000000000000000000000000000000000000000000000000000000000000000000000000000000000000000000000000000000000000000000000000000000000000000000000000000000000000000000000000000000000000000000000000000000000000000000000000000000000000000000000000000000000000000000000000000000000000000000000000000000000000000000000000000000000000000000000000000000000000000000000000000000000000000000",
      "type": "0x2",
      "effectiveGasPrice": "0xb2d05e09"
    },
    {
      "transactionHash": "0xfe3d34ad6b8733588f9fec643214f8d0293cd7606989ceac813964e353b05fef",
      "transactionIndex": "0x5",
      "blockHash": "0x186ce98809378219329424d7fc4085de31635c109e54dfca509ce43c91d21a38",
      "blockNumber": "0x962b06",
      "from": "0x921d360aD22A6D0289ce57fcb8250e299cB19EA3",
      "to": "0xA809b77718fe9e27E8E4cfE5B801335C4E73437B",
      "cumulativeGasUsed": "0x274722",
      "gasUsed": "0x1ce17",
      "contractAddress": null,
      "logs": [
        {
          "address": "0xA809b77718fe9e27E8E4cfE5B801335C4E73437B",
          "topics": [
            "0xecdf3a3effea5783a3c4c2140e677577666428d44ed9d474a0b3a4c9943f8440"
          ],
          "data": "0x000000000000000000000000701149754188b710b0c58f23c5356e6620cf74c2",
          "blockHash": "0x186ce98809378219329424d7fc4085de31635c109e54dfca509ce43c91d21a38",
          "blockNumber": "0x962b06",
          "transactionHash": "0xfe3d34ad6b8733588f9fec643214f8d0293cd7606989ceac813964e353b05fef",
          "transactionIndex": "0x5",
          "logIndex": "0x3",
          "removed": false
        },
        {
          "address": "0xA809b77718fe9e27E8E4cfE5B801335C4E73437B",
          "topics": [
            "0x1151116914515bc0891ff9047a6cb32cf902546f83066499bcf8ba33d2353fa2"
          ],
          "data": "0x000000000000000000000000701149754188b710b0c58f23c5356e6620cf74c2",
          "blockHash": "0x186ce98809378219329424d7fc4085de31635c109e54dfca509ce43c91d21a38",
          "blockNumber": "0x962b06",
          "transactionHash": "0xfe3d34ad6b8733588f9fec643214f8d0293cd7606989ceac813964e353b05fef",
          "transactionIndex": "0x5",
          "logIndex": "0x4",
          "removed": false
        },
        {
          "address": "0xA809b77718fe9e27E8E4cfE5B801335C4E73437B",
          "topics": [
            "0x442e715f626346e8c54381002da614f62bee8d27386535b2521ec8540898556e"
          ],
          "data": "0x9e03e96afabaa1bba194761ed9182040482da2ad4ea16b9d60ca39d95212207c0000000000000000000000000000000000000000000000000000000000000000",
          "blockHash": "0x186ce98809378219329424d7fc4085de31635c109e54dfca509ce43c91d21a38",
          "blockNumber": "0x962b06",
          "transactionHash": "0xfe3d34ad6b8733588f9fec643214f8d0293cd7606989ceac813964e353b05fef",
          "transactionIndex": "0x5",
          "logIndex": "0x5",
          "removed": false
        }
      ],
      "status": "0x1",
      "logsBloom": "0x00000000400000000000000000000000800000000000000000000000040008000000000000000000000000000000000000000000000010000000000000000000000000000020000000000000000000000000000000000000004000000000000000000000000000000000000000000000000000000000000000020000000000000000010000000000000000000000000000000000000000000000000000000000000000000000800000000000000004000000000000000000000000000000000000000000000000000000000000000000000000000000000000000000000000000000000000000000002000000000000000000000000000000000000000000000",
      "type": "0x2",
      "effectiveGasPrice": "0xb2d05e09"
    },
    {
      "transactionHash": "0x9422d671af4a6bd98dad9238426243c25cf9b21de9ca2e4e91a46ef364867e3b",
      "transactionIndex": "0x6",
      "blockHash": "0x186ce98809378219329424d7fc4085de31635c109e54dfca509ce43c91d21a38",
      "blockNumber": "0x962b06",
      "from": "0x921d360aD22A6D0289ce57fcb8250e299cB19EA3",
      "to": "0x701149754188B710b0C58f23c5356E6620cF74C2",
      "cumulativeGasUsed": "0x2868c8",
      "gasUsed": "0x121a6",
      "contractAddress": null,
      "logs": [],
      "status": "0x1",
      "logsBloom": "0x00000000000000000000000000000000000000000000000000000000000000000000000000000000000000000000000000000000000000000000000000000000000000000000000000000000000000000000000000000000000000000000000000000000000000000000000000000000000000000000000000000000000000000000000000000000000000000000000000000000000000000000000000000000000000000000000000000000000000000000000000000000000000000000000000000000000000000000000000000000000000000000000000000000000000000000000000000000000000000000000000000000000000000000000000000000",
      "type": "0x2",
      "effectiveGasPrice": "0xb2d05e09"
    },
    {
      "transactionHash": "0x5c9467483cbf497325effd7cd05ac3234be7601245f1251896d8c034b6d04f65",
      "transactionIndex": "0x7",
      "blockHash": "0x186ce98809378219329424d7fc4085de31635c109e54dfca509ce43c91d21a38",
      "blockNumber": "0x962b06",
      "from": "0x921d360aD22A6D0289ce57fcb8250e299cB19EA3",
      "to": "0x4e59b44847b379578588920cA78FbF26c0B4956C",
      "cumulativeGasUsed": "0x39328e",
      "gasUsed": "0x10c9c6",
      "contractAddress": null,
      "logs": [],
      "status": "0x1",
      "logsBloom": "0x00000000000000000000000000000000000000000000000000000000000000000000000000000000000000000000000000000000000000000000000000000000000000000000000000000000000000000000000000000000000000000000000000000000000000000000000000000000000000000000000000000000000000000000000000000000000000000000000000000000000000000000000000000000000000000000000000000000000000000000000000000000000000000000000000000000000000000000000000000000000000000000000000000000000000000000000000000000000000000000000000000000000000000000000000000000",
      "type": "0x2",
      "effectiveGasPrice": "0xb2d05e09"
    },
    {
      "transactionHash": "0xf039298bb6c171e918df26c40774b3bbc4bedde4ec657632cf8aa92ac035845b",
      "transactionIndex": "0x8",
      "blockHash": "0x186ce98809378219329424d7fc4085de31635c109e54dfca509ce43c91d21a38",
      "blockNumber": "0x962b06",
      "from": "0x921d360aD22A6D0289ce57fcb8250e299cB19EA3",
      "to": "0x3bA4a434bcc62a7f3B01984981fCAFf6411C4A03",
      "cumulativeGasUsed": "0x3abdd9",
      "gasUsed": "0x18b4b",
      "contractAddress": null,
      "logs": [
        {
          "address": "0x3bA4a434bcc62a7f3B01984981fCAFf6411C4A03",
          "topics": [
            "0xecdf3a3effea5783a3c4c2140e677577666428d44ed9d474a0b3a4c9943f8440"
          ],
          "data": "0x0000000000000000000000001c958e22bbf933ed2d4120d225ffe7e10387a853",
          "blockHash": "0x186ce98809378219329424d7fc4085de31635c109e54dfca509ce43c91d21a38",
          "blockNumber": "0x962b06",
          "transactionHash": "0xf039298bb6c171e918df26c40774b3bbc4bedde4ec657632cf8aa92ac035845b",
          "transactionIndex": "0x8",
          "logIndex": "0x6",
          "removed": false
        },
        {
          "address": "0x3bA4a434bcc62a7f3B01984981fCAFf6411C4A03",
          "topics": [
            "0x1151116914515bc0891ff9047a6cb32cf902546f83066499bcf8ba33d2353fa2"
          ],
          "data": "0x0000000000000000000000001c958e22bbf933ed2d4120d225ffe7e10387a853",
          "blockHash": "0x186ce98809378219329424d7fc4085de31635c109e54dfca509ce43c91d21a38",
          "blockNumber": "0x962b06",
          "transactionHash": "0xf039298bb6c171e918df26c40774b3bbc4bedde4ec657632cf8aa92ac035845b",
          "transactionIndex": "0x8",
          "logIndex": "0x7",
          "removed": false
        },
        {
          "address": "0x3bA4a434bcc62a7f3B01984981fCAFf6411C4A03",
          "topics": [
            "0x442e715f626346e8c54381002da614f62bee8d27386535b2521ec8540898556e"
          ],
          "data": "0xe0737180d4927bb3b921df450effe674a8f0894a769a8c046095fe129b483e540000000000000000000000000000000000000000000000000000000000000000",
          "blockHash": "0x186ce98809378219329424d7fc4085de31635c109e54dfca509ce43c91d21a38",
          "blockNumber": "0x962b06",
          "transactionHash": "0xf039298bb6c171e918df26c40774b3bbc4bedde4ec657632cf8aa92ac035845b",
          "transactionIndex": "0x8",
          "logIndex": "0x8",
          "removed": false
        }
      ],
      "status": "0x1",
      "logsBloom": "0x00000000400000000000000000000000800000000000000000000000040000000000800000000000000000000000000000000000000000000000000000000000000000000020000000000000000000000000000000000000004000000000000000000000000000000000000000000000000000000000000000000000000000000000010000000000000000000000000000000000000000000000000000080000000000000001800000000000000004000000000000000000000000000000000000000000000000000000000000000000000000000000000000000000000000000000000000000000002000000000000000000000000000000000000000000000",
      "type": "0x2",
      "effectiveGasPrice": "0xb2d05e09"
    },
    {
      "transactionHash": "0xdf6c4abddfce16d22e695be23bdaf7e8c63e69f1c9c2848e07273c7cf102f06e",
      "transactionIndex": "0x9",
      "blockHash": "0x186ce98809378219329424d7fc4085de31635c109e54dfca509ce43c91d21a38",
      "blockNumber": "0x962b06",
      "from": "0x921d360aD22A6D0289ce57fcb8250e299cB19EA3",
      "to": "0x1c958E22bBF933Ed2d4120D225FfE7E10387A853",
      "cumulativeGasUsed": "0x3bdf7f",
      "gasUsed": "0x121a6",
      "contractAddress": null,
      "logs": [],
      "status": "0x1",
      "logsBloom": "0x00000000000000000000000000000000000000000000000000000000000000000000000000000000000000000000000000000000000000000000000000000000000000000000000000000000000000000000000000000000000000000000000000000000000000000000000000000000000000000000000000000000000000000000000000000000000000000000000000000000000000000000000000000000000000000000000000000000000000000000000000000000000000000000000000000000000000000000000000000000000000000000000000000000000000000000000000000000000000000000000000000000000000000000000000000000",
      "type": "0x2",
      "effectiveGasPrice": "0xb2d05e09"
    },
    {
      "transactionHash": "0x687ffec7babec98294d1254bb714b9af7b3933e1842856885d4ee9007e8a3b59",
      "transactionIndex": "0xa",
      "blockHash": "0x186ce98809378219329424d7fc4085de31635c109e54dfca509ce43c91d21a38",
      "blockNumber": "0x962b06",
      "from": "0x921d360aD22A6D0289ce57fcb8250e299cB19EA3",
      "to": "0x4e59b44847b379578588920cA78FbF26c0B4956C",
      "cumulativeGasUsed": "0x4ca945",
      "gasUsed": "0x10c9c6",
      "contractAddress": null,
      "logs": [],
      "status": "0x1",
      "logsBloom": "0x00000000000000000000000000000000000000000000000000000000000000000000000000000000000000000000000000000000000000000000000000000000000000000000000000000000000000000000000000000000000000000000000000000000000000000000000000000000000000000000000000000000000000000000000000000000000000000000000000000000000000000000000000000000000000000000000000000000000000000000000000000000000000000000000000000000000000000000000000000000000000000000000000000000000000000000000000000000000000000000000000000000000000000000000000000000",
      "type": "0x2",
      "effectiveGasPrice": "0xb2d05e09"
    },
    {
      "transactionHash": "0x84ffefcaf5f71ebd62d84ccf204d8e6c7a00d46dc6fa4e7080577dc8e5085acc",
      "transactionIndex": "0xb",
      "blockHash": "0x186ce98809378219329424d7fc4085de31635c109e54dfca509ce43c91d21a38",
      "blockNumber": "0x962b06",
      "from": "0x921d360aD22A6D0289ce57fcb8250e299cB19EA3",
      "to": "0xc21cBd97e46dE91bE7A659f4f6a0F5866C538eFD",
      "cumulativeGasUsed": "0x4e3490",
      "gasUsed": "0x18b4b",
      "contractAddress": null,
      "logs": [
        {
          "address": "0xc21cBd97e46dE91bE7A659f4f6a0F5866C538eFD",
          "topics": [
            "0xecdf3a3effea5783a3c4c2140e677577666428d44ed9d474a0b3a4c9943f8440"
          ],
          "data": "0x000000000000000000000000713534e7c834aa0e772e5fc0a05e8e53327e863c",
          "blockHash": "0x186ce98809378219329424d7fc4085de31635c109e54dfca509ce43c91d21a38",
          "blockNumber": "0x962b06",
          "transactionHash": "0x84ffefcaf5f71ebd62d84ccf204d8e6c7a00d46dc6fa4e7080577dc8e5085acc",
          "transactionIndex": "0xb",
          "logIndex": "0x9",
          "removed": false
        },
        {
          "address": "0xc21cBd97e46dE91bE7A659f4f6a0F5866C538eFD",
          "topics": [
            "0x1151116914515bc0891ff9047a6cb32cf902546f83066499bcf8ba33d2353fa2"
          ],
          "data": "0x000000000000000000000000713534e7c834aa0e772e5fc0a05e8e53327e863c",
          "blockHash": "0x186ce98809378219329424d7fc4085de31635c109e54dfca509ce43c91d21a38",
          "blockNumber": "0x962b06",
          "transactionHash": "0x84ffefcaf5f71ebd62d84ccf204d8e6c7a00d46dc6fa4e7080577dc8e5085acc",
          "transactionIndex": "0xb",
          "logIndex": "0xa",
          "removed": false
        },
        {
          "address": "0xc21cBd97e46dE91bE7A659f4f6a0F5866C538eFD",
          "topics": [
            "0x442e715f626346e8c54381002da614f62bee8d27386535b2521ec8540898556e"
          ],
          "data": "0x64ed2c5319dac77f3155b2515c236a5dd1e370afaf964044f43a0f33f1fd10220000000000000000000000000000000000000000000000000000000000000000",
          "blockHash": "0x186ce98809378219329424d7fc4085de31635c109e54dfca509ce43c91d21a38",
          "blockNumber": "0x962b06",
          "transactionHash": "0x84ffefcaf5f71ebd62d84ccf204d8e6c7a00d46dc6fa4e7080577dc8e5085acc",
          "transactionIndex": "0xb",
          "logIndex": "0xb",
          "removed": false
        }
      ],
      "status": "0x1",
      "logsBloom": "0x00000000400000000000000000000000800000000000000000000000040000000000000000000000000000000000100000000000000000000000000000000000000000000020000000000000000000000000000000000000004000000000000000000000000000000000000000000000000000000000000000000000000000000000010000000000000000000000000000000000000000000000000000000000000000000000800000000000000004000200000000000000000000000000000000000000000000004000000000000000000000000000000000000000000000000000000000000000002000000000000000000000000000000000000000000000",
      "type": "0x2",
      "effectiveGasPrice": "0xb2d05e09"
    },
    {
      "transactionHash": "0x79bd0455b33649e4b9d7530194742fffd79214eb12ab2930fd26e58440ba24d8",
      "transactionIndex": "0xc",
      "blockHash": "0x186ce98809378219329424d7fc4085de31635c109e54dfca509ce43c91d21a38",
      "blockNumber": "0x962b06",
      "from": "0x921d360aD22A6D0289ce57fcb8250e299cB19EA3",
      "to": "0x713534E7c834aA0E772E5fC0A05E8E53327e863c",
      "cumulativeGasUsed": "0x4f1c5c",
      "gasUsed": "0xe7cc",
      "contractAddress": null,
      "logs": [],
      "status": "0x1",
      "logsBloom": "0x00000000000000000000000000000000000000000000000000000000000000000000000000000000000000000000000000000000000000000000000000000000000000000000000000000000000000000000000000000000000000000000000000000000000000000000000000000000000000000000000000000000000000000000000000000000000000000000000000000000000000000000000000000000000000000000000000000000000000000000000000000000000000000000000000000000000000000000000000000000000000000000000000000000000000000000000000000000000000000000000000000000000000000000000000000000",
      "type": "0x2",
      "effectiveGasPrice": "0xb2d05e09"
    }
  ],
  "libraries": [],
  "pending": [],
  "returns": {},
  "timestamp": 1696928374,
  "chain": 5,
  "multi": false,
  "commit": "39f02b6"
}